:020000040000FA
:040000005AEF00F0C3
:100008005B82FACF01F0FBCF02F0D9CF03F0DACF51
:1000180004F00E01BDBBC5AB03D005ECB5F03CD078
:10002800F2AC3AD0C0BDC8AD0BD001D835D0050070
:10003800FA6E01014D51FD6E4E51FE6E4F5129D0A1
:10004800C0BFC8AF0BD001D827D00500FA6E010198
:100058004A51FD6E4B51FE6E4C511BD0C0B9C8A918
:100068000BD001D819D00500FA6E01015C51FD6E64
:100078005D51FE6E5E510DD0C0BBC8AB0DD001D82E
:100088000BD00500FA6E01015951FD6E5A51FE6EF2
:100098005B51FF6EFA50120004C0DAFF03C0D9FFAB
:1000A80002C0FBFF01C0FAFF5B921100AAEFA7F0A4
:10F32200003A6E01DA6D01CC6D012A55018859014E
:10F33200306E01E45D01966E018E6E01866E017E75
:10F342006E01766E016E6E01666E01266E01A86018
:10F35200011F1C1F1E1F1E1F1F1E1F1E1F00040039
:10F36200000010000000040000000400000004007F
:10F372000000040000000400000004000000C007B8
:10F382000001409F00F84EFC20FC30FC107C204025
:10F392004E714E0027724E63010E0D0C0B0A04FAD9
:10F3A2004FF90007FFFA43FA0480610002E06100AE
:10F3B20003F8B03C000266000038203C000005A8BB
:10F3C20041F90007C04443F9000F800012D851C828
:10F3D200FFFC4FF9000FBFFE247C000F7FFF4EF9A8
:10F3E200000F800043FA04D3610002A26000002AE9
:10F3F200B03C00016600001443FA04B96100028EB9
:10F40200247C0007BFFF6000001043FA04A16100E2
:10F41200027C247C0001BFFF103A040AB03C0001C8
:10F422006700000E43FA04B5610002626000000A40
:10F4320043FA048E6100025643FA041A6100024E36
:10F442006100032E42856100023061000260B03C1F
:10F452000053670000587A036000002CB03C000A99
:10F4620066000040700D61000244600000366100D9
:10F47200020861000238B03C000D66E0700A6100CB
:10F48200022C4A0567C0BA3C000167000240BA3C40
:10F49200000267000248BA3C0003670002506000A5
:10F4A20002E8B03C00536700000460C2610001CA78
:10F4B200610001FAB03C003067B4B03C0031670033
:10F4C200001CB03C00326700005CB03C0035679E17
:10F4D200B03C0038670000AC600001E24284740175
:10F4E20061000128D8013601594374036100011CEF
:10F4F200D801E059D801E059204174016100010CA2
:10F50200D8011081B218670000047A0151CBFFECD8
:10F5120046047401610000F4B8016700FF527A02E8
:10F522006000FF4C4284343C0001610000DED801DF
:10F5320036015B43343C0005610000D0D801E099FC
:10F54200D801E099D801E099E0992041343C0001CA
:10F55200610000B8D801610001F01081B2186700A3
:10F5620000061A3C000151CBFFE44604343C000182
:10F5720061000098B8016700FEF61A3C00026000C4
:10F58200FEEE4284343C000161000080D801360165
:10F592005B43343C000561000072D801E099D80158
:10F5A200E099D801E099E09920414604343C0001F9
:10F5B20061000058B8016700000A1A3C00026000AE
:10F5C200FEAE43FA02AB610000C443FA02C261001C
:10F5D20000BC6100019C43FA02CF610000B043FA13
:10F5E200028F610000A843FA0291610000A02C087A
:10F5F2006100014243FA022F610000926100014A58
:10F6020043FA0223610000864ED04281616A6100A2
:10F61200009C6118B03C00FF660000087A0360009D
:10F62200FE66E989D20051CAFFE44E75B03C00661D
:10F632006200002AB03C006062000038B03C004624
:10F642006200001AB03C004062000018B03C003971
:10F652006200000AB03C002F6200001070FF6000E0
:10F662000016040000376000000E04000030600045
:10F672000006040000574E751039000FFFFE080007
:10F68200000267F41039000FFFFD4E752F001019AC
:10F69200B03C00006700001213FC0001000FFFFDE8
:10F6A20013C0000FFFFC60E6201F4E7513FC000123
:10F6B200000FFFFD13C0000FFFFC4E7543FA01B1AE
:10F6C20061CA43FA026D61C4600000BE43FA01A13F
:10F6D20061BA43FA027661B4600000AE43FA019166
:10F6E20061AA43FA028161A46000009E43FA01818B
:10F6F200619A43FA028361946000008E0247000F10
:10F70200BE3C0009650000045E070647003013FC9A
:10F712000001000FFFFD13C7000FFFFC4E751E0610
:10F72200E81F61D81E0661D44E75E09E61F0E19E2D
:10F7320061EC4E75484661E6484661EE4E754846B4
:10F7420061E8484661E44E75B1CA620000044E7534
:10F7520043FA011D6100FF3643FA019C6100FF2E4E
:10F762002C0861D043FA00BF6100FF226000001A3A
:10F772001039000FFFFE080000026700000A10396E
:10F78200000FFFFD60EA4E7543FA017F6100FEFE45
:10F7920023FC000000010000002023FC0000000107
:10F7A2000000000C4E7207001039000FFFFE080027
:10F7B20000036600003A41FA006C421013FC005547
:10F7C200000FBFF01039000FBFF0B03C00556600CB
:10F7D200001E13FC00AA000FBFF01039000FBFF08B
:10F7E200B03C00AA66000008103C00024E7513FCF3
:10F7F20000550001AFF010390007AFF0B03C0055E2
:10F802006600001C13FC00AA0001AFF010390007CB
:10F81200AFF0B03C00AA6600000642004E75103CF4
:10F8220000014E75010D0A00734C6F6164202D209A
:10F83200532D7265636F7264204C6F616465722030
:10F842002D20533138303232312D5231353035326C
:10F85200310D0A0057616974696E6720696E7075AF
:10F86200742073747265616D2E2E2E0D0A0A000DBE
:10F872000A734C6F61643A20005374617274696E4A
:10F882006720416464726573733A20307800466C75
:10F89200757368696E6720696E707574206275662B
:10F8A2006665722E2E2E0020646F6E65003132382E
:10F8B2004B42003531324B4200313032344B420040
:10F8C200202D204C69746520485720636F6E66694D
:10F8D2006775726174696F6E0D0A00202D2046757E
:10F8E2006C6C20485720636F6E666967757261742D
:10F8F200696F6E0D0A00496C6C6567616C2041642A
:10F90200647265737320307800734C6F61643A20BF
:10F912004C6F616465722061626F72746564202D40
:10F922002053797374656D2068616C7465640D0A87
:10F9320000496C6C6567616C20532D7265636F7250
:10F94200642074797065210D0A0052414D2077724E
:10F9520069746520766572696679206661696C658D
:10F9620064210D0A00436865636B73756D206572CF
:10F97200726F72210D0A00496C6C6567616C2063BD
:10F982006861726163746572210D0A004E6F7620A0
:10F99200313420323032310031313A35333A343475
:10F9A200000D0A0A36386B2D4D4243202D2041307E
:10F9B20039313032302D523134303232310D0A4940
:10F9C2004F53202D20492F4F205375627379737442
:10F9D200656D202D20533331303132312D52303983
:10F9E200313132315F444556454C300D0A0A000D23
:10F9F2000A507265737320435220746F20616363EF
:10FA02006570742C2045534320746F2065786974A7
:10FA1200206F7220616E79206F74686572206B6549
:10FA22007920746F206368616E67650D0A0A00436E
:10FA320068616E67656420737065656473207769B9
:10FA42006C6C206265206566666563746976652004
:10FA52006166746572206E657874207265626F6F7C
:10FA620074210D0A0A000D0A507265737320542F17
:10FA72005520746F20696E6372656D656E74202BFC
:10FA820031302F2B31206F7220435220746F20614E
:10FA920063636570740D0A000D0A494F533A20538F
:10FAA200656C65637420626F6F74206D6F6465208E
:10FAB2006F722073797374656D20706172616D6508
:10FAC200746572733A0D0A000A0D494F533A204386
:10FAD20050552062757320666174616C2065727284
:10FAE2006F7220636F64653A202575202D20416274
:10FAF2006F727465640A0D00494F533A2041757460
:10FB02006F626F6F74206C6F6164203078253035BE
:10FB12006C78202D20657865632030782530356C2F
:10FB220078200A0D00494F533A20436865636B20E1
:10FB3200534420616E642070726573732061206B80
:10FB4200657920746F207265706561740D0A0A0010
:10FB52000D0A0A494F533A20426175642072656367
:10FB62006F76657279202D20506C65617365207205
:10FB720065626F6F74206E6F7721000A446F20797F
:10FB82006F752077616E7420736574205254432020
:10FB9200617420494F5320636F6D70696C652074E6
:10FBA200696D65202800494F533A2052544320443E
:10FBB20053333233312074656D70657261747572BE
:10FBC200652073656E736F723A202575430D0A00C6
:10FBD200494F533A20363830303820435055206947
:10FBE200732072756E6E696E672066726F6D206E1D
:10FBF2006F770A0A0D00494F533A204C6974652009
:10FC0200485720636F6E66696775726174696F6EBB
:10FC12002064657465637465640A0D00494F533A44
:10FC22002046756C6C20485720636F6E6669677555
:10FC3200726174696F6E2064657465637465640AC9
:10FC42000D00494F533A205254432073657420618A
:10FC52007420636F6D70696C652074696D65202D09
:10FC6200204E6F773A20000D0A0A494F533A204539
:10FC72006D7074792066696C65202D204C6F61640B
:10FC82002061626F72746564210020363A204368F5
:10FC9200616E67652073657269616C20706F727442
:10FCA200732073706565640D0A00494F533A20460C
:10FCB2006F756E64205254432044533332333120E3
:10FCC2004D6F64756C652028000D0A494F533A2028
:10FCD200525443206D616E75616C20736574746952
:10FCE2006E673A0D0A00494F533A2052544320643A
:10FCF2006174652F74696D652075706461746564E3
:10FD020020280020373A204368616E6765204350FF
:10FD12002F4D204175746F6578656320282D3E0054
:10FD220020383A204368616E67652052544320743C
:10FD3200696D652F646174650D0A00494F533A205D
:10FD420052544320636C6F636B206661696C7572F9
:10FD520065210D0A00494F533A204C6F6164696E68
:10FD62006720626F6F742070726F6772616D00201E
:10FD7200323A20456E68616E6365642036384B20E6
:10FD820042617369630D0A00494F533A20466F7509
:10FD92006E6420475045204F7074696F6E0D0A00E3
:10FDA200494F533A2043502F4D204175746F657867
:10FDB200656320697320000D202020202020202050
:10FDC200202020202020202020202000456E746545
:10FDD2007220796F75722063686F696365203E00D7
:10FDE2002020202020202020202020202020202011
:10FDF200200D0020343A204C6F6164204F5320665E
:10FE0200726F6D2000202E2E2E646F6E65202020D2
:10FE12002020200D0A000D0A494F533A2053442056
:10FE22006572726F7220000D202D3E5365726961FA
:10FE32006C2025753A200020303A204E6F206368EE
:10FE4200616E676520280020333A204175746F6225
:10FE52006F6F740D0A000D0A20353A204368616EF7
:10FE620067652000494F533A2043757272656E747C
:10FE720020004E4F5F46494C4553595354454D005F
:10FE82004155544F424F4F542E42494E0041555412
:10FE92004F424F4F542E4144520020313A20734C6E
:10FEA2006F61640D0A005365636F6E6473202D3EAB
:10FEB20020004D696E75746573202D3E20004E4FF3
:10FEC200545F454E41424C4544004469736B205394
:10FED200657420257500293F205B592F4E5D203E19
:10FEE200004E4F545F4F50454E45440045424153EA
:10FEF20049432E42494E00206F7065726174696FEA
:10FF02006E00202D2046696C653A20004D6F6E749C
:10FF120068202D3E2000486F757273202D3E200010
:10FF22000D20446179202D3E200043504D36382E5D
:10FF320042494E004E4F545F524541445900256399
:10FF420020204F6B0D0A0059656172202D3E200062
:10FF52004449534B5F4552520020646F6E650A0D4F
:10FF6200004E4F5F46494C4500554E4B4E4F574E43
:10FF720000313135323030002575290D0A004F46E7
:10FF8200460D0A002028257329003139323030000D
:10FF92003537363030005752495445004D4F554E93
:10FFA2005400290D0A0A004F4E0D0A0025630D0A5E
:10FFB20000206F6E20003132303000323430300099
:10FFC20039363030000D202D3E0052454144005359
:10FFD20045454B004F50454E0020204F6B002E2EC2
:10FFE2002E00333030004F4646006C58006C6E00D5
:0EFFF2006C75006C78004F4E002F003A000036
:020000040001F9
:10000000DBECB2F0000E01013A6F000E3B6F000E08
:100010003C6F000E3D6FF60E056E6D0E066E010E06
:10002000076E99ECB6F0F28EF28CCE0E0F01096FCE
:10003000CF0E196F000E1E6FFD0E266F08ECB7F085
:100040000001936F9351D8B407D027ECB7F0000E9E
:100050000001FE6F010E926F8390090E0001F66F92
:100060001E0EF56FE40EE82EFED7F52FFCD7F62F07
:10007000FAD700F08380290E0001F66F960EF56F17
:100080007F0EE82EFED7F52FFCD7F62FFAD78DBCC2
:1000900003D0010E0001916F000E066E0C0E056E6E
:1000A00049ECB6F00001886F8851D8B40BD0000E2F
:1000B0000A6E0C0E096E000E0B6E1DECB4F0000EF5
:1000C0000001886F000E066E0D0E056E49ECB6F04D
:1000D00000018D6F060E8D650AD0060E8D6F000E25
:1000E0000A6E0D0E096E8DC00BF01DECB4F0000E03
:1000F000066E0E0E056E49ECB6F000018C6F060E12
:100100008C650AD0060E8C6F000E0A6E0E0E096EFC
:100110008CC00BF01DECB4F000018D51B4ECABF0D1
:1001200006C005F0066A05509B6E00018D51B4ECC7
:10013000ABF005509A6E00018C51B4ECABF006C0E8
:1001400005F0066A05500E01976F00018C51B4EC62
:10015000ABF005500E01966FA30E0001C46FF90EAF
:10016000C56FA0ECB5F09351D8B407D0F80EC46FAA
:10017000FB0EC56FA0ECB5F006D01E0EC46FFC0ED2
:10018000C56FA0ECB5F0110E0001F66F3C0EF56FD7
:10019000CB0EE82EFED7F52FFCD7F62FFAD754EC6E
:1001A000B6F054EC99F00001816F200E2AECB0F00B
:1001B0000009D8A402D0010E836F8351D8B406D0B1
:1001C0008A0EC46FFD0EC56FA0ECB5F0A20EC46F11
:1001D000FD0EC56FA0ECB5F0000E066E0B0E056EA1
:1001E00049ECB6F00001F56F010EF56508D0000E80
:1001F0000A6E0B0E096E000E0B6E1DECB4F0000EB5
:10020000066E0B0E056E49ECB6F00001866F865146
:10021000D8B407D0A90EC46FFF0EC56FA0ECB5F01F
:1002200006D0800EC46FFF0EC56FA0ECB5F0650E52
:100230003E6E010E3F6E5EECB6F0650E3E6E010E38
:100240003F6E5EECB6F0000E066E0A0E056E49ECCF
:10025000B6F00001906F9105D8B406D0030E9065FA
:100260000AD202D0EDECB1F05A50D8A4FBD79A0EC6
:100270000001C46FFA0EC56FA0ECB5F0030E9065D7
:100280000BD0000E0A6E0A0E096E000E0B6E1DECEE
:10029000B4F0000E0001906F390EC46FFE0EC56FF2
:1002A000A0ECB5F07A0EC46FFF0EC56F010E90255D
:1002B000C66FC76B000EC723A0ECB5F09C0EC46FD1
:1002C000FE0EC56FA0ECB5F0710EC46FFD0EC56FCC
:1002D000A0ECB5F0490EC46FFE0EC56FA0ECB5F0F2
:1002E000F50EC46FFD0EC56FA0ECB5F0885151EC52
:1002F000AFF0580EC46FFE0EC56FA0ECB5F088517C
:1003000051ECAFF0150EC46FFE0EC56FA0ECB5F04A
:100310008C0EC46FFC0EC56FA0ECB5F0050EC46F5B
:10032000FD0EC56FA0ECB5F08651D8A407D0F80E2D
:10033000C46FFF0EC56FA0ECB5F006D0E80EC46F19
:10034000FF0EC56FA0ECB5F07C0EC46FFF0EC56F3D
:10035000A0ECB5F08151D8B408D0220EC46FFD0EC8
:10036000C56FA0ECB5F0380EFC6F150EC46FFE0E15
:10037000C56FA0ECB5F0CE0EC46FFD0EC56FA0EC3E
:10038000B5F0DA0E0001D76F560ED86F010ED96F97
:10039000D6ECA1F0EDECB1F0586E2F0E5864F1D709
:1003A00058500001FC5DD8A0ECD7400EC46FFF0E82
:1003B000C56F58C0C6F0C76BA0ECB5F02FD17BEC71
:1003C000B6F088C057F0000E576EC70E0001C46F1C
:1003D000FF0EC56FA0ECB5F0575051ECAFF0E20E38
:1003E000C46FFD0EC56FA0ECB5F002D0EDECB1F01E
:1003F0005A50D8A4FBD7000E0001D76F000ED86F5B
:10040000000ED96FD6ECA1F0EDECB1F0586E0D0EE8
:100410005818D8B404D01B0E5818D8A4D4D7640EDA
:100420000001C46FFA0EC56FA0ECB5F00D0E5818A0
:10043000D8A408D157C088F0000E0A6E0C0E096EC1
:1004400057C00BF01DECB4F0FDD0000E8E6F010E06
:100450008F6F020E8F6501D0BED07BECB6F08F059A
:10046000D8A407D0000E066E0D0E056E49ECB6F04E
:1004700006D0000E066E0E0E056E49ECB6F0576EF5
:100480005706572A060E576402D0000E576EB90E53
:100490000001C46FFD0EC56FA0ECB5F0290EC46F4E
:1004A000FE0EC56F8FC0C6F0C76BA0ECB5F031D0A3
:1004B000E40EC46FFF0EC56FA0ECB5F04AD0B80EC5
:1004C000C46FFF0EC56FA0ECB5F043D0BD0EC46F76
:1004D000FF0EC56FA0ECB5F03CD0C20EC46FFF0E8E
:1004E000C56FA0ECB5F035D08C0EC46FFF0EC56F94
:1004F000A0ECB5F02ED0920EC46FFF0EC56FA0EC2D
:10050000B5F027D0730EC46FFF0EC56FA0ECB5F029
:1005100020D05750F56FF66BF651000AD8A419D0C9
:10052000F551000AD8B4C4D7010AD8B4C8D7030A11
:10053000D8B4CCD7010AD8B4D0D7070AD8B4D4D706
:10054000010AD8B4D8D7030AD8B4DCD702D0EDEC6E
:10055000B1F05A50D8A4FBD7000E0001D76F000E9F
:10056000D86F000ED96FD6ECA1F0EDECB1F0586E5B
:100570000D0E5818D8B404D01B0E5818D8A481D723
:100580000D0E5818D8A41ED0DB0E0001C46FFF0E4C
:10059000C56FA0ECB5F08F05D8A409D0000E0A6E87
:1005A0000D0E096E57C00BF01DECB4F008D0000E14
:1005B0000A6E0E0E096E57C00BF01DECB4F0000170
:1005C0008E258E6F660E0001C46FFA0EC56FA0EC0B
:1005D000B5F08F2B3ED7150EC46FFE0EC56FA0EC85
:1005E000B5F08E51D8B42ED0310EC46FFA0EC56F4F
:1005F000A0ECB5F027D08651D8A402D0010E01D0CE
:10060000000E866F000E0A6E0B0E096E86C00BF090
:100610001DECB4F017D08CEC8EF014D05850F56F60
:10062000F66BF651000AD8A40DD0F551350AD8B4AE
:10063000C6D6030AD8B409D7010AD8B4DCD70F0A42
:10064000D8B4E9D7839E5850CF0F0001906F040EA5
:10065000906109D0000E0A6E0A0E096E90C00BF070
:100660001DECB4F008D0000E066E0A0E056E49ECC3
:10067000B6F00001906F030E00019019D8A4C4D009
:10068000660EC46FFE0EC56FA0ECB5F0885151EC3C
:10069000AFF0150EC46FFE0EC56FA0ECB5F0B4D070
:1006A000A20E0101636FF30E646FEC0E2E6F050E48
:1006B0002F6F000E306F000E316F000E0001606F63
:1006C000C00E616F070E626F000E636F000E646FE5
:1006D000C00E656F070E11D0EE0E7C6FFE0E7D6FA3
:1006E000000E606F040E616F000E626F000E636F8C
:1006F000000E646F040E656F000E666F000E676F6C
:1007000097D0000E606F040E616F000E626F000ED6
:10071000636F000E646F040E656F000E666F000E4F
:10072000676F8F0E7C6FFE0E7D6F8F0E556EFE0E07
:10073000566E8BECB6F00009D8A43AD0A00E446EE9
:10074000060E456EA50E466E4BECB4F0A65104E1C4
:10075000070EA55DD8A02CD0A00E376E060E386E01
:10076000AF0E396E010E3A6E000E3C6E100E3B6EEF
:100770002AECB3F037C060F038C061F039C062F0E5
:100780003AC063F0AFC137F0B0C138F0000E396E37
:10079000000E3A6E000E3C6E100E3B6E2AECB3F06B
:1007A00037C064F038C065F039C066F03AC067F011
:1007B000FA0E0001C46FFA0EC56F60C0C6F061C0CA
:1007C000C7F062C0C8F063C0C9F064C0CAF065C0B9
:1007D000CBF066C0CCF067C0CDF0A0ECB5F0820ED7
:1007E0007C6FFE0E7D6F24D02C0E7C6FFF0E77D7B2
:1007F0008851F56FF66BF651000AD8A419D0F5515F
:10080000000AD8B4F1D714D09051F56FF66BF651B9
:10081000000AD8A40DD0F551000AD8B441D7010A76
:10082000D8B45AD7030AD8B46CD7010AD8B4E0D7E1
:10083000570EC46FFD0EC56FA0ECB5F09051D8B443
:1008400010D0860EC46FFF0EC56F7CC0C6F07DC091
:10085000C7F0A0ECB5F07CC0EFF07DC0F0F023EC69
:10086000A6F0E00EC46FFF0EC56FA0ECB5F0000E51
:10087000B8ECADF0000EB8ECADF0100EB8ECADF089
:10088000000EB8ECADF0000EB8ECADF0000EB8EC18
:10089000ADF0040EB8ECADF0000EB8ECADF0200EEB
:1008A000B8ECADF07C0EB8ECADF0000EB8ECADF0ED
:1008B000000EB8ECADF0000EB8ECADF0000EB8ECE8
:1008C000ADF0200EB8ECADF0FC0EB8ECADF0000EC3
:1008D000B8ECADF0000EB8ECADF0100EB8ECADF029
:1008E000000EB8ECADF0200EB8ECADF0FC0EB8EC9C
:1008F000ADF040ECADF000016751B8ECADF0000197
:100900006651B8ECADF000016551B8ECADF00001F6
:100910006451B8ECADF0200EB8ECADF07C0EB8EC44
:10092000ADF040ECADF000016351B8ECADF000016A
:100930006251B8ECADF000016151B8ECADF00001CE
:100940006051B8ECADF000019051D8B47AD0A00E4F
:10095000446E060E456EA50E466E4BECB4F0896FE4
:10096000A551A611D8B402D0000EF96F000E736F16
:10097000000E726F37D0200EB8ECADF0FC0EB8EC64
:10098000ADF040ECADF0A00E00017225D96E060E60
:100990007321DA6EDF50B8ECADF0A10E00017225C4
:1009A000D96E060E7321DA6EDF50B8ECADF0A20EF0
:1009B00000017225D96E060E7321DA6EDF50B8EC95
:1009C000ADF0A30E00017225D96E060E7321DA6E0A
:1009D000DF50B8ECADF0040E00017225726F000E0E
:1009E0007321736FA551725DA6517359D8A0C3D7F7
:1009F000020EA619A511D8A403D08951D8B4A7D73F
:100A00008951D8B411D089C0CFF07CC0D0F07DC05E
:100A1000D1F0020E5DEC9EF03CECB5F0000E4D6E98
:100A2000000E4C6E43ECB3F08951D8A490D7F95125
:100A3000D8B441D0690EC46FFC0EC56FA0ECB5F000
:100A4000FFD7000E0101326F000E336F000E346FBE
:100A5000000E356F26D0100EB8ECADF0FC0EB8ECE1
:100A6000ADF040ECADF0000EB8ECADF0010132514C
:100A700063250001F56F0101335164210001F66F18
:100A8000F5C0F6FFF6C0F7FF000EF86E0800F5504F
:100A9000B8ECADF0010E01013227000E33233423F0
:100AA00035232E51325D2F51335930513459315144
:100AB0003559D8A0D0D74E0EB8ECADF0720EB8ECC8
:100AC000ADF040ECADF0270EB8ECADF0000EB8EC98
:100AD000ADF05B0E0001C46FFF0EC56FA0ECB5F06A
:100AE000869286900E0128510209286F150E00018A
:100AF000F56FC60EE82EFED7F52FFCD700F08682E4
:100B00008680D20E0001C46FFB0EC56FA0ECB5F05D
:100B10000E0127ABE7D08CB23DD08EA204D00001ED
:100B2000F56BF52B02D00001F56B8EA402D0010EFF
:100B300001D0000E020DF350F525956F8FCF59F0BF
:100B40000AD0E9EC89F018D059C0FFF0000E7F6F91
:100B5000000E7E6F11D09551F56FF66BF651000ABD
:100B6000D8A40AD0F551000AD8B4EBD7010AD8B4FA
:100B7000EBD7030AD8A4010AF29E0E013251800974
:100B8000326F00F000F000F00E0132517F0B326F37
:100B9000F28EA8D08DB683D08EA204D00001F56B62
:100BA000F52B02D00001F56B8EA402D0010E01D00E
:100BB000000E020DF350F525956F000E596E3ED0D4
:100BC000D3EC97F04FD059685A50D8B403D0EDEC1D
:100BD000B1F0596E868446D09751D8B403D0F56BE6
:100BE000F52B02D00001F56B050EF66FD890F537A6
:100BF000F62FFCD793C0F7F0D890F737D890F73797
:100C0000D890F7375A50D8B403D0F86BF82B02D0ED
:100C10000001F86BD890F837D890F83781518125CA
:100C2000F811F711F5118611100906D0596897517E
:100C3000D8B418D0CCECB1F0596E14D09551F56FF2
:100C4000F66BF651000AD8A40DD0F551000AD8B4BD
:100C5000B7D7010AD8B4B7D7030AD8B4BDD7010AA9
:100C6000D8B4E4D78692000192B102D0829001D02C
:100C70008280000E8A6E59C085FF0E0132518009B4
:100C8000326F00F000F000F000F000F000F08A6831
:100C90000001FEB102D0829001D082801ED0400EB1
:100CA000596E8692000192B102D0829001D082806A
:100CB000000E8A6E59C085FF0E0132518009326FD5
:100CC00000F000F000F000F000F000F08A68000191
:100CD000FEB102D0829001D082800E0132517F0B92
:100CE000326F86825A50D8B413D700019451D8B4C9
:100CF0000FD786940DD74B50D96EDA6ADECFF6FF48
:100D0000DDCFF7FF000EF86E0800F550250AD8A4D5
:100D100046D34B50D96EDA6ADE2A000EDD22000E71
:100D20006B6F000E6A6F6AC06EF06BC06FF06C691B
:100D30006D69000EB46F000E13D06E814B50D96EEA
:100D4000DA6ADE2A000EDD222FD06E83F7D76E8599
:100D5000F5D76E87F3D76E89F1D7000EB46F010E09
:100D6000B36F22D04B50D96EDA6ADECFF6FFDDCFFB
:100D7000F7FF000EF86E0800F5504D6E4E6A4E50AB
:100D8000000AD8A4EAD74D50200AD8B4E2D7030A03
:100D9000D8B4E1D7080AD8B4DAD7060AD8B4CDD780
:100DA0001D0AD8B4D2D7D9D7B351B411D8B4DAD731
:100DB0006EB16E934B50D96EDA6ADECFF6FFDDCF9F
:100DC000F7FF000EF86E0800F5502A0AD8A41AD0D2
:100DD0004B50D96EDA6ADE2A000EDD224C50D96EF5
:100DE000DA6A020EDF26DF5CD96EDA6ADECF6AF0DD
:100DF000DECF6BF06BAF3FD06E816A6D6B1FD8B0EA
:100E00006B2B39D04B50D96EDA6ADECF0CF0DDCFC8
:100E10000DF0F6EC9FF00CC06AF00DC06BF006D040
:100E20004B50D96EDA6ADE2A000EDD22D00E4D6EEE
:100E3000FF0E4E6E4B50D96EDA6ADECFF6FFDDCF75
:100E4000F7FF000EF86E0800F5504F6E506A4D50D7
:100E50004F264E505022505006E10A0E4F5CD8B03B
:100E600002D0010E01D0000E0001B56FB66BB55176
:100E7000B611D8A4D5D74B50D96EDA6ADECFF6FFBB
:100E8000DDCFF7FF000EF86E0800F550630AD8A416
:100E90001DD04B50D96EDA6ADE2A000EDD224C508E
:100EA000D96EDA6ADF50DF2ADF2AD96EDA6ADF50BC
:100EB000B96F49C010F04AC011F0B9C012F0AEECE1
:100EC000A9F010C049F011C04AF012004B50D96E81
:100ED000DA6ADECFF6FFDDCFF7FF000EF86E08000E
:100EE000F5506E0AD8A42FD04B50D96EDA6ADE2A9C
:100EF000000EDD224C50D96EDA6A020EDF26DF5C6E
:100F0000D96EDA6ADECFB7F0DECFB8F0B7C0F6FF41
:100F1000B8C0F7FF000EF86E0E0EF76407D068C079
:100F2000F5FF0D0069C0F5FF0C0008D0F6CFE1FF1A
:100F3000F7CFE2FF68C0E6FF69C0E7FF000E4A6E28
:100F4000000E496E12004B50D96EDA6ADECF05F002
:100F5000DDCF06F0EF0E076EFF0E086E000E0A6E74
:100F6000020E096E49ECA7F005500610D8A43FD038
:100F70004B50D96EDA6A020EDE26000EDD224C508E
:100F8000D96EDA6A020EDF26DF5CD96EDA6ADECF4E
:100F9000B7F0DECFB8F068C04DF069C04EF0000E7B
:100FA0004EBEFF0E4F6E506EB7C0F6FFB8C0F7FFD3
:100FB000000EF86E0E0EF7640DD04DC0F5FF0D005B
:100FC0004EC0F5FF0D004FC0F5FF0D0050C0F5FFFE
:100FD0000C000CD0F6CFE1FFF7CFE2FF4DC0E6FFEB
:100FE0004EC0E6FF4FC0E6FF50C0E7FFA7D74B500B
:100FF000D96EDA6ADECFF6FFDDCFF7FF000EF86EAE
:101000000800F550730AD8A421D04B50D96EDA6A83
:10101000DE2A000EDD224C50D96EDA6A020EDF267F
:10102000DF5CD96EDA6ADECFB1F0DECFB2F049C054
:1010300010F04AC011F0B1C012F0B2C013F0A0EC31
:10104000A0F010C049F011C04AF012004B50D96E08
:10105000DA6ADECFF6FFDDCFF7FF000EF86E08008C
:10106000F550750AD8A438D04B50D96EDA6ADE2A0A
:10107000000EDD224C50D96EDA6ADF50DF2ADF2AFB
:10108000D96EDA6ADECF4DF0DDCF4EF04DC0BAF04A
:101090004EC0BBF00001BC6BBD6BBE6BBF6BC06BC9
:1010A000C16B49C022F04AC023F0BAC024F0BBC0D3
:1010B00025F0BCC026F0BDC027F0BEC028F0BFC0E0
:1010C00029F0C0C02AF0C1C02BF0B2EC9CF022C0C5
:1010D00049F023C04AF012004B50D96EDA6ADECFD5
:1010E00005F0DDCF06F0F20E076EFF0E086E000E63
:1010F0000A6E020E096E49ECA7F005500610D8A43E
:1011000041D04B50D96EDA6A020EDE26000EDD2287
:101110004C50D96EDA6ADFCF4DF0040EDF264D5009
:10112000D96EDA6ADECF4EF0DECF4FF0DECF50F070
:10113000DECF51F04E500001BA6F4F50BB6F505090
:10114000BC6F5150BD6FBE6BBF6BC06BC16B49C0F4
:1011500022F04AC023F0BAC024F0BBC025F0BCC0C6
:1011600026F0BDC027F0BEC028F0BFC029F0C0C027
:101170002AF0C1C02BF0B2EC9CF022C049F023C091
:101180004AF012004B50D96EDA6ADECFF6FFDDCF9F
:10119000F7FF000EF86E0800F550780AD8B40ED0AC
:1011A0004B50D96EDA6ADECFF6FFDDCFF7FF000EC7
:1011B000F86E0800F550580AD8A446D04B50D96EA6
:1011C000DA6ADECFF6FFDDCFF7FF000EF86E08001B
:1011D000F5CFB9F04B50D96EDA6ADE2A000EDD2267
:1011E0004C50D96EDA6ADF50DF2ADF2AD96EDA6A0C
:1011F000DECF4DF0DDCF4EF04DC0BAF04EC0BBF0AB
:101200000001BC6BBD6BBE6BBF6BC06BC16B49C0DB
:1012100022F04AC023F0BAC024F0BBC025F0BCC005
:1012200026F0BDC027F0BEC028F0BFC029F0C0C066
:101230002AF0C1C02BF0B9C02CF0AFEC9AF022C05C
:1012400049F023C04AF012004B50D96EDA6ADECF63
:1012500005F0DDCF06F0F50E076EFF0E086E000EEE
:101260000A6E020E096E49ECA7F005500610D8B4BC
:1012700015D04B50D96EDA6ADECF05F0DDCF06F01F
:10128000EC0E076EFF0E086E000E0A6E020E096E5F
:1012900049ECA7F005500610D8A457D04B50D96E92
:1012A000DA6ADECF4DF0DDCF4EF0010E4D26000E96
:1012B0004E224DC0F6FF4EC0F7FF000EF86E08003C
:1012C000F5CFB9F04B50D96EDA6A020EDE26000E69
:1012D000DD224C50D96EDA6ADFCF4DF0040EDF26E6
:1012E0004D50D96EDA6ADECF4EF0DECF4FF0DECF52
:1012F00050F0DECF51F04E500001BA6F4F50BB6F2F
:101300005050BC6F5150BD6FBE6BBF6BC06BC16B9B
:1013100049C022F04AC023F0BAC024F0BBC025F077
:10132000BCC026F0BDC027F0BEC028F0BFC029F069
:10133000C0C02AF0C1C02BF0B9C02CF0AFEC9AF0BD
:1013400022C049F023C04AF012004B50D96EDA6A2D
:10135000DECFF6FFDDCFF7FF000EF86E0800F55088
:10136000250AD8A415D04B50D96EDA6ADE2A000EB1
:10137000DD22000E086E250E076E49C009F04AC036
:101380000AF0F0ECADF0000E4A6E010E496E12004C
:101390004B50D96EDA6ADE2A000EDD22CFD54B50D3
:1013A000D96EDA6ADECFF6FFDDCFF7FF000EF86EFA
:1013B0000800F550076E086A49C009F04AC00AF0F3
:1013C000F0ECADF04B50D96EDA6ADE2A000EDD2269
:1013D000DAD725D259A002D0838E1200839E120044
:1013E000595022ECB7F012009351D8A4120059A022
:1013F0001200010E946F12008351D8B41200825172
:10140000D8A41200120E176E59C018F0200E22EC4C
:10141000AFF012008351D8B412008251D8A4120048
:10142000130E176E59C018F0200E22ECAFF0120008
:101430008351D8B412008251D8A41200000E176E46
:1014400059C018F0200E22ECAFF012008351D8B42E
:1014500012008251D8A41200010E176E59C018F064
:10146000200E22ECAFF012008351D8B4120082514A
:10147000D8A412000C0E176E59C018F0200E22ECE2
:10148000AFF012008351D8B412008251D8A41200D8
:101490000D0E176E59C018F0200E22ECAFF012009E
:1014A000640E596027D05BECAEF08851300F01011B
:1014B000BA6F0A0E056E59506AECB2F0300F010196
:1014C000BC6F0A0E056E59506AECB2F0F60DF3507F
:1014D0005924300F0101BD6F00018551D8A407D0F8
:1014E000B80E556E010E566E8BECB6F0856F010E80
:1014F000FB6F1200100E856F12007E517F11D8A471
:1015000004D059C07AF07B6B0FD05950EF6F7A51ED
:101510007A6FEFC07BF0020E7B5DD8B002D0000E78
:1015200001D0110E856FFF6900017E4B7F2B1200E9
:1015300059C0B0F0800EB06101D003D0120E856F9B
:101540001200000E856F12007E517F11D8A462D068
:101550007F0EB06501D05ED08551D8A45BD0B0417C
:10156000E8423F0B876F7AC0EFF07BC0F0F0050ECA
:10157000D890EF37F037E82EFBD78751EF11786F0F
:10158000F051796FB0C0EFF0030EEF17EF51800DFF
:10159000F3CF74F0F4CF75F0010EF46F7651781933
:1015A00009E177517919D8A405D0FB51D8A402D00C
:1015B000000EF46FF4C08AF08A51D8B427D05BECE7
:1015C000AEF08551D8A407D078C04CF079C04DF06A
:1015D00043ECB3F0856F8551D8A409D0A00E446EBA
:1015E000060E456EA50E466E4BECB4F0856F78C0C6
:1015F00076F079C077F08551D8A408D0020EA65DA8
:10160000D8B004D0010EFB6F130E856F010E8B6FE7
:10161000000EFB6F8551D8A40ED0A00E7425D96E94
:10162000060E7521DA6E59C0DFFF7F5103E17F0E90
:101630007E5DD8B0FF697E4B7F2B744B752B1200FB
:1016400059500DECB2F012008351D8B41200010EC3
:10165000826F5950D8A402D0010E01D0000E010BA8
:10166000AF6F120E176EAF51AF250509186E200E21
:1016700022ECAFF0000E176EF80E186E200E22EC62
:10168000AFF0010E176E000E186E200E22ECAFF0B8
:101690000C0E176EFF0E186E200E22ECAFF0D880E5
:1016A0000001AF35576E120E176E57C018F0200E9E
:1016B00022ECAFF057500409576E120E176E57C048
:1016C00018F0200E22ECAFF012008251D8B41200B4
:1016D000130E176E59C018F0200E22ECAFF0000167
:1016E000AF51AF25FC09576E120E176E57C018F098
:1016F000200E22ECAFF057500109576E120E176EF4
:1017000057C018F0200E22ECAFF012007E517F116E
:10171000D8A407D059500101366F376B386B396B3D
:1017200003D77EC0EFF0D890EF37D890EF37D8903E
:10173000EF3759C0F0F0F16BF26BF36BEF2B05D084
:10174000D890F037F137F237F337EF2FF9D701019F
:1017500036510001F0110101366F37510001F111CE
:101760000101376F38510001F2110101386F395111
:101770000001F3110101396F00017F5104E1030EF3
:101780007E5DD8A0D1D6FF69000E846FCDD684517E
:10179000D8A4CAD67E517F11D8A410D0000E136EE3
:1017A000000E146E36C115F037C116F038C117F0AF
:1017B00039C118F0F5ECA2F00001846FA00E7E256F
:1017C000D96E060E7F21DA6E59C0DFFF7E29010E29
:1017D0007F59D8A0A9D6A00E136E060E146E000E67
:1017E000156E020E166E000E176E000E186EF5ECDA
:1017F000A2F00001846F8451D8A495D6000E136E18
:10180000000E146E000E156E000E166E000E176E92
:10181000000E186EF5ECA2F00001846F84D6000172
:10182000FF51EF6FF06BF051000AD8A41200EF5196
:10183000000AD8B4CFD5010AD8B4D2D5030AD8B497
:10184000D3D5010AD8B4D8D5070AD8B4E3D5010A4C
:10185000D8B4EED5030AD8B4F9D5010AD8B404D661
:101860000F0AD8B40FD6010AD8B41AD6030AD8B4CE
:1018700044D6010AD8B45CD6070AD8B465D61C0A87
:10188000D8B4DED6010AD8B4DFD6030AD8B41DD73F
:10189000010AD8B43BD7070AD8A4120078D7000EA3
:1018A0000001706F000E716FC7EC9BF02A6E2AA0CA
:1018B00002D0020E1200000E0001DD6F000EDE6F7E
:1018C000000EDF6F000EE06FB10E236E000E246E6F
:1018D000000E256E000E266E000E276E77ECA4F02B
:1018E0000001E56FE505D8A438D0B10E136E146A77
:1018F000000E156E000E166E000E176E000E186E9E
:10190000010E1A6EBE0E196E000E1C6E100E1B6EAE
:101910007EECA3F00009D8B402D0030E1CD0000165
:10192000B551D8B41AD0B90E056E07ECA8F005C0B1
:10193000DDF006C0DEF007C0DFF008C0E0F0B10E59
:10194000236EDDC024F0DEC025F0DFC026F0E0C04D
:1019500027F077ECA4F00001E56F030EE519D8A499
:1019600002D0010E1200E551D8B402D0060E1200CA
:10197000B10E136E146ADDC015F0DEC016F0DFC0C4
:1019800017F0E0C018F0000E1A6E0D0E196E000E62
:101990001C6E240E1B6E7EECA3F00009D8A4E1D7C8
:1019A000BA0E056EF6ECB2F005C0E1F006C0E2F04A
:1019B0000001E36BE46BE151E211E311E411D8A4FF
:1019C0000CD0C80E056E07ECA8F005C0E1F006C00B
:1019D000E2F007C0E3F008C0E4F0E1C005F0E2C0C7
:1019E00006F0E3C007F0E4C008F00001B451096E4E
:1019F0000A6A0B6A0C6AD4ECAFF005C0E1F006C0CD
:101A0000E2F007C0E3F008C0E4F0B20E056EF6ECB9
:101A1000B2F005500001DD252A6E0650DE212B6E46
:101A2000000EDF212C6E000EE0212D6E20EE0AF05C
:101A30002850D9262950DA222AC0DEFF2BC0DEFF2B
:101A40002CC0DEFF2DC0DEFF20EE02F02850D9268C
:101A50002950DA22B1C0DFFFB50E056EF6ECB2F008
:101A600020EE04F02850D9262950DA2205C0DEFFE6
:101A700006C0DDFFB70E056EF6ECB2F005C0D5F07E
:101A800006C0D6F00001D76BD86BD551D611D7114F
:101A9000D811D8A40CD0C40E056E07ECA8F005C070
:101AA000D5F006C0D6F007C0D7F008C0D8F020EEB9
:101AB00004F02850D9262950DA22DECF2AF0DDCFD3
:101AC0002BF0040E2C6ED8902B322A322C2EFBD702
:101AD0002A502D6E2B502E6E2F6A306AB20E056E74
:101AE000F6ECB2F00550316E0650326E336A346A4D
:101AF000311E321E331E341E312A000E3222332292
:101B000034220001E151315C356EE2513258366EBB
:101B1000E3513358376EE4513458386E2D50355CEC
:101B2000396E2E5036583A6E2F5037583B6E305023
:101B300038583C6ED55139240C6ED6513A200D6E72
:101B4000D7513B200E6ED8513C200F6E20EE02F094
:101B50002850D9262950DA22DF503D6E3D50106EB4
:101B6000116A126A136A83ECACF0020E0C24D96F6E
:101B7000000E0D20DA6F000E0E20DB6F000E0F201E
:101B8000DC6F20EE06F02850D9262950DA22D9C081
:101B9000DEFFDAC0DEFFDBC0DEFFDCC0DEFF000EF2
:101BA000E56FDC51DB1106E1F80ED95D0F0EDA5955
:101BB000D8A00BD0DC51DB1108E1F70ED95DFF0E88
:101BC000DA59D8B002D0020EE56FDC51DB1106E124
:101BD000F70ED95DFF0EDA59D8A002D0030EE56FDB
:101BE000E551D8B4C3D628C0D9FF29C0DAFFE5C073
:101BF000DFFF030EE519D8A413D0D00E056E07EC55
:101C0000A8F020EE0EF02850D9262950DA2205C07F
:101C1000DEFF06C0DEFF07C0DEFF08C0DEFF28D003
:101C200020EE0AF02850D9262950DA22DECF2AF0F9
:101C3000DECF2BF0DECF2CF0DECF2DF0E1512A24C9
:101C40002E6EE2512B202F6EE3512C20306EE4518A
:101C50002D20316E20EE0EF02850D9262950DA22A0
:101C60002EC0DEFF2FC0DEFF30C0DEFF31C0DEFF42
:101C700020EE0AF02850D9262950DA22DECF2AF0A9
:101C8000DECF2BF0DECF2CF0DECF2DF020EE04F0F7
:101C90002850D9262950DA22DECF2EF0DDCF2FF0C2
:101CA000040E306ED8902F322E32302EFBD72E50AD
:101CB0002A24316E2F502B20326E000E2C20336ED2
:101CC000000E2D20346E0001E1513124356EE251B9
:101CD0003220366EE3513320376EE4513420386EB3
:101CE00020EE12F02850D9262950DA2235C0DEFF26
:101CF00036C0DEFF37C0DEFF38C0DEFF20EE01F069
:101D00002850D9262950DA22000EDF6E28C070F044
:101D100029C071F0000E1200AE0E1F6EAD0E206EC7
:101D2000AC0E216EAB0E226EAA0E236EA90E246E8F
:101D3000A80E256E03ECADF0000E0001F16FCB0E86
:101D4000C46FFC0EC56FA0ECB5F0680EC46FFA0E40
:101D5000C56FA0ECB5F0CC0EC46FFD0EC56FA0EC46
:101D6000B5F042D0490EC46FFF0EC56FA0ECB5F0C0
:101D7000A951B6ECB4F052D00E0EC46FFF0EC56F71
:101D8000A0ECB5F0AA51B6ECB4F048D0C00EC46FC8
:101D9000FD0EC56FA0ECB5F0220EC46FFF0EC56F2F
:101DA000A0ECB5F0AB51B6ECB4F038D0180EC46F5F
:101DB000FF0EC56FA0ECB5F0AC51B6ECB4F02ED070
:101DC000B40EC46FFE0EC56FA0ECB5F0AD51B6EC0D
:101DD000B4F024D0A80EC46FFE0EC56FA0ECB5F011
:101DE000AE51B6ECB4F01AD0F151E76FE86BE851A0
:101DF000000AD8A413D0E751000AD8B4B3D7010A17
:101E0000D8B4BAD7030AD8B4C1D7010AD8B4CED748
:101E1000070AD8B4D5D7010AD8B4DCD7000E000120
:101E2000D76F000ED86F000ED96FD6ECA1F0EDEC95
:101E3000B1F0586E750E5818D8B410D0550E581809
:101E4000D8B40CD0740E5818D8B408D0540E581802
:101E5000D8B404D00D0E5818D8A4E0D7750E581871
:101E6000D8B478D0550E5818D8B474D08ED0A92BC9
:101E7000630EA9658AD0000EA96F87D0AA2B0C0E1D
:101E8000AA6583D0010EAA6F80D0AB2B020EAA19CF
:101E9000D8A431D0AB51E76FE86BFF0EE96FFF0EAE
:101EA000EA6FAA51EB6FEC6BE951EB27EA51EC2397
:101EB000530EEB25F66EF30EEC21F76EF86A000E6A
:101EC000F8220800F550ED6FEE6BA9510EECB6F05C
:101ED0000001EF6FEF51ED27000EEE23E751ED5DAE
:101EE000EE51800AF06FE851800AF059D8B04DD019
:101EF000010EAB6F4AD0FF0EE76FFF0EE86FAA51DD
:101F0000E96FEA6BE751E927E851EA23530EE92527
:101F1000F66EF30EEA21F76EF86A000EF822AB5166
:101F20000900F55CD8A0E4D730D0AC2B170EAC6517
:101F30002CD0000EAC6F29D0AD2B3B0EAD6525D05B
:101F4000000EAD6F22D0AE2B3B0EAE651ED0000E44
:101F5000AE6F1BD00001F151E76FE86BE851000A4A
:101F6000D8A413D0E751000AD8B481D7010AD8B455
:101F700085D7030AD8B489D7010AD8B4D6D7070AB7
:101F8000D8B4DAD7010AD8B4DED7740E5818D8B44A
:101F900097D0540E5818D8B493D0ADD0A9510A0F89
:101FA000A96F630EA965A7D00A0E056EA9516AEC48
:101FB000B2F0F60DF3500001A925A96F9CD00A0ECE
:101FC000AA6503D0AA51F60F05D0030EAA6193D0DB
:101FD000AA510A0FAA6F8FD0AB510A0FAB6FAB514A
:101FE000E76FE86BFF0EE96FFF0EEA6FAA51EB6F28
:101FF000EC6BE951EB27EA51EC23530EEB25F66E1F
:10200000F30EEC21F76EF86A000EF8220800F55086
:10201000ED6FEE6BA9510EECB6F00001EF6FEF51D2
:10202000ED27000EEE23E751ED5DEE51800AF06FD3
:10203000E851800AF059D8B00AD00A0E056EAB51AB
:102040006AECB2F0F60DF3500001AB25AB6FAB516B
:10205000D8A451D0010EAB6F4ED0AC510A0FAC6F6B
:10206000170EAC6548D00A0E056EAC516AECB2F0A2
:10207000F60DF3500001AC25AC6F3DD0AD510A0F09
:10208000AD6F3B0EAD6537D00A0E056EAD516AECF3
:10209000B2F0F60DF3500001AD25AD6F2CD0AE516E
:1020A0000A0FAE6F3B0EAE6526D00A0E056EAE511E
:1020B0006AECB2F0F60DF3500001AE25AE6F1BD006
:1020C0000001F151E76FE86BE851000AD8A413D082
:1020D000E751000AD8B462D7010AD8B470D7030A0E
:1020E000D8B47AD7010AD8B4B8D7070AD8B4C6D7B3
:1020F000010AD8B4D4D7F60E0001C46FFB0EC56F29
:10210000A0ECB5F00D0E5818D8A425D6F12B050E6D
:10211000F16521D6ADC01BF0ACC01CF0ABC01DF00A
:10212000AAC01EF0A9C01FF0AE51F5ECB0F0070E2A
:102130000001C46FFE0EC56FA0ECB5F0E80EC46FD1
:10214000FC0EC56FA0ECB5F0010E26ECABF07C0EDA
:10215000C46FFF0EC56FA0ECB5F0120037C044F09D
:1021600038C045F070C055F071C056F03B50D96E84
:10217000DA6A000EDE6E000EDD6E55505610D8A4E1
:1021800002D0050E120020EE01F05550D92656500F
:10219000DA22DFB002D0040E120039503A10D8A46F
:1021A0002DD020EE01F05550D9265650DA22DFAC62
:1021B0001BD0000E136E000E146E000E156E000E76
:1021C000166E000E176E000E186EF5ECA2F00009E8
:1021D000D8B40AD020EE01F05550D9265650DA2254
:1021E000000EDF6E010E120020EE01F05550D926D0
:1021F0005650DA22BF0EDF16000E120020EE01F05C
:102200005550D9265650DA22DFBC0ED020EE16F0FB
:102210005550D9265650DA22000EDE16FE0EDE1676
:10222000FF0EDE16FF0EDE1620EE16F05550D926F4
:102230005650DA22DECF3CF0DECF3DF0DECF3EF06E
:10224000DECF3FF020EE1AF05550D9265650DA2254
:10225000DECF40F0DECF41F0DECF42F0DECF43F004
:102260003C50405C4A6E3D5041584B6E3E50425887
:102270004C6E3F5043584D6E39503C6E3A503D6E57
:102280003E6A3F6A3C504A5C3D504B583E504C5869
:102290003F504D58D8B05ED14AC039F04BC03AF0EB
:1022A00059D1FF0E3C6E010E3D6E20EE16F05550DA
:1022B000D9265650DA22DECF3EF0DDCF3FF03C503B
:1022C0003E163D503F163E503F10D8A4C5D020EEDC
:1022D00016F05550D9265650DA22DECF3CF0DECF2C
:1022E0003DF0DECF3EF0DECF3FF00A0E05D0D890B5
:1022F0003F323E323D323C32E82EF9D720EE02F03A
:102300005550D9265650DA22DF50406E40043C1416
:10231000526E5250D8A449D020EE16F05550D9260E
:102320005650DA22DE50DE10DE10DE10D8A40FD0B8
:1023300020EE1EF05550D9265650DA22DECF4EF050
:10234000DECF4FF0DECF50F0DECF51F018D020EED0
:1023500022F05550D9265650DA22DECF23F0DECFB8
:1023600024F0DECF25F0DECF26F08AEC9DF023C0EE
:102370004EF024C04FF025C050F026C051F051500F
:1023800050104F1004E1020E4E5CD8A023D720EE6F
:1023900022F05550D9265650DA224EC0DEFF4FC0EB
:1023A000DEFF50C0DEFF51C0DEFF20EE22F05550B0
:1023B000D9265650DA22DECF11F0DECF12F0DECF72
:1023C00013F0DECF14F0E8ECA6F011C046F012C016
:1023D00047F013C048F014C049F046504710481069
:1023E0004910D8B4F7D6525046243C6E000E472010
:1023F0003D6E000E48203E6E000E49203F6E20EEDE
:1024000026F05550D9265650DA223CC0DEFF3DC09A
:10241000DEFF3EC0DEFF3FC0DEFF000E136E000E8B
:10242000146E20EE26F05550D9265650DA22DECF13
:1024300015F0DECF16F0DECF17F0DECF18F0F5EC9A
:10244000A2F00009D8A4C6D620EE01F05550D92636
:102450005650DA22000EDB8CFF0E3C6E010E3D6EF4
:1024600020EE16F05550D9265650DA22DECF3EF037
:10247000DDCF3FF03C503E163D503F163E50000829
:10248000536E3F50D8A0E82A0208546E5350395C6E
:1024900054503A58D8B004D039C053F03AC054F030
:1024A00044C013F045C014F053C015F054C016F0EA
:1024B000176A186AF5ECA2F00009D8A48BD620EEB2
:1024C00016F05550D9265650DA225350DE26545075
:1024D000DE22000EDE22DE225350442654504522D6
:1024E0005350395E54503A5A3B50D96EDA6A5350C1
:1024F000DE265450DD22FF0E3C6E010E3D6E20EEB6
:1025000016F05550D9265650DA22DECF3EF0DDCFF8
:102510003FF03C503E163D503F163E503F10D8A471
:1025200019D0000E136E000E146E000E156E000E04
:10253000166E000E176E000E186EF5ECA2F0000974
:10254000D8A448D620EE01F05550D9265650DA22AC
:10255000BF0EDF1639503A10D8B44ED6A2D670C08E
:10256000C1F071C0C2F0C151C211D8A402D0050E91
:10257000120020EE01F0C151D926C251DA22DFB09B
:1025800002D0040E120020EE1AF0C151D926C25119
:10259000DA223750DE5C3850DE583950DE583A5077
:1025A000DE58D8B00ED020EE1AF0C151D926C25153
:1025B000DA22DECF37F0DECF38F0DECF39F0DECFF3
:1025C0003AF020EE16F0C151D926C251DA22DECF00
:1025D000B5F0DECFB6F0DECFB7F0DECFB8F020EE4C
:1025E00016F0C151D926C251DA22DE6ADE6ADE6AED
:1025F000DD6A3750381039103A10D8B4AFD120EE18
:1026000002F0C151D926C251DA22DF503B6E3BC0E5
:102610003CF03D6A3E6A3F6A090ED8903C363D3632
:102620003E363F36E82EF9D73CC0B9F03DC0BAF08F
:102630003EC0BBF03FC0BCF0B551B611B711B811E8
:10264000D8B495D0FF0E37240C6EFF0E38200D6ED7
:10265000FF0E39200E6EFF0E3A200F6EB9C010F03B
:10266000BAC011F0BBC012F0BCC013F083ECACF0E8
:102670000CC03BF00DC03CF00EC03DF00FC03EF072
:10268000FF0EB5250C6EFF0EB6210D6EFF0EB721A5
:102690000E6EFF0EB8210F6EB9C010F0BAC011F067
:1026A000BBC012F0BCC013F083ECACF00C503B5C30
:1026B0000D503C580E503D580F503E58D8A057D0A2
:1026C000FF0EB9253B6EFF0EBA213C6EFF0EBB21FB
:1026D0003D6EFF0EBC213E6E3B1C3F6E3C1C406EAF
:1026E0003D1C416E3E1C426EFF0EB525436EFF0E33
:1026F000B621446EFF0EB721456EFF0EB821466E1F
:102700003F504314476E40504414486E41504514A6
:10271000496E425046144A6E20EE16F0C151D92639
:10272000C251DA2247C0DEFF48C0DEFF49C0DEFFEB
:102730004AC0DEFF20EE16F0C151D926C251DA227E
:10274000DE50375EDE50385ADE50395ADD503A5A84
:1027500020EE22F0C151D926C251DA22DECFBDF0DF
:10276000DECFBEF0DECFBFF0DECFC0F076D020EE01
:102770001EF0C151D926C251DA22DECFBDF0DECF24
:10278000BEF0DECFBFF0DECFC0F020EE22F0C151B0
:10279000D926C251DA22BDC0DEFFBEC0DEFFBFC0F7
:1027A000DEFFC0C0DEFF59D0BDC023F0BEC024F0A4
:1027B000BFC025F0C0C026F08AEC9DF023C0BDF05C
:1027C00024C0BEF025C0BFF026C0C0F00001C0513B
:1027D000BF11BE1104E1020EBD5DD8A010D020EEE5
:1027E00006F0C151D926C251DA22DE50BD5DDE505D
:1027F000BE59DE50BF59DE50C059D8A00AD020EED5
:1028000001F0C151D926C251DA22000EDF6E010E4D
:10281000120020EE22F0C151D926C251DA22BDC0E9
:10282000DEFFBEC0DEFFBFC0DEFFC0C0DEFF20EEA9
:1028300016F0C151D926C251DA22B951DE26BA5159
:10284000DE22BB51DE22BC51DE22B951375EBA51C5
:10285000385ABB51395ABC513A5A3750B95D385081
:10286000BA593950BB593A50BC59D8A09DD720EE1F
:1028700016F0C151D926C251DA223750DE2638501F
:10288000DE223950DE223A50DE22BDC011F0BEC039
:1028900012F0BFC013F0C0C014F0E8ECA6F011C0F5
:1028A000B1F012C0B2F013C0B3F014C0B4F0000124
:1028B000B151B211B311B411D8B4A1D720EE02F0C6
:1028C000C151D926C251DA22DF503B6EFF0E3B24A4
:1028D0003C6E3D6AFF0E3D223E6A3DBE3E063E50C6
:1028E0003F6E20EE16F0C151D926C251DA22DECF5A
:1028F00040F0DECF41F0DECF42F0DECF43F00A0EF3
:1029000005D0D8904332423241324032E82EF9D7D6
:102910003C504014446E3D504114456E3E504214AC
:10292000466E3F504314476EB1514424486EB25135
:102930004520496EB35146204A6EB45147204B6E34
:1029400020EE26F0C151D926C251DA2248C0DEFF5E
:1029500049C0DEFF4AC0DEFF4BC0DEFF000E1200A2
:1029600037C0BFF038C0C0F070C0C3F071C0C4F051
:102970003B50D96EDA6A000EDE6E000EDD6E00018D
:10298000C351C411D8A402D0050E120020EE01F0EC
:10299000C351D926C451DA22DFB002D0040E12008E
:1029A00020EE16F0C351D926C451DA22DECF3CF016
:1029B000DECF3DF0DECF3EF0DECF3FF020EE1AF06E
:1029C000C351D926C451DA22DECF40F0DECF41F028
:1029D000DECF42F0DECF43F03C50405CB66F3D505E
:1029E0004158B76F3E504258B86F3F504358B96F87
:1029F00039503C6E3A503D6E3E6A3F6A3C50B65D7F
:102A00003D50B7593E50B8593F50B959D8B040D150
:102A1000B6C039F0B7C03AF03BD120EE16F0C35142
:102A2000D926C451DA22FF0EDE143C6E010EDE14EC
:102A30003D6E000EDE143E6E000EDE143F6E3C5006
:102A40003D103E103F10D8A4B2D020EE16F0C35176
:102A5000D926C451DA22DECF3CF0DECF3DF0DECF06
:102A60003EF0DECF3FF00A0E05D0D8903F323E3226
:102A70003D323C32E82EF9D720EE02F0C351D92680
:102A8000C451DA22DF50406E40043C14BE6FBE5188
:102A9000D8A454D020EE16F0C351D926C451DA225E
:102AA000DE50DE10DE10DE10D8A40FD020EE1EF0B7
:102AB000C351D926C451DA22DECFBAF0DECFBBF043
:102AC000DECFBCF0DECFBDF018D020EE22F0C35137
:102AD000D926C451DA22DECF23F0DECF24F0DECFB8
:102AE00025F0DECF26F08AEC9DF023C0BAF024C09A
:102AF000BBF025C0BCF026C0BDF00001BD51BC112B
:102B0000BB110EE1020EBA5DD8B00AD020EE01F082
:102B1000C351D926C451DA22000EDF6E010E120015
:102B200020EE22F0C351D926C451DA22BAC0DEFF0A
:102B3000BBC0DEFFBCC0DEFFBDC0DEFF20EE22F06A
:102B4000C351D926C451DA22DECF11F0DECF12F004
:102B5000DECF13F0DECF14F0E8ECA6F011C0B2F037
:102B600012C0B3F013C0B4F014C0B5F00001B251FC
:102B7000B311B411B511D8B4C9D7BE51B2253C6E4A
:102B8000000EB3213D6E000EB4213E6E000EB52145
:102B90003F6E20EE26F0C351D926C451DA223CC044
:102BA000DEFF3DC0DEFF3EC0DEFF3FC0DEFFFF0EAA
:102BB0003C6E010E3D6E20EE16F0C351D926C45175
:102BC000DA22DECF3EF0DDCF3FF03C503E163D50E6
:102BD0003F163E500008C16F3F50D8A0E82A0208B7
:102BE000C26FC151395CC2513A58D8B004D039C013
:102BF000C1F03AC0C2F0BFC013F0C0C014F020EE64
:102C000026F0C351D926C451DA22DECF15F0DECF2B
:102C100016F0DECF17F0DECF18F020EE16F0C3511D
:102C2000D926C451DA22DECF3CF0DDCF3DF0FF0ED5
:102C30003C14196E010E3D141A6EC1C01BF0C2C0C7
:102C40001CF07EECA3F00001B16FB151D8A45ED7A7
:102C500020EE16F0C351D926C451DA22C151DE2626
:102C6000C251DE22000EDE22DE22C151395EC25187
:102C70003A5A3B50D96EDA6AC151DE26C251DD2282
:102C8000BF51C011D8B404D0C151BF27C251C02315
:102C900039503A10D8A4C1D6000E1200000E306E82
:102CA000000E316E000E326E000E336E13C034F023
:102CB00014C035F034503510D8B459D134C0D9FFD0
:102CC00035C0DAFFDF50D8B452D102D0344A352AA9
:102CD00034C0D9FF35C0DAFFDF50366E010E286EE2
:102CE000200E3618D8B413D0F70E1A6EFF0E1B6ED6
:102CF00036501C6E1D6A1A501C261B501D221D507A
:102D000004E1050E1C5CD8A002D0000E286E28C07D
:102D100022F0236A22502310D8A4D8D7000E2E6E9A
:102D2000000E296E000E2F6E2D0E3618D8A40BD073
:102D3000010E2E6E344A352A34C0D9FF35C0DAFF71
:102D4000DF50366E04D02B0E3618D8B4F3D7300EC1
:102D50003618D8A430D0344A352A34C0D9FF35C00B
:102D6000DAFFDF50366E17501810D8B405D0100EA9
:102D700017181810D8A415D0780E3618D8B404D067
:102D8000580E3618D8A40DD0000E186E100E176EFF
:102D9000344A352A34C0D9FF35C0DAFFDF50366EE9
:102DA0000AD0010E296E17501810D8A404D0000EB6
:102DB000186E080E176E17501810D8A404D0000E05
:102DC000186E0A0E176E1950D8B414D02E50D8A40D
:102DD00008D0FF0E2A6EFF0E2B6EFF0E2C6E7F0E9C
:102DE00007D0000E2A6E000E2B6E000E2C6E800E89
:102DF0002D6E04D02A682B682C682D6830C01EF018
:102E000031C01FF032C020F033C021F09F0E1A6E87
:102E1000FF0E1B6E36501C6E1D6A200E1C12000E1B
:102E20001D121A501C261B501D221D5006E11A0EA1
:102E30001C5CD8B002D0010E01D0000E246E256AB1
:102E400024502510D8B409D036C00BF00C6A1CEC05
:102E5000B1F00B50C90F366E1CD0D00E1A6EFF0E9B
:102E60001B6E36501C6E1D6A1A501C261B501D22EC
:102E70001D5006E10A0E1C5CD8B002D0010E01D034
:102E8000000E266E276A26502710D8B462D0300E66
:102E9000365E36501A6E1B6A17501A5C1B50800A39
:102EA0001C6E1850800A1C58D8B053D02F50D8A48C
:102EB00045D017C005F018C006F0000E06BEFF0E84
:102EC000076E086E30C009F031C00AF032C00BF056
:102ED00033C00CF0D4ECAFF036500524306E000E49
:102EE0000620316E000E0720326E000E0820336E71
:102EF0001E50305C1F5031582050325821503358EA
:102F0000D8A00DD01950D8B419D030502A5C315007
:102F10002B5832502C5833502D58D8B00FD02AC0CF
:102F200030F02BC031F02CC032F02DC033F0000E49
:102F30000101606F220E5F6F010E2F6E344A352A39
:102F400034C0D9FF35C0DAFFDF50366E010E296E6E
:102F500055D72F50D8A40BD02E50D8B408D0331E3C
:102F6000321E311E306C000E3122322233221550B7
:102F70001610D8B40FD02950D8A404D013C034F000
:102F800014C035F015C0D9FF16C0DAFF34C0DEFF1B
:102F900035C0DDFF30C013F031C014F032C015F081
:102FA00033C016F0120047D18DBC02D0010E20D0E4
:102FB000000E1ED08351D8B468D1120E176E200EA9
:102FC000C0ECAEF015D08351D8B45FD1130E176E9C
:102FD000200EC0ECAEF00CD08251D8B456D1120EF7
:102FE000176E200EC0ECAEF0596E5950F80B010967
:102FF000596E4BD18151D8B452D07E517F11D8A493
:1030000010D0AE0E1F6EAD0E206EAC0E216EAB0E4C
:10301000226EAA0E236EA90E246EA80E256E03EC56
:10302000ADF000017F513BE1070E7E5DD8A016D0C8
:1030300036D0AEC059F030D0ADC059F02DD0ACC0B4
:1030400059F02AD0ABC059F027D0AAC059F024D0EB
:10305000A9C059F021D0A8C059F01ED07EC0E6F01A
:103060007FC0E7F0E751000AD8A416D0E651000A65
:10307000D8B4DFD7010AD8B4DFD7030AD8B4DFD772
:10308000010AD8B4DFD7070AD8B4DFD7010AD8B409
:10309000DFD7030AD8B4DFD77E4B7F2BF6D0FF698A
:1030A000F4D085C059F0F1D07E517F11D8A43BD027
:1030B0007F0EB06501D037D08551D8A434D08B5164
:1030C000D8A45BECAEF0B041E8423F0B876F7AC00A
:1030D000E6F07BC0E7F0050ED890E637E737E82E3C
:1030E000FBD78751E611786FE751796F010EE86FD2
:1030F0007651781909E177517919D8A405D0FB5197
:10310000D8A402D0000EE86FE8C08AF08A51D8B483
:103110000AD08551D8A407D078C04CF079C04DF0C2
:1031200043ECB3F0856F8551D8A43AD07E517F111E
:10313000D8A428D08A51D8B41BD0A00E446E060E55
:10314000456EA50E466E4BECB4F0856F78C076F0F8
:1031500079C077F08551D8A409D0020EA65DD8B009
:1031600005D0010EFB6F130E856F02D0000EFB6FB2
:10317000B0C0E6F0030EE617E651800DF3CF74F011
:10318000F4CF75F08551D8A409D0A00E7425D96E5E
:10319000060E7521DA6EDF50596E02D0010EFB6FFC
:1031A0007F5103E17F0E7E5DD8B0FF697E4B7F2BA0
:1031B000744B752B6AD0650E3E6E010E3F6E5EEC51
:1031C000B6F00001856F6DD75BECAEF06AD7845125
:1031D000D8A427D07E517F11D8A418D0A00E136E8A
:1031E000060E146E36C115F037C116F038C117F04F
:1031F00039C118F0000E1A6E000E196E020E1C6E08
:10320000000E1B6E7EECA3F00001846F8451D8A4E5
:1032100008D0A00E7E25D96E060E7F21DA6EDF5013
:10322000596E7E29010E7F59D8A036D7FF6934D751
:1032300084C059F02AD00001FF51E66FE76BE751D7
:10324000000AD8A422D0E651800AD8B4ADD6010A2B
:10325000D8B4B0D6030AD8B4B6D6010AD8B4BCD60E
:10326000070AD8B4C7D6010AD8B41BD7030AD8B402
:103270001BD7010AD8B49FD70F0AD8B4A5D7010A23
:10328000D8B4A5D7190AD8B4D3D7840E0001FF1932
:10329000D8B41200860EFF19D8B41200890EFF1997
:1032A000D8B41200FF691200680E2AECB0F00009D1
:1032B000D8B402D0000E1200AC0EC46FFC0EC56F65
:1032C000A0ECB5F0010E26ECABF07C0EC46FFF0E47
:1032D000C56FA0ECB5F0A80EC46FFB0EC56FA8C0FB
:1032E000C6F0C76BA0ECB5F00F0E176E680EC0EC01
:1032F000AEF0800B0001D36FD351D8B42ED1D80ECD
:10330000056EA00E066EF90E076E000E096E020E17
:10331000086E7DECAFF0D80E056E87ECB2F0AE6FA4
:10332000D80E056E9D0E066EF90E076E000E096E24
:10333000020E086E7DECAFF0D80E056E87ECB2F091
:10334000AD6FD80E056E9A0E066EF90E076E000E62
:10335000096E020E086E7DECAFF0D80E056E87EC9C
:10336000B2F0AC6FD80E056E920E066EF90E076EB7
:10337000000E096E020E086E7DECAFF0D80E056EE1
:1033800087ECB2F0AB6F53D08F0EF66EF90EF76E7E
:10339000000EF86E0800F550610AD8A402D0010EA4
:1033A00044D0900EF66EF90EF76E000EF86E08001F
:1033B000F5506E0AD8A402D0060E37D0070E35D0CD
:1033C000020E33D0900EF66EF90EF76E000EF86E08
:1033D0000800F550720AD8B404D0000ED56F080E5C
:1033E00003D0000ED56F040ED46FD4C0AAF046D01F
:1033F000900EF66EF90EF76E000EF86E0800F5509E
:10340000720AD8B404D0000ED76F050E03D0000E98
:10341000D76F030ED66FD6C0AAF030D0090E05D0F4
:103420000A0E03D00B0E01D00C0EAA6F27D08E0E01
:10343000F66EF90EF76E000EF86E0800F550D16FBB
:10344000D26BD251000AD8A419D0D151410AD8B4B4
:10345000B9D7050AD8B4E8D7020AD8B4B1D70C0A4C
:10346000D8B492D7070AD8B4C3D7030AD8B4DAD7E6
:10347000010AD8B4D5D71C0AD8B4D0D7D80E056E57
:10348000970E066EF90E076E000E096E020E086E9C
:103490007DECAFF0D80E056E87ECB2F0A96F3D0E53
:1034A000C46FFD0EC56FA0ECB5F07D0EC46FFB0EB2
:1034B000C56FA0ECB5F0000E26ECABF0D80EC46FD3
:1034C000FE0EC56FA0ECB5F0EDECB1F0586E790EC4
:1034D0005818D8B40CD0590E5818D8B408D06E0E5D
:1034E0005818D8B404D04E0E5818D8A4EDD7AE0E44
:1034F0000001C46FFF0EC56F58C0C6F0C76BA0ECCB
:10350000B5F0790E5818D8B404D0590E5818D8A46C
:103510001DD0ADC01BF0ACC01CF0ABC01DF0AAC0EC
:103520001EF0A9C01FF0AE51F5ECB0F0440E000142
:10353000C46FFC0EC56FA0ECB5F0010E26ECABF02D
:10354000150EC46FFE0EC56FA0ECB5F00F0E176E12
:10355000080E186E680E22ECAFF0010E12006DAF6F
:103560006E936DBF05D06D5108E16C05D8B005D0E4
:10357000000E3A6E010E396E04D06CC039F06DC089
:103580003AF06AC03BF06BC03CF06EA904D0FE0E6E
:103590003B26FF0E3C2224C03DF025C03EF026C055
:1035A0003FF027C040F028C041F029C042F02AC0B7
:1035B00043F02BC044F0000E466E1F0E456E000E09
:1035C0000101AE6F93D04506D8A046060F0E3D14FC
:1035D000476E486A48BE08D0485004E10A0E475C6E
:1035E000D8A002D0570E01D0300E4724476E000EEF
:1035F0004820486EBF0E2D6EFF0E2E6E2C502F6E83
:10360000306A2D502F262E503022305006E11A0EEF
:103610002F5CD8B002D0010E01D0000E356E366A94
:1036200035503610D8B427D09F0E2D6EFF0E2E6E5B
:10363000200E47102F6E000E4810306E2D502F2692
:103640002E503022305006E11A0E2F5CD8B002D036
:10365000010E01D0000E376E386A37503810D8B4DA
:103660000AD047C00BF048C00CF01CECB1F00BC006
:1036700047F00CC048F08F0E4524D96E010E46204D
:10368000DA6E47C0DFFF3906D8A03A063B06D8A05D
:103690003C063DC02DF03EC02EF03FC02FF040C094
:1036A00030F041C031F042C032F043C033F044C08A
:1036B00034F0050E09D0D890343233323232313200
:1036C00030322F322E322D32E82EF5D72DC03DF07C
:1036D0002EC03EF02FC03FF030C040F031C041F06E
:1036E00032C042F033C043F034C044F046BE21D073
:1036F000465004E1020E455CD8A01BD03D503E1060
:103700003F1040104110421043104410D8A45BD722
:103710003ABE05D03A5002E13904D8B054D73CBE85
:1037200008D03C5003E13B04D8A003D000016EB3A5
:103730004AD700016EA916D04506D8A046068F0EBE
:103740004524D96E010E4620DA6E2CC0DFFF4506F7
:10375000D8A046068F0E4524D96E010E4620DA6E9B
:10376000300EDF6E22C017F023C018F08F0E4524F4
:10377000196E010E46201A6E3BC01BF03CC01CF0B7
:10378000FCECA9F017C022F018C023F01200805101
:10379000D8A48CBA0ED0000E136E000E146E000E5C
:1037A000156E000E166E000E176E000E186EF5ECFC
:1037B000A2F002ECB7F0828A0A0E276E03D00EEC5C
:1037C000B7F027062750D8A4FAD7000E246E000EB3
:1037D0000D6E000E0E6E000E0F6E000E106E400E7F
:1037E00088ECB1F0E806D8A4B1D0AA0E0D6E010E97
:1037F0000E6E000E0F6E000E106E480E88ECB1F0CB
:10380000E806D8A45CD0000E276E27501D0FD96E95
:10381000DA6A0EECB7F0DF6E272A030E2764F5D7BD
:103820001F04D8A493D0AA0E2018D8A48FD0270E96
:10383000266E100E256E05D083ECB6F02506D8A0B6
:10384000260625502610D8B40ED0000E0D6E000EA0
:103850000E6E000E0F6E400E106EE90E88ECB1F089
:103860000009D8A4E9D725502610D8B46FD0000E8F
:103870000D6E000E0E6E000E0F6E000E106E7A0EA4
:1038800088ECB1F00009D8A461D0000E276E275053
:103890001D0FD96EDA6A0EECB7F0DF6E272A030E21
:1038A0002764F5D71DBC04D0000E226E040E03D091
:1038B000000E226E0C0E216E21C024F047D0000EA7
:1038C0000D6E000E0E6E000E0F6E000E106EE90EE5
:1038D00088ECB1F01C6E020E1C6004D0020E246E47
:1038E000E90E03D0010E246E410E236E270E266EC4
:1038F000100E256E05D083ECB6F02506D8A026065E
:1039000025502610D8B40ED0000E0D6E000E0E6E8F
:10391000000E0F6E000E106E235088ECB1F00009FF
:10392000D8A4E9D725502610D8B40ED0000E0D6EBD
:10393000020E0E6E000E0F6E000E106E500E88EC12
:10394000B1F00009D8B402D0000E246E24C080F07B
:10395000828A0EECB7F02450D8A402D0010E1200D7
:10396000000E12006DAF6E936DBF05D06D5108E172
:103970006C05D8B005D0000E356E010E346E04D043
:103980006CC034F06DC035F06AC036F06BC037F0F3
:1039900024C038F025C039F026C03AF027C03BF0EB
:1039A00028C03CF029C03DF02AC03EF02BC03FF0BB
:1039B000000E416E1F0E406E000E0101AE6F76D0FC
:1039C0004006D8A041068F0E4024D96E010E41203A
:1039D000DA6E38C005F039C006F03AC007F03BC0D7
:1039E00008F03CC009F03DC00AF03EC00BF03FC0FB
:1039F0000CF00A0E0D6E000E0E6E000E0F6E000E15
:103A0000106E000E116E000E126E000E136E000E80
:103A1000146E5FECA8F005C02CF006C02DF007C0B6
:103A20002EF008C02FF009C030F00AC031F00BC0F2
:103A300032F00CC033F02C50300FDF6E3406D8A0BB
:103A400035063606D8A0370638C005F039C006F06E
:103A50003AC007F03BC008F03CC009F03DC00AF096
:103A60003EC00BF03FC00CF00A0E0D6E000E0E6E45
:103A7000000E0F6E000E106E000E116E000E126E14
:103A8000000E136E000E146EBCECA5F005C038F0ED
:103A900006C039F007C03AF008C03BF009C03CF05E
:103AA0000AC03DF00BC03EF00CC03FF0405041104A
:103AB000D8B41BD0385039103A103B103C103D1090
:103AC0003E103F10D8A47CD735BE05D0355002E15A
:103AD0003404D8B075D737BE08D0375003E1360468
:103AE000D8A003D000016EB36BD722C017F023C05B
:103AF00018F08F0E4024196E010E41201A6E36C048
:103B00001BF037C01CF0FCECA9F017C022F018C065
:103B100023F0120070C035F071C036F02650251029
:103B2000241004E1020E235CD8A010D020EE06F091
:103B30003550D9263650DA22DE50235CDE50245828
:103B4000DE502558DE502658D8A0A4D0010E236E92
:103B5000000E246E000E256E000E266E1200310E31
:103B6000136E146A20EE0AF03550D9263650DA2248
:103B7000DECF27F0DECF28F0DECF29F0DECF2AF02F
:103B800024502B6E25502C6E26502D6E2E6A2750F9
:103B90002B24156E28502C20166E29502D20176EC0
:103BA0002A502E20186EFF0E23142F6E000E2414A0
:103BB000306ED8902F34196E30341A6E000E1C6E91
:103BC000020E1B6E7EECA3F00009D8A4BFD7310E05
:103BD000056EF6ECB2F005C023F006C024F0256AAD
:103BE000266A1200310E136E146A20EE0AF0355068
:103BF000D9263650DA22DECF27F0DECF28F0DECF0E
:103C000029F0DECF2AF023C02BF024C02CF025C0F1
:103C10002DF026C02EF0080E05D0D8902E322D3271
:103C20002C322B32E82EF9D727502B24156E285032
:103C30002C20166E29502D20176E2A502E20186E1B
:103C40007F0E23142F6E000E2414306ED8902F3662
:103C50003036D8902F3630362FC019F030C01AF0D9
:103C6000000E1C6E040E1B6E7EECA3F00009D8A49F
:103C70006DD7310E056E07ECA8F0FF0E0514236E0C
:103C8000FF0E0614246EFF0E0714256E0F0E081487
:103C9000266E120035C0D9FF36C0DAFFDF50276E1E
:103CA000286A2850000AD8A451D72750020AD8B44D
:103CB00056D7010AD8B496D749D7D46F0001CF514F
:103CC000D8B41200180EC46FFE0EC56FA0ECB5F08C
:103CD000D50EC46FFE0EC56FCFC0C6F0C76BA0EC8B
:103CE000B5F0020EC46FFD0EC56FA0ECB5F031D07B
:103CF000520EC46FFF0EC56FA0ECB5F045D0360E66
:103D0000C46FFF0EC56FA0ECB5F03ED0630EC46F5C
:103D1000FF0EC56FA0ECB5F037D0E30EC46FFE0EFA
:103D2000C56FA0ECB5F030D0C00EC46FFE0EC56FED
:103D3000A0ECB5F029D0740EC46FFE0EC56FA0ECD8
:103D4000B5F022D06B0EC46FFF0EC56FA0ECB5F0BE
:103D50001BD0CF51D26FD36BD351000AD8A4F2D766
:103D6000D251010AD8B4C4D7030AD8B4C8D7010ABB
:103D7000D8B4CCD7070AD8B4D0D7010AD8B4D4D78E
:103D8000030AD8B4D8D7DED7B30EC46FFF0EC56F01
:103D9000A0ECB5F02AD09E0EC46FFF0EC56FA0EC4C
:103DA000B5F03BD0D60EC46FFF0EC56FA0ECB5F0DA
:103DB00034D0CC0EC46FFF0EC56FA0ECB5F02DD083
:103DC000980EC46FFF0EC56FA0ECB5F026D0D10ED3
:103DD000C46FFF0EC56FA0ECB5F01FD06B0EC46FA3
:103DE000FF0EC56FA0ECB5F018D0D451D26FD36BD5
:103DF000D351000AD8A4F2D7D251000AD8B4CBD7F5
:103E0000010AD8B4CFD7030AD8B4D3D7010AD8B49B
:103E1000D7D7070AD8B4DBD7E1D7F90EC46FFE0EA7
:103E2000C56FA0ECB5F0D051D111D8B40CD0040EB0
:103E3000C46FFF0EC56FA0ECB5F0D0C0C4F0D1C008
:103E4000C5F0A0ECB5F0A40EC46FFF0EC56FA0ECDA
:103E5000B5F0120070C03FF071C040F03750D96E1D
:103E6000DA6ADECF38F0DDCF39F0010E3824456E46
:103E7000000E3920466E45504610D8B40BD037504E
:103E8000D96EDA6A0B0ED926DE50DE10DE10DE1097
:103E9000D8A402D0030E120045C038F00F0E381619
:103EA000D8A49BD03750D96EDA6A0B0ED926DE2AF9
:103EB000000EDE22DE22DE223750D96EDA6A070ECD
:103EC000D926DE50DE10DE10DE10D8A40DD020EE94
:103ED00004F03F50D9264050DA22DE50455CDE50D7
:103EE0004658D8B0D7D779D045C038F046C039F059
:103EF000040E3A6ED890393238323A2EFBD7FF0E84
:103F00003B6EFF0E3C6E20EE02F03F50D926405033
:103F1000DA22DF503D6E3E6A3B503D263C503E2249
:103F200038503D1639503E163D503E10D8A455D05D
:103F30003750D96EDA6A070ED926DECF23F0DECFEE
:103F400024F0DECF25F0DECF26F08AEC9DF023C0F2
:103F500041F024C042F025C043F026C044F0445054
:103F60004310421006E1020E415CD8B002D0010EAF
:103F7000120020EE06F03F50D9264050DA22DE50E3
:103F8000415CDE504258DE504358DE504458D8B0B1
:103F900081D73750D96EDA6A070ED92641C0DEFFC5
:103FA00042C0DEFF43C0DEFF44C0DEFF41C011F06F
:103FB00042C012F043C013F044C014F0E8ECA6F085
:103FC0003750D96EDA6A0B0ED92611C0DEFF12C047
:103FD000DEFF13C0DEFF14C0DEFF3750D96EDA6A91
:103FE00045C0DEFF46C0DDFF000E1200000E1A6E57
:103FF000000E196E000E136E000E126E02D00C4AE7
:104000000D2A010E186E0CC0F6FF0DC0F7FF000E52
:10401000F86E0800F550200AD8B41AD0F70E0E6ECC
:10402000FF0E0F6E0CC0F6FF0DC0F7FF000EF86E0E
:104030000800F550106E116A0E5010260F50112214
:10404000115004E1050E105CD8A002D0000E186ECD
:1040500018C014F0156A14501510D8B408D0CFD772
:10406000000E136E010E126E0C4A0D2A32D00CC0D7
:10407000F6FF0DC0F7FF000EF86E0800F5500E6E4B
:104080000F6A0F50000AD8A424D00E502B0AD8B4BF
:10409000EBD7060AD8B4E4D71CD019C005F01AC073
:1040A00006F0000E086E0A0E076EF2ECB4F00CC0BB
:1040B000F6FF0DC0F7FF000EF86E0800F550055E24
:1040C000000E065A300E0524196E000E06201A6ED8
:1040D000CBD7D00E0E6EFF0E0F6E0CC0F6FF0DC0CC
:1040E000F7FF000EF86E0800F550106E116A0E50C2
:1040F00010260F501122115006E10A0E105CD8B0A4
:1041000002D0010E01D0000E166E176A165017105D
:10411000D8A4C3D712501310D8A40DD019C00EF0D4
:104120001AC00FF00E1E0F1E0E4A0F2A0EC00CF002
:104130000FC00DF0120019C00CF01AC00DF01200E3
:1041400021EEB1F010EE15F0060EDBCFE3FFE8062E
:10415000FCE212C020F013C021F020502110D8A49E
:1041600003D0150E206E216A20C005F021C006F094
:10417000AAECB1F005C024F006C025F06CC022F016
:104180006DC023F023BE0ED02450225C2350800A41
:10419000146E2550800A1458D8B004D022C024F0E0
:1041A00023C025F024C022F025C023F06AC01EF0F1
:1041B0006BC01FF000016EA10DD016D0000E086E6E
:1041C000200E076E10C009F011C00AF0F0ECADF03F
:1041D000244A252A1E50245C2550800A146E1F5044
:1041E000800A1458D8A0EAD7000E1D6E000E1C6E6F
:1041F0001FD020C0F6FF21C0F7FF000EF86E0E0E94
:10420000F76403D00800F55005D0F6CFE1FFF7CFF3
:10421000E2FFE750146E1450076E086A10C009F0F0
:1042200011C00AF0F0ECADF0204A212A1C4A1D2AE8
:1042300022501C5C1D50800A146E2350800A1458B2
:10424000D8A0D7D700016EB10DD016D0000E086EE1
:10425000200E076E10C009F011C00AF0F0ECADF0AE
:10426000244A252A1E50245C2550800A146E1F50B3
:10427000800A1458D8A0EAD724C010F025C011F045
:10428000120002D04F4A502A4FC0F6FF50C0F7FF2D
:10429000000EF86E0E0EF76403D00800F55005D03E
:1042A000F6CFE1FFF7CFE2FFE750200AD8B4EAD714
:1042B0004FC0F6FF50C0F7FF000EF86E0E0EF76409
:1042C00003D00800F55005D0F6CFE1FFF7CFE2FFAD
:1042D000E7502F0AD8A402D04F4A502A4D50D96E29
:1042E000DA6A030ED926DE6ADE6ADE6ADD6A4FC04C
:1042F000F6FF50C0F7FF000EF86E0E0EF76403D005
:104300000800F55005D0F6CFE1FFF7CFE2FFE75008
:10431000516E200E51600BD04DC01CF066ECA2F027
:10432000526E4E50D96EDA6A000EDF6E3DD04DC02F
:104330000BF04F0E0C6EFDECA3F0526E5250D8A451
:1043400033D04DC047F04EC048F0E8ECA4F0526EB8
:104350005250D8A429D04D50D96EDA6A020ED9260F
:10436000DF50D96EDA6A0B0ED926DF50D8A41CD0E4
:104370004E50D96EDA6A0B0ED926DFB803D0030E81
:10438000526E12D04EC00CF040ECACF04D50D96ED5
:10439000DA6A030ED9260CC0DEFF0DC0DEFF0EC0A8
:1043A000DEFF0FC0DEFFC3D752501200010EE26FD6
:1043B000CBECB4F005C0E3F006C0E4F007C0E5F0D4
:1043C00008C0E6F07FD0CBECB4F00001E351055C0F
:1043D000DA6FE4510658DB6FE5510758DC6FE651A0
:1043E0000858DD6FDD51DC1109E1B80EDA5D0B0E06
:1043F000DB59D8A08DAC02D0000EE26FCBECB4F04C
:104400000001DE51055CDA6FDF510658DB6FE051C9
:104410000758DC6FE1510858DD6FDD51DC1106E112
:104420002D0EDA5D010EDB59D8A018D083AE02D074
:10443000010E01D0000EFF0ADA6FDA33DA3383504F
:10444000DA197F0BDA19836ECBECB4F005C0DEF01D
:1044500006C0DFF007C0E0F008C0E1F0CBECB4F03C
:104460000001E351055CDA6FE4510658DB6FE5515A
:104470000758DC6FE6510858DD6FDD51DC1106E1AD
:10448000B90EDA5D0B0EDB59D8A01CD0E251D8B4BE
:1044900019D0D751D811D911D8B414D0060E8D190E
:1044A000D8A404D0060E8C19D8B40CD001D80AD0E8
:1044B0000500FA6ED751FD6ED851FE6ED951FF6ED0
:1044C000FA5012005A50D8A412007DD770C025F0BF
:1044D00071C026F01C50D96EDA6A000EDE6E000E36
:1044E000DD6E1C50D96EDA6A030ED926DECF27F0B6
:1044F000DECF28F0DECF29F0DECF2AF02704281007
:1045000029102A10D8B410D020EE06F02550D92654
:104510002650DA22DE50275CDE502858DE5029581B
:10452000DE502A58D8A002D0010E120027502810C1
:1045300029102A10D8A416D025C0D9FF26C0DAFF2A
:10454000030EDE18D8A40ED020EE0EF02550D9268A
:104550002650DA22DECF27F0DECF28F0DECF29F09A
:10456000DECF2AF01C50D96EDA6A070ED92627C092
:10457000DEFF28C0DEFF29C0DEFF2AC0DEFF275095
:10458000281029102A10D8A40FD020EE0EF02550A4
:10459000D9262650DA22DECF21F0DECF22F0DECF80
:1045A00023F0DECF24F012D027C011F028C012F083
:1045B00029C013F02AC014F0E8ECA6F011C021F0D5
:1045C00012C022F013C023F014C024F01C50D96E86
:1045D000DA6A0B0ED92621C0DEFF22C0DEFF23C01F
:1045E000DEFF24C0DEFF000E1200010E196E135014
:1045F0001410D8B421D015C01AF016C01BF010D07A
:1046000013C0D9FF14C0DAFFDF5092ECB6F0134AA2
:10461000142A01016107D8A062071A06D8A01B0658
:104620001A501B10D8B405D0010161516211D8A4F1
:10463000E7D7000E196E60D015501610171018101D
:10464000D8B425D0000180B708D0090ED89015360F
:10465000163617361836E82EF9D715C00DF016C0E5
:104660000EF017C00FF018C010F0580E88ECB1F023
:104670000009D8A441D0FF0E92ECB6F0FE0E92ECE9
:10468000B6F0020E0101626F000E616FD2D7020E0A
:10469000010161251A6E000E62211B6E03D0000E0F
:1046A00092ECB6F01A06D8A01B061A28F8E11B28CF
:1046B000D8A4F5D70EECB7F01F0B050AD8A419D073
:1046C000130E1B6E880E1A6E05D083ECB6F01A0618
:1046D000D8A01B060EECB7F0FF0AD8B404D01A50CD
:1046E0001B10D8A4F2D71A501B10D8B402D0000E59
:1046F000196E828A0EECB7F019501200000180B7D3
:1047000008D0090ED8901536163617361836E82E0A
:10471000F9D7010E1F6E15C00DF016C00EF017C0B0
:104720000FF018C010F0510E88ECB1F00009D8A4B9
:104730005FD09C0E226E400E216E0EECB7F0206E04
:104740002028D8A407D02106D8A022062150221064
:10475000D8A4F3D7FE0E2018D8A44AD019C01DF053
:104760001AC01EF01D1E1E1E1D4A1E2A1B501D5E55
:104770001C501E5A020E1D24216E020E1E20226E97
:1047800019501A10D8B409D00EECB7F01906D8A0F9
:104790001A0619501A10D8A4F7D713501410D8B409
:1047A00011D00EECB7F013C0D9FF14C0DAFFDF6EE2
:1047B000134A142A1B06D8A01C061B501C10D8B480
:1047C0000CD0EFD70EECB7F08BECB7F01B06D8A0EF
:1047D0001C061B501C10D8A4F5D70EECB7F0210610
:1047E000D8A0220621502210D8A4F7D7000E1F6EA1
:1047F000828A0EECB7F01F5012000B50D96EDA6AA5
:10480000020ED926DF50136E13C005F0000E076E9E
:10481000200E066E000E096E0B0E086E18ECB5F039
:10482000000E146E14C012F0080E116E0C50D96EEA
:10483000DA6ADECF0FF0DDCF10F012500F240D6ECC
:10484000000E10200E6E0DC0F6FF0EC0F7FF000E1A
:10485000F86E0E0EF76403D00800F55005D0F6CFC1
:10486000E1FFF7CFE2FFE750156E122A200E156424
:1048700022D02F0E1518D8B41ED02E0E1518D8B46D
:1048800004D01150145CD8A00FD0080E1118D8A471
:1048900012D02E0E1518D8A40ED0080E146E0B0EC2
:1048A000116ECBD7142AC9D713501424D96EDA6AE3
:1048B00015C0DFFFF7D712500F240D6E000E102029
:1048C0000E6E0C50D96EDA6A0DC0DEFF0EC0DDFF31
:1048D0001350D96EDA6A0B0ED926200E156401D05A
:1048E00002D0010E01D0000EDF6E000E120023C0B8
:1048F00013F0146A24C015F025C016F026C017F076
:1049000027C018F0010E1A6EFE0E196E000E1C6EF6
:10491000020E1B6E7EECA3F00009D8B402D0030E89
:10492000120023C005F0F6ECB2F0550E051804E1B4
:10493000AA0E0618D8B402D0020E120023C013F03B
:10494000146A24C015F025C016F026C017F027C041
:1049500018F0000E1A6E360E196E000E1C6E020E46
:104960001B6E7EECA3F00009D8A40DD023C005F087
:10497000F6ECB2F0460E051806E1410E0618D8A472
:1049800002D0000E120023C013F0146A24C015F0E8
:1049900025C016F026C017F027C018F0000E1A6EBA
:1049A000520E196E000E1C6E020E1B6E7EECA3F0F2
:1049B0000009D8A40BD023C005F0F6ECB2F0460EE7
:1049C000051804E1410E0618D8B4DBD7010E120019
:1049D00047C01CF066ECA2F04C6E4C50D8B402D02C
:1049E0004C50120048C013F0146A4750D96EDA6A6E
:1049F0000B0ED926DECF15F0DECF16F0DECF17F086
:104A0000DECF18F04750D96EDA6ADECF49F0DDCF3D
:104A10004AF00F0E4916000E4A16050ED890493678
:104A20004A36E82EFBD749C019F04AC01AF0000EEA
:104A30001C6E200E1B6E7EECA3F00009D8B402D0D1
:104A4000010E01D0000E4C6E4C50D8A4C9D748506E
:104A5000D96EDA6ADF504B6E4B50D8A403D0030EE8
:104A60004C6EBED74850D96EDA6A0B0ED926DFB627
:104A700013D048C005F04750D96EDA6A020ED92625
:104A8000DF50066E000E086E0B0E076EA9ECAFF03D
:104A900005500610D8B4A4D747C037F02AEC9FF0D1
:104AA0004C6E4C50D8A49CD79DD770C0DEF071C01E
:104AB000DFF00001DE51DF11D8A402D0050E120094
:104AC00020EE01F0DE51D926DF51DA22000EDF6E32
:104AD000D10EE26FE00E4D6EB10E4E6E53C04FF030
:104AE00054C050F041ECA1F00001DD6FDD51D8B4AD
:104AF00002D0DD511200B151D8B402D0BCA902D00D
:104B0000030E1200B10E0C6E40ECACF0000120EE72
:104B10001EF0DE51D926DF51DA220CC0DEFF0DC0B7
:104B2000DEFF0EC0DEFF0FC0DEFFCD0E056E07EC10
:104B3000A8F0000120EE1AF0DE51D926DF51DA226A
:104B400005C0DEFF06C0DEFF07C0DEFF08C0DEFFD7
:104B500020EE16F0DE51D926DF51DA22DE6ADE6A57
:104B6000DE6ADD6A20EE01F0DE51D926DF51DA225D
:104B7000010EDF6E000E120020EE15F0070EDE6A49
:104B8000E806FDE20D500E100F101010111012105B
:104B900013101410D8B446D0010E1D6E0AD0D89050
:104BA0000D360E360F3610361136123613361436D1
:104BB0001D2A14AEF4D7D890153616361736183687
:104BC00019361A361B361C360D50055C0E50065829
:104BD0000F500758105008581150095812500A58D1
:104BE00013500B5814500C58D8A011D00D50055E1E
:104BF0000E50065A0F50075A1050085A1150095AB1
:104C000012500A5A13500B5A14500C5A1580D8904F
:104C1000143213321232113210320F320E320D3280
:104C20001D2EC9D715C005F016C006F017C007F035
:104C300018C008F019C009F01AC00AF01BC00BF028
:104C40001CC00CF01200650E3E6E010E3F6E5EEC55
:104C5000B6F00009D8B427D0650E3E6E010E3F6E47
:104C60005EECB6F00001896F8951D8B41CD089C0C0
:104C7000CFF0000ED06F000ED16F000E5DEC9EF0F5
:104C80003CECB5F0650E3E6E010E3F6E5EECB6F08C
:104C9000650E3E6E010E3F6E5EECB6F00001896F50
:104CA0008951D8A4E4D7EFC055F0F0C056F08BEC92
:104CB000B6F0896F8951D8B4120089C0CFF0EFC027
:104CC000D0F0F0C0D1F0010E5DEC9EF03CECB5F000
:104CD000EFC055F0F0C056F08BECB6F0896F030EC4
:104CE0008919D8B4E7D7650E3E6E010E3F6E5EECB3
:104CF000B6F0650E3E6E010E3F6E5EECB6F0EFC094
:104D000055F0F0C056F08BECB6F0D3D7040E866E9B
:104D1000000E856E200E826E000E836E000E846E75
:104D2000000E8B6ECE0E876E6E0E886E8E0E896EA6
:104D30008A68000E0F01216F000E1C6F000E146FA9
