:040000005AEF00F0C3
:100008005B82FACF01F0FBCF02F0D9CF03F0DACF51
:1000180004F00E01BDBBC5AB03D0DFECB5F03CD09E
:10002800F2AC3AD0C0BDC8AD0BD001D835D0050070
:10003800FA6E01015151FD6E5251FE6E535129D095
:10004800C0BFC8AF0BD001D827D00500FA6E010198
:100058004E51FD6E4F51FE6E50511BD0C0B9C8A90C
:100068000BD001D819D00500FA6E01016051FD6E60
:100078006151FE6E62510DD0C0BBC8AB0DD001D826
:100088000BD00500FA6E01015D51FD6E5E51FE6EEA
:100098005F51FF6EFA50120004C0DAFF03C0D9FFA7
:1000A80002C0FBFF01C0FAFF5B9211006FEFA8F0DE
:10F2F00000F26F01926F01846F015857012C5B017E
:10F30000E86F01885F014E70014670013E70013662
:10F3100070012E70012670011E7001DE6F015062B7
:10F32000011F1C1F1E1F1E1F1F1E1F1E1F0004006B
:10F3300000001000004021000040210000000400F7
:10F3400000000400000004000000040000000400AD
:10F35000000004000000C0070001409F00F84EFCC0
:10F3600020FC30FC107C20404E714E0027724E6312
:10F37000020E0D0C0B0A04FA4FF90007FFFA43FACC
:10F380000480610002E0610003F8B03C0002660006
:10F390000038203C000005A841F90007C04443F9AB
:10F3A000000F800012D851C8FFFC4FF9000FBFFEBC
:10F3B000247C000F7FFF4EF9000F800043FA04D336
:10F3C000610002A26000002AB03C00016600001447
:10F3D00043FA04B96100028E247C0007BFFF60007D
:10F3E000001043FA04A16100027C247C0001BFFFED
:10F3F000103A040AB03C00016700000E43FA04B55D
:10F40000610002626000000A43FA048E6100025645
:10F4100043FA041A6100024E6100032E4285610026
:10F42000023061000260B03C0053670000587A036C
:10F430006000002CB03C000A66000040700D6100C6
:10F440000244600000366100020861000238B03CEE
:10F45000000D66E0700A6100022C4A0567C0BA3CE4
:10F46000000167000240BA3C000267000248BA3C53
:10F47000000367000250600002E8B03C00536700E0
:10F48000000460C2610001CA610001FAB03C0030B2
:10F4900067B4B03C00316700001CB03C003267002C
:10F4A000005CB03C0035679EB03C0038670000ACA3
:10F4B000600001E24284740161000128D801360134
:10F4C000594374036100011CD801E059D801E05987
:10F4D000204174016100010CD8011081B21867004D
:10F4E00000047A0151CBFFEC46047401610000F482
:10F4F000B8016700FF527A026000FF4C4284343C3E
:10F500000001610000DED80136015B43343C000598
:10F51000610000D0D801E099D801E099D801E099C4
:10F52000E0992041343C0001610000B8D80161003D
:10F5300001F01081B218670000061A3C000151CB9F
:10F54000FFE44604343C000161000098B801670004
:10F55000FEF61A3C00026000FEEE4284343C0001DC
:10F5600061000080D80136015B43343C0005610036
:10F570000072D801E099D801E099D801E099E099AA
:10F5800020414604343C000161000058B801670086
:10F59000000A1A3C00026000FEAE43FA02AB6100B2
:10F5A00000C443FA02C2610000BC6100019C43FA3E
:10F5B00002CF610000B043FA028F610000A843FA55
:10F5C0000291610000A02C086100014243FA022F61
:10F5D000610000926100014A43FA02236100008643
:10F5E0004ED04281616A6100009C6118B03C00FF0E
:10F5F000660000087A036000FE66E989D20051CAFD
:10F60000FFE44E75B03C00666200002AB03C00602A
:10F6100062000038B03C00466200001AB03C004076
:10F6200062000018B03C00396200000AB03C002FB4
:10F630006200001070FF60000016040000376000D8
:10F64000000E0400003060000006040000574E75F4
:10F650001039000FFFFE0800000267F41039000F98
:10F66000FFFD4E752F001019B03C0000670000121E
:10F6700013FC0001000FFFFD13C0000FFFFC60E64C
:10F68000201F4E7513FC0001000FFFFD13C0000F7B
:10F69000FFFC4E7543FA01B161CA43FA026D61C4C1
:10F6A000600000BE43FA01A161BA43FA027661B478
:10F6B000600000AE43FA019161AA43FA028161A49D
:10F6C0006000009E43FA0181619A43FA02836194CB
:10F6D0006000008E0247000FBE3C00096500000478
:10F6E0005E070647003013FC0001000FFFFD13C743
:10F6F000000FFFFC4E751E06E81F61D81E0661D480
:10F700004E75E09E61F0E19E61EC4E75484661E603
:10F71000484661EE4E75484661E8484661E44E75DC
:10F72000B1CA620000044E7543FA011D6100FF3644
:10F7300043FA019C6100FF2E2C0861D043FA00BF00
:10F740006100FF226000001A1039000FFFFE080060
:10F7500000026700000A1039000FFFFD60EA4E75D5
:10F7600043FA017F6100FEFE23FC0000000100005F
:10F77000002023FC000000010000000C4E72070076
:10F780001039000FFFFE080000036600003A41FA3E
:10F79000006C421013FC0055000FBFF01039000F31
:10F7A000BFF0B03C00556600001E13FC00AA000F1D
:10F7B000BFF01039000FBFF0B03C00AA660000088F
:10F7C000103C00024E7513FC00550001AFF01039DB
:10F7D0000007AFF0B03C00556600001C13FC00AA07
:10F7E0000001AFF010390007AFF0B03C00AA66008E
:10F7F000000642004E75103C00014E75010D0A00D6
:10F80000734C6F6164202D20532D7265636F726499
:10F81000204C6F61646572202D20533138303232B4
:10F82000312D523135303532310D0A00576169744E
:10F83000696E6720696E7075742073747265616D8E
:10F840002E2E2E0D0A0A000D0A734C6F61643A20A9
:10F85000005374617274696E6720416464726573E9
:10F86000733A20307800466C757368696E6720695A
:10F870006E707574206275666665722E2E2E00207D
:10F88000646F6E65003132384B42003531324B4285
:10F8900000313032344B4200202D204C69746520F9
:10F8A000485720636F6E66696775726174696F6E21
:10F8B0000D0A00202D2046756C6C20485720636F80
:10F8C0006E66696775726174696F6E0D0A00496CC6
:10F8D0006C6567616C204164647265737320307875
:10F8E00000734C6F61643A204C6F616465722061F3
:10F8F000626F72746564202D2053797374656D2076
:10F9000068616C7465640D0A00496C6C6567616CB4
:10F9100020532D7265636F72642074797065210DB8
:10F920000A0052414D2077726974652076657269CC
:10F930006679206661696C6564210D0A004368651B
:10F94000636B73756D206572726F72210D0A0049C9
:10F950006C6C6567616C2063686172616374657269
:10F96000210D0A004E6F76203139203230323100BD
:10F9700032303A30393A3534000D0A0A36386B2DB8
:10F980004D4243202D20413039313032302D52311B
:10F9900034303232310D0A494F53202D20492F4F38
:10F9A0002053756273797374656D202D2053333144
:10F9B000303132312D523039313132315F44455698
:10F9C000454C320D0A0A000D0A50726573732043CC
:10F9D0005220746F206163636570742C204553431B
:10F9E00020746F2065786974206F7220616E7920B1
:10F9F0006F74686572206B657920746F206368612D
:10FA00006E67650D0A0A004368616E67656420735E
:10FA100070656564732077696C6C2062652065662B
:10FA200066656374697665206166746572206E65CB
:10FA30007874207265626F6F74210D0A0A000D0AD6
:10FA4000507265737320542F5520746F20696E6354
:10FA500072656D656E74202B31302F2B31206F72E3
:10FA600020435220746F206163636570740D0A0037
:10FA70000D0A494F533A2053656C65637420626FD9
:10FA80006F74206D6F6465206F7220737973746575
:10FA90006D20706172616D65746572733A0D0A0054
:10FAA0000A0D494F533A2043505520627573206622
:10FAB0006174616C206572726F7220636F64653A65
:10FAC000202575202D2041626F727465640A0D0037
:10FAD000494F533A204175746F626F6F74206C6F99
:10FAE00061642030782530356C78202D206578656C
:10FAF000632030782530356C78200A0D00494F534B
:10FB00003A20436865636B20534420616E64207023
:10FB1000726573732061206B657920746F20726544
:10FB2000706561740D0A0A000D0A0A494F533A20A4
:10FB300042617564207265636F76657279202D204D
:10FB4000506C65617365207265626F6F74206E6FB3
:10FB50007721000A446F20796F752077616E7420D9
:10FB60007365742052544320617420494F532063BD
:10FB70006F6D70696C652074696D65202800494F50
:10FB8000533A205254432044533332333120746566
:10FB90006D70657261747572652073656E736F72D6
:10FBA0003A202575430D0A00494F533A2036383024
:10FBB0003038204350552069732072756E6E696E1F
:10FBC000672066726F6D206E6F770A0A0D00494FCD
:10FBD000533A204C69746520485720636F6E6669FC
:10FBE0006775726174696F6E2064657465637465AE
:10FBF000640A0D00494F533A2046756C6C204857F3
:10FC000020636F6E66696775726174696F6E2064D8
:10FC1000657465637465640A0D00494F533A205258
:10FC200054432073657420617420636F6D70696C38
:10FC3000652074696D65202D204E6F773A20000D88
:10FC40000A0A494F533A20456D7074792066696CF1
:10FC500065202D204C6F61642061626F7274656451
:10FC6000210020363A204368616E67652073657213
:10FC700069616C20706F7274732073706565640DB8
:10FC80000A00494F533A20466F756E642052544320
:10FC900020445333323331204D6F64756C65202816
:10FCA000000A0A0D494F533A20556E6B6E6F776EFE
:10FCB00020495251202D2041626F72746564000DFD
:10FCC0000A494F533A20525443206D616E75616C5E
:10FCD0002073657474696E673A0D0A00494F533A90
:10FCE0002052544320646174652F74696D652075DA
:10FCF00070646174656420280020373A204368618D
:10FD00006E67652043502F4D204175746F6578658F
:10FD10006320282D3E0020383A204368616E6765D5
:10FD2000205254432074696D652F646174650D0A17
:10FD300000494F533A2052544320636C6F636B2049
:10FD40006661696C757265210D0A00494F533A204E
:10FD50004C6F6164696E6720626F6F742070726FA0
:10FD60006772616D0020323A20456E68616E63658E
:10FD7000642036384B2042617369630D0A00494F95
:10FD8000533A20466F756E6420475045204F70747B
:10FD9000696F6E0D0A00494F533A2043502F4D2092
:10FDA0004175746F6578656320697320000D2020AC
:10FDB0002020202020202020202020202020202043
:10FDC0002000456E74657220796F75722063686FCC
:10FDD000696365203E002020202020202020202054
:10FDE000202020202020200D0020343A204C6F615C
:10FDF00064204F532066726F6D2000202E2E2E64DB
:10FE00006F6E652020202020200D0A000D0A494F2A
:10FE1000533A205344206572726F7220000D202DDA
:10FE20003E53657269616C2025753A200020303A96
:10FE3000204E6F206368616E676520280020333A8A
:10FE4000204175746F626F6F740D0A000D0A2035C2
:10FE50003A204368616E67652000494F533A20435A
:10FE6000757272656E7420004E4F5F46494C455363
:10FE7000595354454D004155544F424F4F542E4213
:10FE8000494E004155544F424F4F542E4144520069
:10FE900020313A20734C6F61640D0A005365636F23
:10FEA0006E6473202D3E20004D696E75746573205D
:10FEB0002D3E20004E4F545F454E41424C4544007C
:10FEC0004469736B2053657420257500293F205BBE
:10FED000592F4E5D203E004E4F545F4F50454E45CA
:10FEE00044004542415349432E42494E00454D5539
:10FEF000544F532E42494E00206F706572617469F1
:10FF00006F6E00202D2046696C653A20004D6F6EA3
:10FF10007468202D3E2000486F757273202D3E209E
:10FF2000000D20446179202D3E200043504D36388D
:10FF30002E42494E004E4F545F52454144590025D0
:10FF40006320204F6B0D0A0059656172202D3E2001
:10FF5000004449534B5F4552520020646F6E650A5E
:10FF60000D004E4F5F46494C4500554E4B4E4F5786
:10FF70004E00313135323030002575290D0A004FE1
:10FF800046460D0A002028257329003139323030C9
:10FF9000003537363030005752495445004D4F55E3
:10FFA0004E5400290D0A0A004F4E0D0A0025630D1C
:10FFB0000A00206F6E200031323030003234303091
:10FFC0000039363030000D202D3E005245414400AE
:10FFD0005345454B004F50454E0020204F6B002E9F
:10FFE0002E2E00333030004F4646006C58006C6EA9
:0FFFF000006C75006C78004F4E002F003A000037
:020000040001F9
:10000000B4ECB3F0000E01013E6F000E3F6F000E26
:10001000406F000E416FAE0E056E6F0E066E010E44
:10002000076E75ECB7F0F28EF28CCE0E0F01096FF1
:10003000CF0E196F000E1E6FFD0E266FE4ECB7F0A9
:1000400000018F6F8F51D8B407D003ECB8F0000EC9
:100050000001FD6F010E8E6F8390090E0001F36F9A
:100060001E0EF26FE40EE82EFED7F22FFCD7F32F10
:10007000FAD700F08380290E0001F36F960EF26F1D
:100080007F0EE82EFED7F22FFCD7F32FFAD78DBCC8
:1000900003D0010E00018D6F000E066E0C0E056E72
:1000A00025ECB7F00001846F010E84650BD0000EC3
:1000B0000A6E0C0E096E000E0B6EF6ECB4F0000E1C
:1000C0000001846F000E066E0D0E056E25ECB7F074
:1000D0000001896F060E89650AD0060E896F000E31
:1000E0000A6E0D0E096E89C00BF0F6ECB4F0000E2E
:1000F000066E0E0E056E25ECB7F00001886F060E39
:1001000088650AD0060E886F000E0A6E0E0E096E04
:1001100088C00BF0F6ECB4F000018951CCECACF0E7
:1001200006C005F0066A05509B6E00018951CCECB3
:10013000ACF005509A6E00018851CCECACF006C0D2
:1001400005F0066A05500E01976F00018851CCEC4E
:10015000ACF005500E01966F790E0001C16FF90EDB
:10016000C26F7BECB6F000018F51D8B407D0CE0E31
:10017000C16FFB0EC26F7BECB6F006D0F40EC16F00
:10018000FB0EC26F7BECB6F0110E0001F36F3C0E5C
:10019000F26FCB0EE82EFED7F22FFCD7F32FFAD753
:1001A00030ECB7F00AEC9AF000017D6F200EFEEC07
:1001B000B0F00009D8A402D0010E7F6F7F51D8B4EF
:1001C00006D07E0EC16FFD0EC26F7BECB6F0960EB0
:1001D0000001C16FFD0EC26F7BECB6F0000E066E23
:1001E0000B0E056E25ECB7F00001F26F010EF26503
:1001F00008D0000E0A6E0B0E096E000E0B6EF6ECA8
:10020000B4F0000E066E0B0E056E25ECB7F0000183
:10021000826F8251D8B407D0A80EC16FFF0EC26F93
:100220007BECB6F006D07F0EC16FFF0EC26F7BEC89
:10023000B6F06F0E3E6E010E3F6E3AECB7F06F0EE9
:100240003E6E010E3F6E3AECB7F0000E066E0A0EDF
:10025000056E25ECB7F000018C6F8D05D8B406D083
:10026000030E8C6524D202D0C4ECB2F05A50D8A44C
:10027000FBD7700E0001C16FFA0EC26F7BECB6F0B7
:10028000030E00018C650BD0000E0A6E0A0E096E7B
:10029000000E0B6EF6ECB4F0000E00018C6F2D0E0C
:1002A000C16FFE0EC26F7BECB6F0790E0001C16F1C
:1002B000FF0EC26F010E8C25C36FC46B000EC423EA
:1002C0007BECB6F0900E0001C16FFE0EC26F7BECAE
:1002D000B6F0650E0001C16FFD0EC26F7BECB6F08B
:1002E0003D0E0001C16FFE0EC26F7BECB6F0E90E51
:1002F0000001C16FFD0EC26F7BECB6F000018451AE
:1003000023ECB0F04C0E0001C16FFE0EC26F7BEC0F
:10031000B6F00001845123ECB0F0090E0001C16F6A
:10032000FE0EC26F7BECB6F0620E0001C16FFC0ED8
:10033000C26F7BECB6F0F90E0001C16FFC0EC26F0C
:100340007BECB6F000018251D8A407D0F70EC16F44
:10035000FF0EC26F7BECB6F006D0E70EC16FFF0E4A
:10036000C26F7BECB6F07B0E0001C16FFF0EC26F57
:100370007BECB6F000017D51D8B409D0160EC16FE8
:10038000FD0EC26F7BECB6F0380E0001FC6F090E5B
:10039000C16FFE0EC26F7BECB6F0C20E0001C16FE2
:1003A000FD0EC26F7BECB6F00A0E0001D46F590E41
:1003B000D56F010ED66F9BECA2F0C4ECB2F0586E74
:1003C0002F0E5864F1D758500001FC5DD8A0ECD72F
:1003D0003F0EC16FFF0EC26F58C0C3F0C46B7BEC01
:1003E000B6F037D157ECB7F084C057F05728010B5F
:1003F000576EC60E0001C16FFF0EC26F7BECB6F0E8
:10040000575023ECB0F0D60E0001C16FFD0EC26F45
:100410007BECB6F002D0C4ECB2F05A50D8A4FBD7B3
:10042000000E0001D46F000ED56F000ED66F9BEC4E
:10043000A2F0C4ECB2F0586E0D0E5818D8B404D027
:100440001B0E5818D8A4D2D73A0E0001C16FFA0E6D
:10045000C26F7BECB6F00D0E5818D8A40FD157C060
:1004600084F0000E0A6E0C0E096E57C00BF0F6EC0D
:10047000B4F004D1000E8A6F010E8B6F020E8B65F3
:1004800001D0C3D057ECB7F000018B05D8A407D03A
:10049000000E066E0D0E056E25ECB7F006D0000EB0
:1004A000066E0E0E056E25ECB7F0576E5706572AEE
:1004B000060E576402D0000E576EAD0E0001C16FDC
:1004C000FD0EC26F7BECB6F01D0E0001C16FFE0E7B
:1004D000C26F8BC0C3F0C46B7BECB6F031D0E30EBF
:1004E000C16FFF0EC26F7BECB6F04BD0B70EC16F81
:1004F000FF0EC26F7BECB6F044D0BC0EC16FFF0E96
:10050000C26F7BECB6F03DD0C10EC16FFF0EC26F63
:100510007BECB6F036D08B0EC16FFF0EC26F7BEC5A
:10052000B6F02FD0910EC16FFF0EC26F7BECB6F00C
:1005300028D0720EC16FFF0EC26F7BECB6F021D0D7
:1005400057500001F26FF36BF351000AD8A419D091
:10055000F251000AD8B4C3D7010AD8B4C7D7030AE6
:10056000D8B4CBD7010AD8B4CFD7070AD8B4D3D7D9
:10057000010AD8B4D7D7030AD8B4DBD702D0C4EC69
:10058000B2F05A50D8A4FBD7000E0001D46F000E71
:10059000D56F000ED66F9BECA2F0C4ECB2F0586E93
:1005A0000D0E5818D8B404D01B0E5818D8A47FD7F5
:1005B0000D0E5818D8A41FD0DA0E0001C16FFF0E1F
:1005C000C26F7BECB6F000018B05D8A409D0000EF9
:1005D0000A6E0D0E096E57C00BF0F6ECB4F008D0A1
:1005E000000E0A6E0E0E096E57C00BF0F6ECB4F05A
:1005F00000018A258A6F3C0E0001C16FFA0EC26F9E
:100600007BECB6F000018B2B39D7090EC16FFE0EC3
:10061000C26F7BECB6F000018A51D8B42FD0070E20
:10062000C16FFA0EC26F7BECB6F028D08251D8A40D
:1006300002D0010E01D0000E826F000E0A6E0B0E6A
:10064000096E82C00BF0F6ECB4F018D031EC8FF0EC
:1006500015D058500001F26FF36BF351000AD8A483
:100660000DD0F251350AD8B4BDD6030AD8B402D79A
:10067000010AD8B4DBD70F0AD8B4E8D7839E585004
:10068000CF0F00018C6F040E8C6109D0000E0A6E32
:100690000A0E096E8CC00BF0F6ECB4F008D0000E18
:1006A000066E0A0E056E25ECB7F000018C6F030E86
:1006B00000018C19D8A4DBD05A0EC16FFE0EC26F98
:1006C0007BECB6F00001845123ECB0F0090E000180
:1006D000C16FFE0EC26F7BECB6F0C9D0780E01017F
:1006E000696FF30E6A6FEC0E2E6F050E2F6F000E02
:1006F000306F000E316F000E0001606FC00E616F31
:10070000070E626F000E636F000E646FC00E656FA0
:10071000070E10D0E20E786FFE0E796F000E606F3C
:10072000040E616F000E626F000E636F000E646F47
:10073000040E8BD0666F000E676FAED0000E606F38
:10074000040E616F000E626F000E636F000E646F27
:10075000040E656F000E666F000E676F830E786F74
:10076000FE0E796F830E556EFE0E566E67ECB7F077
:100770000009D8A43AD0A00E446E060E456EA20E13
:10078000466E24ECB5F0A35104E1070EA25DD8A09B
:100790002CD0A00E376E060E386EB90E396E010ED3
:1007A0003A6E000E3C6E100E3B6E03ECB4F037C098
:1007B00060F038C061F039C062F03AC063F0B9C18E
:1007C00037F0BAC138F0000E396E000E3A6E000EE6
:1007D0003C6E100E3B6E03ECB4F037C064F038C0D2
:1007E00065F039C066F03AC067F0D00E0001C16F05
:1007F000FA0EC26F60C0C3F061C0C4F062C0C5F041
:1008000063C0C6F064C0C7F065C0C8F066C0C9F078
:1008100067C0CAF07BECB6F0760E0001786FFE0E72
:10082000796F3AD02B0E786FFF0E77D7ED0E786F79
:10083000FE0E796F400E606F210E616F000E626FC9
:10084000000E636F400E646F210E656F000E72D74D
:100850008451F26FF36BF351000AD8A41DD0F2510A
:10086000000AD8B4DFD7010AD8B4E0D715D0000108
:100870008C51F26FF36BF351000AD8A40DD0F251F2
:10088000000AD8B42BD7010AD8B444D7030AD8B485
:1008900055D7010AD8B4DCD74B0EC16FFD0EC26F1D
:1008A0007BECB6F000018C51D8B410D0850EC16F2E
:1008B000FF0EC26F78C0C3F079C0C4F07BECB6F015
:1008C00078C0ECF079C0EDF0E8ECA6F0DF0EC16F77
:1008D000FF0EC26F7BECB6F0000E8AECAEF0000E9D
:1008E0008AECAEF0100E8AECAEF0000E8AECAEF0A0
:1008F000000E8AECAEF0000E8AECAEF0040E8AEC2C
:10090000AEF0000E8AECAEF0200E8AECAEF07C0E5B
:100910008AECAEF0000E8AECAEF0000E8AECAEF07F
:10092000000E8AECAEF0000E8AECAEF0200E8AECDF
:10093000AEF0FC0E8AECAEF0000E8AECAEF0000ECB
:100940008AECAEF0100E8AECAEF0000E8AECAEF03F
:10095000200E8AECAEF0FC0E8AECAEF012ECAEF09B
:10096000000167518AECAEF0000166518AECAEF0EE
:10097000000165518AECAEF0000164518AECAEF0E2
:10098000200E8AECAEF07C0E8AECAEF012ECAEF0EB
:10099000000163518AECAEF0000162518AECAEF0C6
:1009A000000161518AECAEF0000160518AECAEF0BA
:1009B00000018C51D8B47AD0A00E446E060E456E5C
:1009C000A20E466E24ECB5F0856FA251A311D8B4E7
:1009D00002D0000EFA6F000E716F000E706F37D0EC
:1009E000200E8AECAEF0FC0E8AECAEF012ECAEF00B
:1009F000A00E00017025D96E060E7121DA6EDF504F
:100A00008AECAEF0A10E00017025D96E060E7121A0
:100A1000DA6EDF508AECAEF0A20E00017025D96EBE
:100A2000060E7121DA6EDF508AECAEF0A30E0001E3
:100A30007025D96E060E7121DA6EDF508AECAEF0A9
:100A4000040E00017025706F000E7121716FA251AC
:100A5000705DA3517159D8A0C3D7020EA319A2117A
:100A6000D8A403D08551D8B4A7D78551D8B411D014
:100A700085C0CCF078C0CDF079C0CEF0020E46EC47
:100A80009EF016ECB6F0000E4D6E000E4C6E1CEC97
:100A9000B4F08551D8A490D7FA51D8B441D03F0EC4
:100AA000C16FFC0EC26F7BECB6F0FFD7000E0101E8
:100AB000326F000E336F000E346F000E356F26D08C
:100AC000100E8AECAEF0FC0E8AECAEF012ECAEF03A
:100AD000000E8AECAEF00101325169250001F26F7F
:100AE000010133516A210001F36FF2C0F6FFF3C038
:100AF000F7FF000EF86E0800F5508AECAEF0010E1C
:100B000001013227000E3323342335232E51325D69
:100B10002F5133593051345931513559D8A0D0D78C
:100B20004E0E8AECAEF0720E8AECAEF012ECAEF025
:100B3000270E8AECAEF0000E8AECAEF05A0E0001E1
:100B4000C16FFF0EC26F7BECB6F0869286900E01ED
:100B500028510209286F150E0001F26FC60EE82E0B
:100B6000FED7F22FFCD700F086828680A80E000107
:100B7000C16FFB0EC26F7BECB6F00E0127AB07D145
:100B80008CB23DD08EA204D00001F26BF22B02D0C9
:100B90000001F26B8EA402D0010E01D0000E020DF6
:100BA000F350F225946F8FCF59F00AD07AEC8AF087
:100BB00018D059C0FFF0000E7B6F000E7A6F11D075
:100BC0009451F26FF36BF351000AD8A40AD0F2519A
:100BD000000AD8B4EBD7010AD8B4EBD7030AD8A4DB
:100BE000010AF29E0E0132518009326F00F000F0CE
:100BF00000F00E0132517F0B326FF28EC8D08DB6ED
:100C000084D08EA204D00001F26BF22B02D000013E
:100C1000F26B8EA402D0010E01D0000E020DF35033
:100C2000F225946F000E596E3FD086EC98F050D0AC
:100C300059685A50D8B403D0C4ECB2F033D086848B
:100C400047D09551D8B403D0F26BF22B02D00001FB
:100C5000F26B050EF36FD890F237F32FFCD78FC0ED
:100C6000F4F0D890F437D890F437D890F4375A503D
:100C7000D8B403D0F56BF52B02D00001F56BD890FA
:100C8000F537D890F5377D517D25F511F411F21126
:100C900082111009596E1CD059689551D8B4CFD71C
:100CA0003AECB2F0596ECBD79451F26FF36BF3512B
:100CB000000AD8A40DD0F251000AD8B4B6D7010A60
:100CC000D8B4B6D7030AD8B4BCD7010AD8B4E4D78D
:100CD000869200018EB102D0829001D08280000EF7
:100CE0008A6E59C085FF0E0132518009326F00F0C3
:100CF00000F000F000F000F000F08A680001FDB1A3
:100D000002D0829001D082803DD000019051D8B4B1
:100D100006D0420E596E000E906F868418D05A503D
:100D2000D8B405D09351D8B402D0400E07D0955115
:100D3000D8B406D09251D8B403D0410E596E07D022
:100D4000A10EC16FFC0EC26F7BECB6F0FFD786928E
:100D50008EB102D0829001D08280000E8A6E59C07E
:100D600085FF0E0132518009326F00F000F000F073
:100D700000F000F000F08A680001FDB102D082901E
:100D800001D082800E0132517F0B326F86825A5021
:100D9000D8B404D000019351D8A486940001955191
:100DA000D8B403D09251D8A486949151D8B4E5D642
:100DB000A5ECB5F001013A51055C0001F26F0101AB
:100DC0003B5106580001F36F01013C5107580001E7
:100DD000F46F01013D5108580001F56FFEC0F6F0B7
:100DE000F76BF86BF96BF251F65DF351F759F4516B
:100DF000F859F551F959D8B0C0D68694010E906FC4
:100E0000A5ECB5F005C03AF106C03BF107C03CF1D6
:100E100008C03DF1B2D64B50D96EDA6ADECFF6FF8C
:100E2000DDCFF7FF000EF86E0800F550250AD8A4B4
:100E300047D34B50D96EDA6ADE2A000EDD22000E4F
:100E40000001696F000E686F68C06CF069C06DF0DA
:100E50006A696B69000EB16F000E13D06C814B5044
:100E6000D96EDA6ADE2A000EDD222FD06C83F7D726
:100E70006C85F5D76C87F3D76C89F1D7000EB16F0D
:100E8000010EB06F22D04B50D96EDA6ADECFF6FF7A
:100E9000DDCFF7FF000EF86E0800F5504D6E4E6A7C
:100EA0004E50000AD8A4EAD74D50200AD8B4E2D751
:100EB000030AD8B4E1D7080AD8B4DAD7060AD8B4F6
:100EC000CDD71D0AD8B4D2D7D9D7B051B111D8B423
:100ED000DAD76CB16C934B50D96EDA6ADECFF6FF7D
:100EE000DDCFF7FF000EF86E0800F5502A0AD8A4EF
:100EF0001AD04B50D96EDA6ADE2A000EDD224C5031
:100F0000D96EDA6A020EDF26DF5CD96EDA6ADECFCE
:100F100068F0DECF69F069AF3FD06C81686D691F02
:100F2000D8B0692B39D04B50D96EDA6ADECF0CF0CD
:100F3000DDCF0DF0BBECA0F00CC068F00DC069F087
:100F400006D04B50D96EDA6ADE2A000EDD22D00EB2
:100F50004D6EFF0E4E6E4B50D96EDA6ADECFF6FF45
:100F6000DDCFF7FF000EF86E0800F5504F6E506AA7
:100F70004D504F264E505022505006E10A0E4F5C05
:100F8000D8B002D0010E01D0000E0001B26FB36BD9
:100F9000B251B311D8A4D5D74B50D96EDA6ADECF8F
:100FA000F6FFDDCFF7FF000EF86E0800F550630A7C
:100FB000D8A41DD04B50D96EDA6ADE2A000EDD228D
:100FC0004C50D96EDA6ADF50DF2ADF2AD96EDA6A2E
:100FD000DF50B66F49C010F04AC011F0B6C012F031
:100FE000C5ECAAF010C049F011C04AF012004B50F5
:100FF000D96EDA6ADECFF6FFDDCFF7FF000EF86EAE
:101000000800F5506E0AD8A42FD04B50D96EDA6A7A
:10101000DE2A000EDD224C50D96EDA6A020EDF267F
:10102000DF5CD96EDA6ADECFB4F0DECFB5F0B4C0E3
:10103000F6FFB5C0F7FF000EF86E0E0EF76407D08E
:1010400065C1F5FF0D0066C1F5FF0C0008D0F6CFB5
:10105000E1FFF7CFE2FF65C1E6FF66C1E7FF000EE3
:101060004A6E000E496E12004B50D96EDA6ADECF1E
:1010700005F0DDCF06F0EE0E076EFF0E086E000ED7
:101080000A6E020E096E0EECA8F005500610D8A4E8
:101090003FD04B50D96EDA6A020EDE26000EDD22FA
:1010A0004C50D96EDA6A020EDF26DF5CD96EDA6A3E
:1010B000DECFB4F0DECFB5F065C14DF066C14EF0C5
:1010C000000E4EBEFF0E4F6E506EB4C0F6FFB5C0A0
:1010D000F7FF000EF86E0E0EF7640DD04DC0F5FF51
:1010E0000D004EC0F5FF0D004FC0F5FF0D0050C0C4
:1010F000F5FF0C000CD0F6CFE1FFF7CFE2FF4DC0BB
:10110000E6FF4EC0E6FF4FC0E6FF50C0E7FFA7D79F
:101110004B50D96EDA6ADECFF6FFDDCFF7FF000E57
:10112000F86E0800F550730AD8A421D04B50D96E40
:10113000DA6ADE2A000EDD224C50D96EDA6A020E1F
:10114000DF26DF5CD96EDA6ADECFAEF0DECFAFF03D
:1011500049C010F04AC011F0AEC012F0AFC013F099
:1011600065ECA1F010C049F011C04AF012004B50DC
:10117000D96EDA6ADECFF6FFDDCFF7FF000EF86E2C
:101180000800F550750AD8A438D04B50D96EDA6AE9
:10119000DE2A000EDD224C50D96EDA6ADF50DF2ADB
:1011A000DF2AD96EDA6ADECF4DF0DDCF4EF04DC0CA
:1011B000B7F04EC0B8F00001B96BBA6BBB6BBC6B3B
:1011C000BD6BBE6B49C022F04AC023F0B7C024F00B
:1011D000B8C025F0B9C026F0BAC027F0BBC028F0CF
:1011E000BCC029F0BDC02AF0BEC02BF06EEC9DF053
:1011F00022C049F023C04AF012004B50D96EDA6A7F
:10120000DECF05F0DDCF06F0F10E076EFF0E086EA3
:10121000000E0A6E020E096E0EECA8F005500610C4
:10122000D8A441D04B50D96EDA6A020EDE26000EE9
:10123000DD224C50D96EDA6ADFCF4DF0040EDF2686
:101240004D50D96EDA6ADECF4EF0DECF4FF0DECFF2
:1012500050F0DECF51F04E500001B76F4F50B86FD5
:101260005050B96F5150BA6FBB6BBC6BBD6BBE6B4E
:1012700049C022F04AC023F0B7C024F0B8C025F01E
:10128000B9C026F0BAC027F0BBC028F0BCC029F016
:10129000BDC02AF0BEC02BF06EEC9DF022C049F01C
:1012A00023C04AF012004B50D96EDA6ADECFF6FF47
:1012B000DDCFF7FF000EF86E0800F550780AD8B4BD
:1012C0000ED04B50D96EDA6ADECFF6FFDDCFF7FFD6
:1012D000000EF86E0800F550580AD8A446D04B50BE
:1012E000D96EDA6ADECFF6FFDDCFF7FF000EF86EBB
:1012F0000800F5CFB6F04B50D96EDA6ADE2A000E40
:10130000DD224C50D96EDA6ADF50DF2ADF2AD96E2F
:10131000DA6ADECF4DF0DDCF4EF04DC0B7F04EC0F3
:10132000B8F00001B96BBA6BBB6BBC6BBD6BBE6B2D
:1013300049C022F04AC023F0B7C024F0B8C025F05D
:10134000B9C026F0BAC027F0BBC028F0BCC029F055
:10135000BDC02AF0BEC02BF0B6C02CF06BEC9BF0E9
:1013600022C049F023C04AF012004B50D96EDA6A0D
:10137000DECF05F0DDCF06F0F40E076EFF0E086E2F
:10138000000E0A6E020E096E0EECA8F00550061053
:10139000D8B415D04B50D96EDA6ADECF05F0DDCF68
:1013A00006F0EB0E076EFF0E086E000E0A6E020EC0
:1013B000096E0EECA8F005500610D8A457D04B507B
:1013C000D96EDA6ADECF4DF0DDCF4EF0010E4D263C
:1013D000000E4E224DC0F6FF4EC0F7FF000EF86E15
:1013E0000800F5CFB6F04B50D96EDA6A020EDE2651
:1013F000000EDD224C50D96EDA6ADFCF4DF0040EBC
:10140000DF264D50D96EDA6ADECF4EF0DECF4FF0D8
:10141000DECF50F0DECF51F04E500001B76F4F508D
:10142000B86F5050B96F5150BA6FBB6BBC6BBD6B8E
:10143000BE6B49C022F04AC023F0B7C024F0B8C048
:1014400025F0B9C026F0BAC027F0BBC028F0BCC058
:1014500029F0BDC02AF0BEC02BF0B6C02CF06BEC5A
:101460009BF022C049F023C04AF012004B50D96EC5
:10147000DA6ADECFF6FFDDCFF7FF000EF86E080068
:10148000F550250AD8A415D04B50D96EDA6ADE2A59
:10149000000EDD22000E086E250E076E49C009F011
:1014A0004AC00AF0C2ECAEF0000E4A6E010E496E60
:1014B00012004B50D96EDA6ADE2A000EDD22CFD53B
:1014C0004B50D96EDA6ADECFF6FFDDCFF7FF000EA4
:1014D000F86E0800F550076E086A49C009F04AC066
:1014E0000AF0C2ECAEF04B50D96EDA6ADE2A000E7A
:1014F000DD22DAD736D259A002D0838E1200839E25
:1015000012005950FEECB7F012008F51D8A412000F
:1015100059A002D0010E936F59A202D0010E926F12
:1015200059A41200010E916F12007F51D8B412001D
:101530007E51D8A41200120E176E59C018F0200E5A
:10154000F4ECAFF012007F51D8B412007E51D8A451
:101550001200130E176E59C018F0200EF4ECAFF005
:1015600012007F51D8B412007E51D8A41200000E90
:10157000176E59C018F0200EF4ECAFF012007F5136
:10158000D8B412007E51D8A41200010E176E59C0B3
:1015900018F0200EF4ECAFF012007F51D8B4120016
:1015A0007E51D8A412000C0E176E59C018F0200EF0
:1015B000F4ECAFF012007F51D8B412007E51D8A4E1
:1015C00012000D0E176E59C018F0200EF4ECAFF09B
:1015D0001200640E596027D02DECAFF08451300F0B
:1015E0000101C66F0A0E056E595043ECB3F0300F7F
:1015F0000101C86F0A0E056E595043ECB3F0F60DA9
:10160000F3505924300F0101C96F00018151D8A452
:1016100007D0C40E556E010E566E67ECB7F0816FA1
:10162000010EFB6F1200100E816F12007A517B11B8
:10163000D8A404D059C076F0776B0FD05950EC6F16
:101640007651766FECC077F0020E775DD8B002D09D
:10165000000E01D0110E816FFF6900017A4B7B2BC8
:10166000120059C0ADF0800EAD6101D003D0120E52
:10167000816F1200000E816F12007A517B11D8A485
:1016800062D07F0EAD6501D05ED08151D8A45BD011
:10169000AD41E8423F0B836F76C0ECF077C0EDF0D0
:1016A000050ED890EC37ED37E82EFBD78351EC11BF
:1016B000746FED51756FADC0ECF0030EEC17EC518B
:1016C000800DF3CF6BF1F4CF6CF1010EF16F72511D
:1016D000741909E173517519D8A405D0FB51D8A428
:1016E00002D0000EF16FF1C086F08651D8B427D039
:1016F0002DECAFF08151D8A407D074C04CF075C068
:101700004DF01CECB4F0816F8151D8A409D0A00E2B
:10171000446E060E456EA20E466E24ECB5F0816F47
:1017200074C072F075C073F08151D8A408D0020E55
:10173000A35DD8B004D0010EFB6F130E816F010EB4
:10174000876F000EFB6F8151D8A410D0A00E01014D
:101750006B25D96E060E6C21DA6E59C0DFFF0001D1
:101760007B5103E17F0E7A5DD8B0FF697A4B7B2B0A
:1017700001016B4B6C2B12005950D8B4120059C0A8
:10178000FEF012005950E6ECB2F012007F51D8B4CE
:101790001200010E7E6F5950D8A402D0010E01D064
:1017A000000E010BAC6F120E176EAC51AC25050983
:1017B000186E200EF4ECAFF0000E176EF80E186ED7
:1017C000200EF4ECAFF0010E176E000E186E200E16
:1017D000F4ECAFF00C0E176EFF0E186E200EF4EC4A
:1017E000AFF0D8800001AC35576E120E176E57C09F
:1017F00018F0200EF4ECAFF057500409576E120E9B
:10180000176E57C018F0200EF4ECAFF012007E51A6
:10181000D8B41200130E176E59C018F0200EF4EC55
:10182000AFF00001AC51AC25FC09576E120E176EDB
:1018300057C018F0200EF4ECAFF057500109576E66
:10184000120E176E57C018F0200EF4ECAFF0120015
:101850007A517B11D8A407D059500101366F376BEC
:10186000386B396BFAD67AC0ECF0D890EC37D89058
:10187000EC37D890EC3759C0EDF0EE6BEF6BF06BB6
:10188000EC2B05D0D890ED37EE37EF37F037EC2F53
:10189000F9D7010136510001ED110101366F3751C1
:1018A0000001EE110101376F38510001EF11010104
:1018B000386F39510001F0110101396F00017B517E
:1018C00004E1030E7A5DD8A0C8D6FF69000E806FD0
:1018D000C4D68051D8A4C1D67A517B11D8A410D0D7
:1018E000000E136E000E146E36C115F037C116F0DF
:1018F00038C117F039C118F0BAECA3F00001806FBD
:10190000A00E7A25D96E060E7B21DA6E59C0DFFF54
:101910007A29010E7B59D8A0A0D6A00E136E060E10
:10192000146E000E156E020E166E000E176E000E6F
:10193000186EBAECA3F00001806F8051D8A48CD649
:10194000000E136E000E146E000E156E000E166E55
:10195000000E176E000E186EBAECA3F00001806F37
:101960007BD60001FF51EC6FED6BED51000AD8A45E
:101970001200EC51000AD8B4BED5010AD8B4C1D5C2
:10198000030AD8B4C2D5010AD8B4CFD5070AD8B44F
:10199000DAD5010AD8B4E5D5030AD8B4F0D5010ADE
:1019A000D8B4FBD50F0AD8B406D6010AD8B411D6DC
:1019B000030AD8B43BD6010AD8B453D6070AD8B420
:1019C0005CD6030AD8B4D8D61F0AD8B4DBD6010A2D
:1019D000D8B4DCD6030AD8B41AD7010AD8B438D799
:1019E000070AD8A4120075D7000E00016E6F000E12
:1019F0006F6F83EC9CF02A6E2AA002D0020E1200B8
:101A0000000E0001DA6F000EDB6F000EDC6F000EBF
:101A1000DD6FAE0E236E000E246E000E256E000EDE
:101A2000266E000E276E3CECA5F00001E26FE20589
:101A3000D8A438D0AE0E136E146A000E156E000EC8
:101A4000166E000E176E000E186E010E1A6EBE0E88
:101A5000196E000E1C6E100E1B6E43ECA4F00009F4
:101A6000D8B402D0030E1CD00001B251D8B41AD0A1
:101A7000B60E056ECCECA8F005C0DAF006C0DBF0BF
:101A800007C0DCF008C0DDF0AE0E236EDAC024F033
:101A9000DBC025F0DCC026F0DDC027F03CECA5F073
:101AA0000001E26F030EE219D8A402D0010E120069
:101AB000E251D8B402D0060E1200AE0E136E146AB4
:101AC000DAC015F0DBC016F0DCC017F0DDC018F08E
:101AD000000E1A6E0D0E196E000E1C6E240E1B6E7B
:101AE00043ECA4F00009D8A4E1D7B70E056ECFEC03
:101AF000B3F005C0DEF006C0DFF00001E06BE16B83
:101B0000DE51DF11E011E111D8A40CD0C50E056E35
:101B1000CCECA8F005C0DEF006C0DFF007C0E0F0B6
:101B200008C0E1F0DEC005F0DFC006F0E0C007F05D
:101B3000E1C008F00001B151096E0A6A0B6A0C6A33
:101B4000A8ECB0F005C0DEF006C0DFF007C0E0F0A2
:101B500008C0E1F0AF0E056ECFECB3F00550000108
:101B6000DA252A6E0650DB212B6E000EDC212C6E4E
:101B7000000EDD212D6E20EE0AF02850D9262950C6
:101B8000DA222AC0DEFF2BC0DEFF2CC0DEFF2DC014
:101B9000DEFF20EE02F02850D9262950DA22AEC00E
:101BA000DFFFB20E056ECFECB3F020EE04F028504C
:101BB000D9262950DA2205C0DEFF06C0DDFFB40EAB
:101BC000056ECFECB3F005C0D2F006C0D3F0000133
:101BD000D46BD56BD251D311D411D511D8A40CD05C
:101BE000C10E056ECCECA8F005C0D2F006C0D3F053
:101BF00007C0D4F008C0D5F020EE04F02850D92654
:101C00002950DA22DECF2AF0DDCF2BF0040E2C6E25
:101C1000D8902B322A322C2EFBD72A502D6E2B50E7
:101C20002E6E2F6A306AAF0E056ECFECB3F0055002
:101C3000316E0650326E336A346A311E321E331EE4
:101C4000341E312A000E3222332234220001DE51AA
:101C5000315C356EDF513258366EE0513358376E95
:101C6000E1513458386E2D50355C396E2E5036584F
:101C70003A6E2F5037583B6E305038583C6ED25128
:101C800039240C6ED3513A200D6ED4513B200E6E88
:101C9000D5513C200F6E20EE02F02850D926295055
:101CA000DA22DF503D6E3D50106E116A126A136ADF
:101CB00055ECADF0020E0C24D66F000E0D20D76F40
:101CC000000E0E20D86F000E0F20D96F20EE06F008
:101CD0002850D9262950DA22D6C0DEFFD7C0DEFF31
:101CE000D8C0DEFFD9C0DEFF000EE26FD951D81197
:101CF00006E1F80ED65D0F0ED759D8A00BD0D951FA
:101D0000D81108E1F70ED65DFF0ED759D8B002D032
:101D1000020EE26FD951D81106E1F70ED65DFF0E23
:101D2000D759D8A002D0030EE26FE251D8B4C3D67F
:101D300028C0D9FF29C0DAFFE2C0DFFF030EE21995
:101D4000D8A413D0CD0E056ECCECA8F020EE0EF08A
:101D50002850D9262950DA2205C0DEFF06C0DEFF52
:101D600007C0DEFF08C0DEFF28D020EE0AF02850B2
:101D7000D9262950DA22DECF2AF0DECF2BF0DECFB3
:101D80002CF0DECF2DF0DE512A242E6EDF512B20D9
:101D90002F6EE0512C20306EE1512D20316E20EE5F
:101DA0000EF02850D9262950DA222EC0DEFF2FC08F
:101DB000DEFF30C0DEFF31C0DEFF20EE0AF028502B
:101DC000D9262950DA22DECF2AF0DECF2BF0DECF63
:101DD0002CF0DECF2DF020EE04F02850D92629502B
:101DE000DA22DECF2EF0DDCF2FF0040E306ED89049
:101DF0002F322E32302EFBD72E502A24316E2F5008
:101E00002B20326E000E2C20336E000E2D20346EEF
:101E10000001DE513124356EDF513220366EE05143
:101E20003320376EE1513420386E20EE12F0285006
:101E3000D9262950DA2235C0DEFF36C0DEFF37C092
:101E4000DEFF38C0DEFF20EE01F02850D9262950F1
:101E5000DA22000EDF6E28C06EF029C06FF0000E8F
:101E60001200AB0E1F6EAA0E206EA90E216EA80ED8
:101E7000226EA70E236EA60E246EA50E256ED5EC3F
:101E8000ADF0000E0001EE6FBF0EC16FFC0EC26F11
:101E90007BECB6F03E0E0001C16FFA0EC26F7BEC18
:101EA000B6F0C00E0001C16FFD0EC26F7BECB6F044
:101EB00049D0480EC16FFF0EC26F7BECB6F0000137
:101EC000A65150ECB5F059D00D0EC16FFF0EC26F88
:101ED0007BECB6F00001A75150ECB5F04ED0B40E3B
:101EE000C16FFD0EC26F7BECB6F0210E0001C16F19
:101EF000FF0EC26F7BECB6F00001A85150ECB5F0BC
:101F00003CD0170EC16FFF0EC26F7BECB6F0000124
:101F1000A95150ECB5F031D0A80EC16FFE0EC26FC2
:101F20007BECB6F00001AA5150ECB5F026D09C0E27
:101F3000C16FFE0EC26F7BECB6F00001AB5150ECEE
:101F4000B5F01BD00001EE51E46FE56BE551000ADE
:101F5000D8A413D0E451000AD8B4ABD7010AD8B43E
:101F6000B3D7030AD8B4BBD7010AD8B4CAD7070A73
:101F7000D8B4D2D7010AD8B4DAD7000E0001D46F92
:101F8000000ED56F000ED66F9BECA2F0C4ECB2F041
:101F9000586E750E5818D8B410D0550E5818D8B4BD
:101FA0000CD0740E5818D8B408D0540E5818D8B4A1
:101FB00004D00D0E5818D8A4E0D7750E5818D8B410
:101FC00078D0550E5818D8B474D08ED0A62B630E86
:101FD000A6658AD0000EA66F87D0A72B0C0EA7652A
:101FE00083D0010EA76F80D0A82B020EA719D8A40A
:101FF00031D0A851E46FE56BFF0EE66FFF0EE76F7F
:10200000A751E86FE96BE651E827E751E923210E74
:10201000E825F66EF30EE921F76EF86A000EF82255
:102020000800F550EA6FEB6BA651EAECB6F0000140
:10203000EC6FEC51EA27000EEB23E451EA5DEB5123
:10204000800AED6FE551800AED59D8B04DD0010EF0
:10205000A86F4AD0FF0EE46FFF0EE56FA751E66F41
:10206000E76BE451E627E551E723210EE625F66EFE
:10207000F30EE721F76EF86A000EF822A851090066
:10208000F55CD8A0E4D730D0A92B170EA9652CD0C9
:10209000000EA96F29D0AA2B3B0EAA6525D0000EF1
:1020A000AA6F22D0AB2B3B0EAB651ED0000EAB6FE0
:1020B0001BD00001EE51E46FE56BE551000AD8A496
:1020C00013D0E451000AD8B481D7010AD8B485D717
:1020D000030AD8B489D7010AD8B4D6D7070AD8B426
:1020E000DAD7010AD8B4DED7740E5818D8B497D00E
:1020F000540E5818D8B493D0ADD0A6510A0FA66F7D
:10210000630EA665A7D00A0E056EA65143ECB3F088
:10211000F60DF3500001A625A66F9CD00A0EA76508
:1021200003D0A751F60F05D0030EA76193D0A75196
:102130000A0FA76F8FD0A8510A0FA86FA851E46F9C
:10214000E56BFF0EE66FFF0EE76FA751E86FE96BD7
:10215000E651E827E751E923210EE825F66EF30E54
:10216000E921F76EF86A000EF8220800F550EA6FD0
:10217000EB6BA651EAECB6F00001EC6FEC51EA27EC
:10218000000EEB23E451EA5DEB51800AED6FE5515F
:10219000800AED59D8B00AD00A0E056EA85143EC5A
:1021A000B3F0F60DF3500001A825A86FA851D8A4EC
:1021B00051D0010EA86F4ED0A9510A0FA96F170E6A
:1021C000A96548D00A0E056EA95143ECB3F0F60D8F
:1021D000F3500001A925A96F3DD0AA510A0FAA6F9B
:1021E0003B0EAA6537D00A0E056EAA5143ECB3F038
:1021F000F60DF3500001AA25AA6F2CD0AB510A0F9F
:10220000AB6F3B0EAB6526D00A0E056EAB5143ECAF
:10221000B3F0F60DF3500001AB25AB6F1BD00001FE
:10222000EE51E46FE56BE551000AD8A413D0E451F8
:10223000000AD8B462D7010AD8B470D7030AD8B458
:102240007AD7010AD8B4B8D7070AD8B4C6D7010AD2
:10225000D8B4D4D7CC0E0001C16FFB0EC26F7BEC9B
:10226000B6F00D0E5818D8A41CD60001EE2B050EA2
:10227000EE6517D6AAC01BF0A9C01CF0A8C01DF0BF
:10228000A7C01EF0A6C01FF0AB51CAECB1F0FB0E08
:102290000001C16FFD0EC26F7BECB6F0DC0E0001D9
:1022A000C16FFC0EC26F7BECB6F0010ED0ECA9F052
:1022B0007B0E0001C16FFF0EC26F7BECB6F0120007
:1022C0006EC0BEF06FC0BFF00001BE51BF11D8A4F8
:1022D00002D0050E120020EE01F0BE51D926BF51EA
:1022E000DA22DFB002D0040E120020EE1AF0BE5146
:1022F000D926BF51DA223750DE5C3850DE583950CB
:10230000DE583A50DE58D8B00ED020EE1AF0BE514A
:10231000D926BF51DA22DECF37F0DECF38F0DECF5C
:1023200039F0DECF3AF020EE16F0BE51D926BF517B
:10233000DA22DECFB2F0DECFB3F0DECFB4F0DECF04
:10234000B5F020EE16F0BE51D926BF51DA22DE6A72
:10235000DE6ADE6ADD6A3750381039103A10D8B4B8
:10236000AFD120EE02F0BE51D926BF51DA22DF50A4
:102370003B6E3BC03CF03D6A3E6A3F6A090ED89016
:102380003C363D363E363F36E82EF9D73CC0B6F0F7
:102390003DC0B7F03EC0B8F03FC0B9F0B251B31184
:1023A000B411B511D8B495D0FF0E37240C6EFF0EC2
:1023B00038200D6EFF0E39200E6EFF0E3A200F6E84
:1023C000B6C010F0B7C011F0B8C012F0B9C013F029
:1023D00055ECADF00CC03BF00DC03CF00EC03DF034
:1023E0000FC03EF0FF0EB2250C6EFF0EB3210D6E36
:1023F000FF0EB4210E6EFF0EB5210F6EB6C010F0A9
:10240000B7C011F0B8C012F0B9C013F055ECADF080
:102410000C503B5C0D503C580E503D580F503E58F0
:10242000D8A057D0FF0EB6253B6EFF0EB7213C6EED
:10243000FF0EB8213D6EFF0EB9213E6E3B1C3F6E74
:102440003C1C406E3D1C416E3E1C426EFF0EB22590
:10245000436EFF0EB321446EFF0EB421456EFF0E96
:10246000B521466E3F504314476E40504414486EA9
:1024700041504514496E425046144A6E20EE16F003
:10248000BE51D926BF51DA2247C0DEFF48C0DEFF69
:1024900049C0DEFF4AC0DEFF20EE16F0BE51D9264D
:1024A000BF51DA22DE50375EDE50385ADE50395ADC
:1024B000DD503A5A20EE22F0BE51D926BF51DA2221
:1024C000DECFBAF0DECFBBF0DECFBCF0DECFBDF0AA
:1024D00076D020EE1EF0BE51D926BF51DA22DECFD3
:1024E000BAF0DECFBBF0DECFBCF0DECFBDF020EE29
:1024F00022F0BE51D926BF51DA22BAC0DEFFBBC0DE
:10250000DEFFBCC0DEFFBDC0DEFF59D0BAC023F085
:10251000BBC024F0BCC025F0BDC026F01CEC9FF071
:1025200023C0BAF024C0BBF025C0BCF026C0BDF06B
:102530000001BD51BC11BB1104E1020EBA5DD8A06F
:1025400010D020EE06F0BE51D926BF51DA22DE505F
:10255000BA5DDE50BB59DE50BC59DE50BD59D8A023
:102560000AD020EE01F0BE51D926BF51DA22000E6A
:10257000DF6E010E120020EE22F0BE51D926BF51AF
:10258000DA22BAC0DEFFBBC0DEFFBCC0DEFFBDC0CA
:10259000DEFF20EE16F0BE51D926BF51DA22B65129
:1025A000DE26B751DE22B851DE22B951DE22B65105
:1025B000375EB751385AB851395AB9513A5A37502B
:1025C000B65D3850B7593950B8593A50B959D8A0B2
:1025D0009DD720EE16F0BE51D926BF51DA223750D2
:1025E000DE263850DE223950DE223A50DE22BAC0D2
:1025F00011F0BBC012F0BCC013F0BDC014F0ADECC4
:10260000A7F011C0AEF012C0AFF013C0B0F014C00C
:10261000B1F00001AE51AF11B011B111D8B4A1D7D2
:1026200020EE02F0BE51D926BF51DA22DF503B6EB8
:10263000FF0E3B243C6E3D6AFF0E3D223E6A3DBECE
:102640003E063E503F6E20EE16F0BE51D926BF51D9
:10265000DA22DECF40F0DECF41F0DECF42F0DECF37
:1026600043F00A0E05D0D890433242324132403214
:10267000E82EF9D73C504014446E3D504114456E4D
:102680003E504214466E3F504314476EAE514424B0
:10269000486EAF514520496EB05146204A6EB15147
:1026A00047204B6E20EE26F0BE51D926BF51DA22CC
:1026B00048C0DEFF49C0DEFF4AC0DEFF4BC0DEFF80
:1026C000000E120037C044F038C045F06EC055F01F
:1026D0006FC056F03B50D96EDA6A000EDE6E000E07
:1026E000DD6E55505610D8A402D0050E120020EE13
:1026F00001F05550D9265650DA22DFB002D0040E30
:10270000120039503A10D8A42DD020EE01F05550C7
:10271000D9265650DA22DFAC1BD0000E136E000E05
:10272000146E000E156E000E166E000E176E000E63
:10273000186EBAECA3F00009D8B40AD020EE01F06C
:102740005550D9265650DA22000EDF6E010E1200C7
:1027500020EE01F05550D9265650DA22BF0EDF1672
:10276000000E120020EE01F05550D9265650DA2204
:10277000DFBC0ED020EE16F05550D9265650DA2286
:10278000000EDE16FE0EDE16FF0EDE16FF0EDE1645
:1027900020EE16F05550D9265650DA22DECF3CF006
:1027A000DECF3DF0DECF3EF0DECF3FF020EE1AF080
:1027B0005550D9265650DA22DECF40F0DECF41F018
:1027C000DECF42F0DECF43F03C50405C4A6E3D50DD
:1027D00041584B6E3E5042584C6E3F5043584D6EE0
:1027E00039503C6E3A503D6E3E6A3F6A3C504A5CFE
:1027F0003D504B583E504C583F504D58D8B05ED18C
:102800004AC039F04BC03AF059D1FF0E3C6E010E70
:102810003D6E20EE16F05550D9265650DA22DECF06
:102820003EF0DDCF3FF03C503E163D503F163E504F
:102830003F10D8A4C5D020EE16F05550D9265650DA
:10284000DA22DECF3CF0DECF3DF0DECF3EF0DECF51
:102850003FF00A0E05D0D8903F323E323D323C3236
:10286000E82EF9D720EE02F05550D9265650DA223C
:10287000DF50406E40043C14526E5250D8A449D0F0
:1028800020EE16F05550D9265650DA22DE50DE10D2
:10289000DE10DE10D8A40FD020EE1EF05550D92641
:1028A0005650DA22DECF4EF0DECF4FF0DECF50F0C2
:1028B000DECF51F018D020EE22F05550D9265650D8
:1028C000DA22DECF23F0DECF24F0DECF25F0DECF1C
:1028D00026F01CEC9FF023C04EF024C04FF025C022
:1028E00050F026C051F0515050104F1004E1020E2C
:1028F0004E5CD8A023D720EE22F05550D926565052
:10290000DA224EC0DEFF4FC0DEFF50C0DEFF51C0F6
:10291000DEFF20EE22F05550D9265650DA22DECFC7
:1029200011F0DECF12F0DECF13F0DECF14F0ADECFD
:10293000A7F011C046F012C047F013C048F014C011
:1029400049F04650471048104910D8B4F7D65250B5
:1029500046243C6E000E47203D6E000E48203E6E21
:10296000000E49203F6E20EE26F05550D9265650D5
:10297000DA223CC0DEFF3DC0DEFF3EC0DEFF3FC0CE
:10298000DEFF000E136E000E146E20EE26F0555082
:10299000D9265650DA22DECF15F0DECF16F0DECF84
:1029A00017F0DECF18F0BAECA3F00009D8A4C6D611
:1029B00020EE01F05550D9265650DA22000EDB8C5D
:1029C000FF0E3C6E010E3D6E20EE16F05550D926DE
:1029D0005650DA22DECF3EF0DDCF3FF03C503E16BF
:1029E0003D503F163E500008536E3F50D8A0E82A95
:1029F0000208546E5350395C54503A58D8B004D041
:102A000039C053F03AC054F044C013F045C014F03C
:102A100053C015F054C016F0176A186ABAECA3F048
:102A20000009D8A48BD620EE16F05550D926565062
:102A3000DA225350DE265450DE22000EDE22DE2241
:102A400053504426545045225350395E54503A5AFC
:102A50003B50D96EDA6A5350DE265450DD22FF0E09
:102A60003C6E010E3D6E20EE16F05550D9265650A4
:102A7000DA22DECF3EF0DDCF3FF03C503E163D5037
:102A80003F163E503F10D8A419D0000E136E000E12
:102A9000146E000E156E000E166E000E176E000EF0
:102AA000186EBAECA3F00009D8A448D620EE01F0C5
:102AB0005550D9265650DA22BF0EDF1639503A103B
:102AC000D8B44ED6A2D637C0BCF038C0BDF06EC068
:102AD000C0F06FC0C1F03B50D96EDA6A000EDE6EF6
:102AE000000EDD6E0001C051C111D8A402D0050E48
:102AF000120020EE01F0C051D926C151DA22DFB018
:102B000002D0040E120020EE16F0C051D926C15199
:102B1000DA22DECF3CF0DECF3DF0DECF3EF0DECF7E
:102B20003FF020EE1AF0C051D926C151DA22DECF93
:102B300040F0DECF41F0DECF42F0DECF43F03C503C
:102B4000405CB36F3D504158B46F3E504258B56F32
:102B50003F504358B66F39503C6E3A503D6E3E6A16
:102B60003F6A3C50B35D3D50B4593E50B5593F505B
:102B7000B659D8B040D1B3C039F0B4C03AF03BD167
:102B800020EE16F0C051D926C151DA22FF0EDE1414
:102B90003C6E010EDE143D6E000EDE143E6E000E25
:102BA000DE143F6E3C503D103E103F10D8A4B2D012
:102BB00020EE16F0C051D926C151DA22DECF3CF00A
:102BC000DECF3DF0DECF3EF0DECF3FF00A0E05D087
:102BD000D8903F323E323D323C32E82EF9D720EEDB
:102BE00002F0C051D926C151DA22DF50406E4004B4
:102BF0003C14BB6FBB51D8A454D020EE16F0C0518A
:102C0000D926C151DA22DE50DE10DE10DE10D8A443
:102C10000FD020EE1EF0C051D926C151DA22DECFEE
:102C2000B7F0DECFB8F0DECFB9F0DECFBAF018D013
:102C300020EE22F0C051D926C151DA22DECF23F096
:102C4000DECF24F0DECF25F0DECF26F01CEC9FF0A7
:102C500023C0B7F024C0B8F025C0B9F026C0BAF040
:102C60000001BA51B911B8110EE1020EB75DD8B02A
:102C70000AD020EE01F0C051D926C151DA22000E4F
:102C8000DF6E010E120020EE22F0C051D926C15194
:102C9000DA22B7C0DEFFB8C0DEFFB9C0DEFFBAC0BF
:102CA000DEFF20EE22F0C051D926C151DA22DECF5C
:102CB00011F0DECF12F0DECF13F0DECF14F0ADEC6A
:102CC000A7F011C0AFF012C0B0F013C0B1F014C043
:102CD000B2F00001AF51B011B111B211D8B4C9D7DF
:102CE000BB51AF253C6E000EB0213D6E000EB121F0
:102CF0003E6E000EB2213F6E20EE26F0C051D92666
:102D0000C151DA223CC0DEFF3DC0DEFF3EC0DEFF27
:102D10003FC0DEFFFF0E3C6E010E3D6E20EE16F052
:102D2000C051D926C151DA22DECF3EF0DDCF3FF0CF
:102D30003C503E163D503F163E500008BE6F3F507F
:102D4000D8A0E82A0208BF6FBE51395CBF513A587B
:102D5000D8B004D039C0BEF03AC0BFF0BCC013F048
:102D6000BDC014F020EE26F0C051D926C151DA22A0
:102D7000DECF15F0DECF16F0DECF17F0DECF18F085
:102D800020EE16F0C051D926C151DA22DECF3CF038
:102D9000DDCF3DF0FF0E3C14196E010E3D141A6E8E
:102DA000BEC01BF0BFC01CF043ECA4F00001AE6F2E
:102DB000AE51D8A45ED720EE16F0C051D926C1512D
:102DC000DA22BE51DE26BF51DE22000EDE22DE22D6
:102DD000BE51395EBF513A5A3B50D96EDA6ABE5184
:102DE000DE26BF51DD22BC51BD11D8B404D0BE5186
:102DF000BC27BF51BD2339503A10D8A4C1D6000E0C
:102E00001200000E306E000E316E000E326E000E9B
:102E1000336E13C034F014C035F034503510D8B4CC
:102E200059D134C0D9FF35C0DAFFDF50D8B452D100
:102E300002D0344A352A34C0D9FF35C0DAFFDF501A
:102E4000366E010E286E200E3618D8B413D0F70E49
:102E50001A6EFF0E1B6E36501C6E1D6A1A501C2611
:102E60001B501D221D5004E1050E1C5CD8A002D091
:102E7000000E286E28C022F0236A22502310D8A406
:102E8000D8D7000E2E6E000E296E000E2F6E2D0E5E
:102E90003618D8A40BD0010E2E6E344A352A34C011
:102EA000D9FF35C0DAFFDF50366E04D02B0E36184E
:102EB000D8B4F3D7300E3618D8A430D0344A352AD7
:102EC00034C0D9FF35C0DAFFDF50366E1750181006
:102ED000D8B405D0100E17181810D8A415D0780E35
:102EE0003618D8B404D0580E3618D8A40DD0000E19
:102EF000186E100E176E344A352A34C0D9FF35C00B
:102F0000DAFFDF50366E0AD0010E296E1750181006
:102F1000D8A404D0000E186E080E176E17501810A3
:102F2000D8A404D0000E186E0A0E176E1950D8B42B
:102F300014D02E50D8A408D0FF0E2A6EFF0E2B6E90
:102F4000FF0E2C6E7F0E07D0000E2A6E000E2B6E29
:102F5000000E2C6E800E2D6E04D02A682B682C6813
:102F60002D6830C01EF031C01FF032C020F033C0D9
:102F700021F09F0E1A6EFF0E1B6E36501C6E1D6ADE
:102F8000200E1C12000E1D121A501C261B501D2252
:102F90001D5006E11A0E1C5CD8B002D0010E01D003
:102FA000000E246E256A24502510D8B409D036C0EE
:102FB0000BF00C6AF1ECB1F00B50C90F366E1CD05F
:102FC000D00E1A6EFF0E1B6E36501C6E1D6A1A5004
:102FD0001C261B501D221D5006E10A0E1C5CD8B099
:102FE00002D0010E01D0000E266E276A265027104F
:102FF000D8B462D0300E365E36501A6E1B6A175047
:103000001A5C1B50800A1C6E1850800A1C58D8B0DD
:1030100053D02F50D8A445D017C005F018C006F0E3
:10302000000E06BEFF0E076E086E30C009F031C0FC
:103030000AF032C00BF033C00CF0A8ECB0F0365000
:103040000524306E000E0620316E000E0720326E11
:10305000000E0820336E1E50305C1F503158205037
:10306000325821503358D8A00DD01950D8B419D0A7
:1030700030502A5C31502B5832502C5833502D5838
:10308000D8B00FD02AC030F02BC031F02CC032F0B5
:103090002DC033F0000E0101646F220E636F010E2C
:1030A0002F6E344A352A34C0D9FF35C0DAFFDF50DD
:1030B000366E010E296E55D72F50D8A40BD02E5046
:1030C000D8B408D0331E321E311E306C000E3122AF
:1030D0003222332215501610D8B40FD02950D8A45C
:1030E00004D013C034F014C035F015C0D9FF16C099
:1030F000DAFF34C0DEFF35C0DDFF30C013F031C071
:1031000014F032C015F033C016F012004AD18DBC55
:1031100002D0010E20D0000E1ED07F51D8B46BD14A
:10312000120E176E200E92ECAFF015D07F51D8B46E
:1031300062D1130E176E200E92ECAFF00CD07E51C0
:10314000D8B459D1120E176E200E92ECAFF0596E12
:103150005950F80B0109596E4ED17D51D8B452D057
:103160007A517B11D8A410D0AB0E1F6EAA0E206E20
:10317000A90E216EA80E226EA70E236EA60E246E37
:10318000A50E256ED5ECADF000017B513BE1070E9D
:103190007A5DD8A016D036D0ABC059F030D0AAC0D6
:1031A00059F02DD0A9C059F02AD0A8C059F027D085
:1031B000A7C059F024D0A6C059F021D0A5C059F01D
:1031C0001ED07AC0E3F07BC0E4F0E451000AD8A43A
:1031D00016D0E351000AD8B4DFD7010AD8B4DFD73C
:1031E000030AD8B4DFD7010AD8B4DFD7070AD8B4A6
:1031F000DFD7010AD8B4DFD7030AD8B4DFD77A4BB8
:103200007B2BF9D0FF69F7D081C059F0F4D07A5107
:103210007B11D8A43BD07F0EAD6501D037D0815152
:10322000D8A434D08751D8A42DECAFF0AD41E842FA
:103230003F0B836F76C0E3F077C0E4F0050ED890C3
:10324000E337E437E82EFBD78351E311746FE45181
:10325000756F010EE56F7251741909E1735175199B
:10326000D8A405D0FB51D8A402D0000EE56FE5C06C
:1032700086F08651D8B40AD08151D8A407D074C042
:103280004CF075C04DF01CECB4F0816F8151D8A4A6
:103290003BD07A517B11D8A428D08651D8B41BD00A
:1032A000A00E446E060E456EA20E466E24ECB5F0DE
:1032B000816F74C072F075C073F08151D8A409D0C9
:1032C000020EA35DD8B005D0010EFB6F130E816F07
:1032D00002D0000EFB6FADC0E3F0030EE317E35125
:1032E000800DF3CF6BF1F4CF6CF18151D8A40AD0EB
:1032F000A00E01016B25D96E060E6C21DA6EDF502F
:10330000596E02D0010EFB6F00017B5103E17F0E6D
:103310007A5DD8B0FF697A4B7B2B01016B4B6C2B2C
:103320006AD06F0E3E6E010E3F6E3AECB7F00001B0
:10333000816F6AD72DECAFF067D78051D8A427D022
:103340007A517B11D8A418D0A00E136E060E146EFD
:1033500036C115F037C116F038C117F039C118F071
:10336000000E1A6E000E196E020E1C6E000E1B6E01
:1033700043ECA4F00001806F8051D8A408D0A00EC7
:103380007A25D96E060E7B21DA6EDF50596E7A29C6
:10339000010E7B59D8A033D7FF6931D780C059F0CF
:1033A0002AD00001FF51E36FE46BE451000AD8A476
:1033B00022D0E351800AD8B4AAD6010AD8B4ADD637
:1033C000030AD8B4B3D6010AD8B4B9D6070AD8B418
:1033D000C4D6010AD8B418D7030AD8B418D7010A3A
:1033E000D8B49FD70F0AD8B4A5D7010AD8B4A5D7A7
:1033F000190AD8B4D3D7840E0001FF19D8B412002B
:10340000860EFF19D8B41200890EFF19D8B4120025
:10341000FF691200680EFEECB0F00009D8B402D0CB
:10342000000E1200820EC16FFC0EC26F7BECB6F074
:10343000010ED0ECA9F07B0E0001C16FFF0EC26F30
:103440007BECB6F07E0E0001C16FFB0EC26FA5C013
:10345000C3F0C46B7BECB6F00F0E176E680E92ECE7
:10346000AFF0800B0001D06FD051D8B432D1D50E5F
:10347000056E760E066EF90E076E000E096E020ED0
:10348000086E51ECB0F0D50E056E60ECB3F0AB6F8A
:10349000D50E056E730E066EF90E076E000E096EE0
:1034A000020E086E51ECB0F0D50E056E60ECB3F074
:1034B000AA6FD50E056E700E066EF90E076E000E21
:1034C000096E020E086E51ECB0F0D50E056E60EC80
:1034D000B3F0A96FD50E056E680E066EF90E076E75
:1034E000000E096E020E086E51ECB0F0D50E056E9E
:1034F00060ECB3F0A86F53D0650EF66EF90EF76E60
:10350000000EF86E0800F550610AD8A402D0010E32
:1035100044D0660EF66EF90EF76E000EF86E0800D7
:10352000F5506E0AD8A402D0060E37D0070E35D05B
:10353000020E33D0660EF66EF90EF76E000EF86EC0
:103540000800F550720AD8B404D0000ED26F080EED
:1035500003D0000ED26F040ED16FD1C0A7F046D0B9
:10356000660EF66EF90EF76E000EF86E0800F55056
:10357000720AD8B404D0000ED46F050E03D0000E2A
:10358000D46F030ED36FD3C0A7F030D0090E05D08F
:103590000A0E03D00B0E01D00C0EA76F27D0640EBD
:1035A000F66EF90EF76E000EF86E0800F550CE6F4D
:1035B000CF6BCF51000AD8A419D0CE51410AD8B44C
:1035C000B9D7050AD8B4E8D7020AD8B4B1D70C0ADB
:1035D000D8B492D7070AD8B4C3D7030AD8B4DAD775
:1035E000010AD8B4D5D71C0AD8B4D0D7D50E056EE9
:1035F0006D0E066EF90E076E000E096E020E086E55
:1036000051ECB0F0D50E056E60ECB3F0A66F310E44
:10361000C16FFD0EC26F7BECB6F0530E0001C16F9F
:10362000FB0EC26F7BECB6F0000ED0ECA9F0CC0E16
:103630000001C16FFE0EC26F7BECB6F0C4ECB2F0BD
:10364000586E790E5818D8B40CD0590E5818D8B4F2
:1036500008D06E0E5818D8B404D04E0E5818D8A4FE
:10366000EDD7AD0E0001C16FFF0EC26F58C0C3F0A1
:10367000C46B7BECB6F0790E5818D8B404D0590E50
:103680005818D8A41FD0AAC01BF0A9C01CF0A8C00D
:103690001DF0A7C01EF0A6C01FF00001AB51CAEC80
:1036A000B1F01A0E0001C16FFC0EC26F7BECB6F0D8
:1036B000010ED0ECA9F0090E0001C16FFE0EC26F21
:1036C0007BECB6F00F0E176E080E186E680EF4EC59
:1036D000AFF0010E12006BAF6C936BBF05D06B5156
:1036E00008E16A05D8B005D0000E3A6E010E396EB9
:1036F00004D06AC039F06BC03AF068C03BF069C0D2
:103700003CF06CA904D0FE0E3B26FF0E3C2224C0E8
:103710003DF025C03EF026C03FF027C040F028C055
:1037200041F029C042F02AC043F02BC044F0000E03
:10373000466E1F0E456E000E0101B86F93D0450610
:10374000D8A046060F0E3D14476E486A48BE08D002
:10375000485004E10A0E475CD8A002D0570E01D0B1
:10376000300E4724476E000E4820486EBF0E2D6E67
:10377000FF0E2E6E2C502F6E306A2D502F262E509D
:103780003022305006E11A0E2F5CD8B002D0010E64
:1037900001D0000E356E366A35503610D8B427D0B9
:1037A0009F0E2D6EFF0E2E6E200E47102F6E000EF8
:1037B0004810306E2D502F262E503022305006E10A
:1037C0001A0E2F5CD8B002D0010E01D0000E376E59
:1037D000386A37503810D8B40AD047C00BF048C008
:1037E0000CF0F1ECB1F00BC047F00CC048F0990EB2
:1037F0004524D96E010E4620DA6E47C0DFFF390638
:10380000D8A03A063B06D8A03C063DC02DF03EC0ED
:103810002EF03FC02FF040C030F041C031F042C028
:1038200032F043C033F044C034F0050E09D0D890D4
:10383000343233323232313230322F322E322D3274
:10384000E82EF5D72DC03DF02EC03EF02FC03FF042
:1038500030C040F031C041F032C042F033C043F0DC
:1038600034C044F046BE21D0465004E1020E455C0F
:10387000D8A01BD03D503E103F10401041104210C8
:1038800043104410D8A45BD73ABE05D03A5002E1A9
:103890003904D8B054D73CBE08D03C5003E13B04B7
:1038A000D8A003D000016CB34AD700016CA916D090
:1038B0004506D8A04606990E4524D96E010E46202D
:1038C000DA6E2CC0DFFF4506D8A04606990E4524C7
:1038D000D96E010E4620DA6E300EDF6E22C017F070
:1038E00023C018F0990E4524196E010E46201A6E59
:1038F0003BC01BF03CC01CF013ECABF017C022F037
:1039000018C023F012007C51D8A48CBA0ED0000E3F
:10391000136E000E146E000E156E000E166E000E65
:10392000176E000E186EBAECA3F0DEECB7F0828AC8
:103930000A0E276E03D0EAECB7F027062750D8A46A
:10394000FAD7000E246E000E0D6E000E0E6E000EE5
:103950000F6E000E106E400E80ECB2F0E806D8A498
:10396000B1D0AA0E0D6E010E0E6E000E0F6E000E7F
:10397000106E480E80ECB2F0E806D8A45CD0000EC1
:10398000276E27501D0FD96EDA6AEAECB7F0DF6EAA
:10399000272A030E2764F5D71F04D8A493D0AA0EB4
:1039A0002018D8A48FD0270E266E100E256E05D0B5
:1039B0005FECB7F02506D8A0260625502610D8B40F
:1039C0000ED0000E0D6E000E0E6E000E0F6E400E2D
:1039D000106EE90E80ECB2F00009D8A4E9D72550AA
:1039E0002610D8B46FD0000E0D6E000E0E6E000EB5
:1039F0000F6E000E106E7A0E80ECB2F00009D8A4A3
:103A000061D0000E276E27501D0FD96EDA6AEAECDE
:103A1000B7F0DF6E272A030E2764F5D71DBC04D04C
:103A2000000E226E040E03D0000E226E0C0E216ECC
:103A300021C024F047D0000E0D6E000E0E6E000E59
:103A40000F6E000E106EE90E80ECB2F01C6E020ECE
:103A50001C6004D0020E246EE90E03D0010E246E09
:103A6000410E236E270E266E100E256E05D05FECDC
:103A7000B7F02506D8A0260625502610D8B40ED0BB
:103A8000000E0D6E000E0E6E000E0F6E000E106E0C
:103A9000235080ECB2F00009D8A4E9D725502610B5
:103AA000D8B40ED0000E0D6E020E0E6E000E0F6E0C
:103AB000000E106E500E80ECB2F00009D8B402D0A7
:103AC000000E246E24C07CF0828AEAECB7F0245009
:103AD000D8A402D0010E1200000E12006BAF6C933E
:103AE0006BBF05D06B5108E16A05D8B005D0000E58
:103AF000356E010E346E04D06AC034F06BC035F000
:103B000068C036F069C037F024C038F025C039F0FD
:103B100026C03AF027C03BF028C03CF029C03DF059
:103B20002AC03EF02BC03FF0000E416E1F0E406ECB
:103B3000000E0101B86F76D04006D8A04106990E5C
:103B40004024D96E010E4120DA6E38C005F039C02C
:103B500006F03AC007F03BC008F03CC009F03DC099
:103B60000AF03EC00BF03FC00CF00A0E0D6E000EC6
:103B70000E6E000E0F6E000E106E000E116E000E17
:103B8000126E000E136E000E146E24ECA9F005C028
:103B90002CF006C02DF007C02EF008C02FF009C091
:103BA00030F00AC031F00BC032F00CC033F02C50B2
:103BB000300FDF6E3406D8A035063606D8A037069B
:103BC00038C005F039C006F03AC007F03BC008F035
:103BD0003CC009F03DC00AF03EC00BF03FC00CF005
:103BE0000A0E0D6E000E0E6E000E0F6E000E106EA1
:103BF000000E116E000E126E000E136E000E146E8B
:103C000081ECA6F005C038F006C039F007C03AF0E4
:103C100008C03BF009C03CF00AC03DF00BC03EF0CC
:103C20000CC03FF040504110D8B41BD03850391070
:103C30003A103B103C103D103E103F10D8A47CD7EA
:103C400035BE05D0355002E13404D8B075D737BE43
:103C500008D0375003E13604D8A003D000016CB37C
:103C60006BD722C017F023C018F0990E4024196EAC
:103C7000010E41201A6E36C01BF037C01CF013EC49
:103C8000ABF017C022F018C023F012000001D16F72
:103C90000001CC51D8B412000C0EC16FFE0EC26FE1
:103CA0007BECB6F0C90E0001C16FFE0EC26FCCC036
:103CB000C3F0C46B7BECB6F0F60E0001C16FFC0ED6
:103CC000C26F7BECB6F031D0510EC16FFF0EC26FE8
:103CD0007BECB6F046D0350EC16FFF0EC26F7BECA9
:103CE000B6F03FD0620EC16FFF0EC26F7BECB6F034
:103CF00038D0D70EC16FFE0EC26F7BECB6F031D05C
:103D0000B40EC16FFE0EC26F7BECB6F02AD0680E07
:103D1000C16FFE0EC26F7BECB6F023D06A0EC16F8E
:103D2000FF0EC26F7BECB6F01CD00001CC51CF6F00
:103D3000D06BD051000AD8A4F1D7CF51010AD8B422
:103D4000C3D7030AD8B4C7D7010AD8B4CBD7070A58
:103D5000D8B4CFD7010AD8B4D3D7030AD8B4D7D7A9
:103D6000DDD7B20E0001C16FFF0EC26F7BECB6F063
:103D70002AD09D0EC16FFF0EC26F7BECB6F03CD017
:103D8000D50EC16FFF0EC26F7BECB6F035D0CB0EF7
:103D9000C16FFF0EC26F7BECB6F02ED0970EC16FD5
:103DA000FF0EC26F7BECB6F027D0D00EC16FFF0EB6
:103DB000C26F7BECB6F020D06A0EC16FFF0EC26FEF
:103DC0007BECB6F019D00001D151CF6FD06BD05140
:103DD000000AD8A4F1D7CF51000AD8B4CAD7010A33
:103DE000D8B4CED7030AD8B4D2D7010AD8B4D6D71C
:103DF000070AD8B4DAD7E0D7F80E0001C16FFE0E7B
:103E0000C26F7BECB6F00001CD51CE11D8B40CD00E
:103E1000030EC16FFF0EC26F7BECB6F0CDC0C1F0D8
:103E2000CEC0C2F07BECB6F0A30E0001C16FFF0E56
:103E3000C26F7BECB6F012006EC035F06FC036F08A
:103E400026502510241004E1020E235CD8A010D0C7
:103E500020EE06F03550D9263650DA22DE50235CAB
:103E6000DE502458DE502558DE502658D8A0A4D065
:103E7000010E236E000E246E000E256E000E266EBF
:103E80001200310E136E146A20EE0AF03550D92656
:103E90003650DA22DECF27F0DECF28F0DECF29F051
:103EA000DECF2AF024502B6E25502C6E26502D6E1E
:103EB0002E6A27502B24156E28502C20166E295060
:103EC0002D20176E2A502E20186EFF0E23142F6EF1
:103ED000000E2414306ED8902F34196E30341A6EC0
:103EE000000E1C6E020E1B6E43ECA4F00009D8A459
:103EF000BFD7310E056ECFECB3F005C023F006C07E
:103F000024F0256A266A1200310E136E146A20EE20
:103F10000AF03550D9263650DA22DECF27F0DECF30
:103F200028F0DECF29F0DECF2AF023C02BF024C00A
:103F30002CF025C02DF026C02EF0080E05D0D8900C
:103F40002E322D322C322B32E82EF9D727502B244B
:103F5000156E28502C20166E29502D20176E2A50D1
:103F60002E20186E7F0E23142F6E000E2414306E38
:103F7000D8902F363036D8902F3630362FC019F0E3
:103F800030C01AF0000E1C6E040E1B6E43ECA4F041
:103F90000009D8A46DD7310E056ECCECA8F0FF0E49
:103FA0000514236EFF0E0614246EFF0E0714256EF3
:103FB0000F0E0814266E120035C0D9FF36C0DAFF86
:103FC000DF50276E286A2850000AD8A451D72750FE
:103FD000020AD8B456D7010AD8B496D749D76EC0CA
:103FE0003FF06FC040F03750D96EDA6ADECF38F05C
:103FF000DDCF39F0010E3824456E000E3920466EB3
:1040000045504610D8B40BD03750D96EDA6A0B0E33
:10401000D926DE50DE10DE10DE10D8A402D0030E4A
:10402000120045C038F00F0E3816D8A49BD0375078
:10403000D96EDA6A0B0ED926DE2A000EDE22DE22C7
:10404000DE223750D96EDA6A070ED926DE50DE102E
:10405000DE10DE10D8A40DD020EE04F03F50D9269B
:104060004050DA22DE50455CDE504658D8B0D7D7F3
:1040700079D045C038F046C039F0040E3A6ED89079
:10408000393238323A2EFBD7FF0E3B6EFF0E3C6EB4
:1040900020EE02F03F50D9264050DA22DF503D6E2C
:1040A0003E6A3B503D263C503E2238503D1639502A
:1040B0003E163D503E10D8A455D03750D96EDA6A1E
:1040C000070ED926DECF23F0DECF24F0DECF25F099
:1040D000DECF26F01CEC9FF023C041F024C042F05C
:1040E00025C043F026C044F044504310421006E17E
:1040F000020E415CD8B002D0010E120020EE06F094
:104100003F50D9264050DA22DE50415CDE50425802
:10411000DE504358DE504458D8B081D73750D96E5E
:10412000DA6A070ED92641C0DEFF42C0DEFF43C077
:10413000DEFF44C0DEFF41C011F042C012F043C0B8
:1041400013F044C014F0ADECA7F03750D96EDA6A22
:104150000B0ED92611C0DEFF12C0DEFF13C0DEFF3A
:1041600014C0DEFF3750D96EDA6A45C0DEFF46C0A4
:10417000DDFF000E1200000E1A6E000E196E000E0A
:10418000136E000E126E02D00C4A0D2A010E186E2C
:104190000CC0F6FF0DC0F7FF000EF86E0800F550DA
:1041A000200AD8B41AD0F70E0E6EFF0E0F6E0CC098
:1041B000F6FF0DC0F7FF000EF86E0800F550106E08
:1041C000116A0E5010260F501122115004E1050EF5
:1041D000105CD8A002D0000E186E18C014F0156A3A
:1041E00014501510D8B408D0CFD7000E136E010E9E
:1041F000126E0C4A0D2A32D00CC0F6FF0DC0F7FF2C
:10420000000EF86E0800F5500E6E0F6A0F50000A8F
:10421000D8A424D00E502B0AD8B4EBD7060AD8B4B1
:10422000E4D71CD019C005F01AC006F0000E086EC5
:104230000A0E076ECCECB5F00CC0F6FF0DC0F7FF10
:10424000000EF86E0800F550055E000E065A300E9E
:104250000524196E000E06201A6ECBD7D00E0E6EF6
:10426000FF0E0F6E0CC0F6FF0DC0F7FF000EF86ECC
:104270000800F550106E116A0E5010260F501122D2
:10428000115006E10A0E105CD8B002D0010E01D028
:10429000000E166E176A16501710D8A4C3D7125006
:1042A0001310D8A40DD019C00EF01AC00FF00E1EB6
:1042B0000F1E0E4A0F2A0EC00CF00FC00DF0120098
:1042C00019C00CF01AC00DF0120021EEBBF010EE78
:1042D00015F0060EDBCFE3FFE806FCE212C020F08B
:1042E00013C021F020502110D8A403D0150E206E49
:1042F000216A20C005F021C006F0A2ECB2F005C092
:1043000024F006C025F06AC022F06BC023F023BE63
:104310000ED02450225C2350800A146E2550800A4F
:104320001458D8B004D022C024F023C025F024C0F3
:1043300022F025C023F068C01EF069C01FF0000104
:104340006CA10DD016D0000E086E200E076E10C0A6
:1043500009F011C00AF0C2ECAEF0244A252A1E5022
:10436000245C2550800A146E1F50800A1458D8A06F
:10437000EAD7000E1D6E000E1C6E1FD020C0F6FF87
:1043800021C0F7FF000EF86E0E0EF76403D0080090
:10439000F55005D0F6CFE1FFF7CFE2FFE750146EFE
:1043A0001450076E086A10C009F011C00AF0C2EC80
:1043B000AEF0204A212A1C4A1D2A22501C5C1D50A6
:1043C000800A146E2350800A1458D8A0D7D7000151
:1043D0006CB10DD016D0000E086E200E076E10C006
:1043E00009F011C00AF0C2ECAEF0244A252A1E5092
:1043F000245C2550800A146E1F50800A1458D8A0DF
:10440000EAD724C010F025C011F0120002D04F4AA4
:10441000502A4FC0F6FF50C0F7FF000EF86E0E0E88
:10442000F76403D00800F55005D0F6CFE1FFF7CFD1
:10443000E2FFE750200AD8B4EAD74FC0F6FF50C0D9
:10444000F7FF000EF86E0E0EF76403D00800F5506B
:1044500005D0F6CFE1FFF7CFE2FFE7502F0AD8A44F
:1044600002D04F4A502A4D50D96EDA6A030ED9262F
:10447000DE6ADE6ADE6ADD6A4FC0F6FF50C0F7FF13
:10448000000EF86E0E0EF76403D00800F55005D04C
:10449000F6CFE1FFF7CFE2FFE750516E200E5160FB
:1044A0000BD04DC01CF02BECA3F0526E4E50D96EC9
:1044B000DA6A000EDF6E3DD04DC00BF04F0E0C6E71
:1044C000C2ECA4F0526E5250D8A433D04DC047F085
:1044D0004EC048F0ADECA5F0526E5250D8A429D091
:1044E0004D50D96EDA6A020ED926DF50D96EDA6ADB
:1044F0000B0ED926DF50D8A41CD04E50D96EDA6AE4
:104500000B0ED926DFB803D0030E526E12D04EC068
:104510000CF012ECADF04D50D96EDA6A030ED926CC
:104520000CC0DEFF0DC0DEFF0EC0DEFF0FC0DEFFE1
:10453000C3D752501200010EDF6FA5ECB5F005C0D5
:10454000E0F006C0E1F007C0E2F008C0E3F07FD081
:10455000A5ECB5F00001E051055CD76FE1510658BC
:10456000D86FE2510758D96FE3510858DA6FDA5122
:10457000D91109E1B80ED75D0B0ED859D8A08DAC72
:1045800002D0000EDF6FA5ECB5F00001DB51055C39
:10459000D76FDC510658D86FDD510758D96FDE51FF
:1045A0000858DA6FDA51D91106E12D0ED75D010EE8
:1045B000D859D8A018D083AE02D0010E01D0000E79
:1045C000FF0AD76FD733D7338350D7197F0BD7194B
:1045D000836EA5ECB5F005C0DBF006C0DCF007C0CB
:1045E000DDF008C0DEF0A5ECB5F00001E051055C9F
:1045F000D76FE1510658D86FE2510758D96FE35190
:104600000858DA6FDA51D91106E1B90ED75D0B0EF1
:10461000D859D8A01CD0DF51D8B419D0D451D51155
:10462000D611D8B414D0060E8919D8A404D0060E19
:104630008819D8B40CD001D80AD00500FA6ED4512C
:10464000FD6ED551FE6ED651FF6EFA5012005A50D3
:10465000D8A412007DD76EC025F06FC026F01C5084
:10466000D96EDA6A000EDE6E000EDD6E1C50D96E59
:10467000DA6A030ED926DECF27F0DECF28F0DECFB0
:1046800029F0DECF2AF02704281029102A10D8B4E8
:1046900010D020EE06F02550D9262650DA22DE5022
:1046A000275CDE502858DE502958DE502A58D8A002
:1046B00002D0010E12002750281029102A10D8A469
:1046C00016D025C0D9FF26C0DAFF030EDE18D8A405
:1046D0000ED020EE0EF02550D9262650DA22DECF5D
:1046E00027F0DECF28F0DECF29F0DECF2AF01C50F5
:1046F000D96EDA6A070ED92627C0DEFF28C0DEFF92
:1047000029C0DEFF2AC0DEFF2750281029102A10FA
:10471000D8A40FD020EE0EF02550D9262650DA224C
:10472000DECF21F0DECF22F0DECF23F0DECF24F08B
:1047300012D027C011F028C012F029C013F02AC0EF
:1047400014F0ADECA7F011C021F012C022F013C09C
:1047500023F014C024F01C50D96EDA6A0B0ED9264F
:1047600021C0DEFF22C0DEFF23C0DEFF24C0DEFF4B
:10477000000E1200010E196E13501410D8B421D07F
:1047800015C01AF016C01BF010D013C0D9FF14C00A
:10479000DAFFDF506EECB7F0134A142A0101670705
:1047A000D8A068071A06D8A01B061A501B10D8B448
:1047B00005D0010167516811D8A4E7D7000E196E22
:1047C00060D01550161017101810D8B425D000015D
:1047D0007CB708D0090ED89015361636173618361D
:1047E000E82EF9D715C00DF016C00EF017C00FF067
:1047F00018C010F0580E80ECB2F00009D8A441D0D7
:10480000FF0E6EECB7F0FE0E6EECB7F0020E01017B
:10481000686F000E676FD2D7020E010167251A6E0E
:10482000000E68211B6E03D0000E6EECB7F01A0666
:10483000D8A01B061A28F8E11B28D8A4F5D7EAEC63
:10484000B7F01F0B050AD8A419D0130E1B6E880EE3
:104850001A6E05D05FECB7F01A06D8A01B06EAEC7A
:10486000B7F0FF0AD8B404D01A501B10D8A4F2D75E
:104870001A501B10D8B402D0000E196E828AEAECCE
:10488000B7F01950120000017CB708D0090ED8907B
:104890001536163617361836E82EF9D7010E1F6E64
:1048A00015C00DF016C00EF017C00FF018C010F0B4
:1048B000510E80ECB2F00009D8A45FD09C0E226E9D
:1048C000400E216EEAECB7F0206E2028D8A407D065
:1048D0002106D8A0220621502210D8A4F3D7FE0E1C
:1048E0002018D8A44AD019C01DF01AC01EF01D1EF1
:1048F0001E1E1D4A1E2A1B501D5E1C501E5A020EF3
:104900001D24216E020E1E20226E19501A10D8B4DA
:1049100009D0EAECB7F01906D8A01A0619501A10F7
:10492000D8A4F7D713501410D8B411D0EAECB7F0CC
:1049300013C0D9FF14C0DAFFDF6E134A142A1B0616
:10494000D8A01C061B501C10D8B40CD0EFD7EAEC32
:10495000B7F066ECB8F01B06D8A01C061B501C1064
:10496000D8A4F5D7EAECB7F02106D8A0220621504A
:104970002210D8A4F7D7000E1F6E828AEAECB7F097
:104980001F5012000B50D96EDA6A020ED926DF5082
:10499000136E13C005F0000E076E200E066E000E9B
:1049A000096E0B0E086EF2ECB5F0000E146E14C01A
:1049B00012F0080E116E0C50D96EDA6ADECF0FF0CD
:1049C000DDCF10F012500F240D6E000E10200E6E71
:1049D0000DC0F6FF0EC0F7FF000EF86E0E0EF76466
:1049E00003D00800F55005D0F6CFE1FFF7CFE2FF86
:1049F000E750156E122A200E156422D02F0E1518BE
:104A0000D8B41ED02E0E1518D8B404D01150145C92
:104A1000D8A00FD0080E1118D8A412D02E0E151839
:104A2000D8A40ED0080E146E0B0E116ECBD7142A1C
:104A3000C9D713501424D96EDA6A15C0DFFFF7D72F
:104A400012500F240D6E000E10200E6E0C50D96EF9
:104A5000DA6A0DC0DEFF0EC0DDFF1350D96EDA6AD0
:104A60000B0ED926200E156401D002D0010E01D004
:104A7000000EDF6E000E120023C013F0146A24C073
:104A800015F025C016F026C017F027C018F0010E4B
:104A90001A6EFE0E196E000E1C6E020E1B6E43EC9B
:104AA000A4F00009D8B402D0030E120023C005F010
:104AB000CFECB3F0550E051804E1AA0E0618D8B4D1
:104AC00002D0020E120023C013F0146A24C015F0A5
:104AD00025C016F026C017F027C018F0000E1A6E79
:104AE000360E196E000E1C6E020E1B6E43ECA4F007
:104AF0000009D8A40DD023C005F0CFECB3F0460ECA
:104B0000051806E1410E0618D8A402D0000E1200C6
:104B100023C013F0146A24C015F025C016F026C077
:104B200017F027C018F0000E1A6E520E196E000E04
:104B30001C6E020E1B6E43ECA4F00009D8A40BD02F
:104B400023C005F0CFECB3F0460E051804E1410E8A
:104B50000618D8B4DBD7010E120047C01CF02BECAE
:104B6000A3F04C6E4C50D8B402D04C50120048C048
:104B700013F0146A4750D96EDA6A0B0ED926DECFCD
:104B800015F0DECF16F0DECF17F0DECF18F047506D
:104B9000D96EDA6ADECF49F0DDCF4AF00F0E491642
:104BA000000E4A16050ED89049364A36E82EFBD735
:104BB00049C019F04AC01AF0000E1C6E200E1B6E80
:104BC00043ECA4F00009D8B402D0010E01D0000ECD
:104BD0004C6E4C50D8A4C9D74850D96EDA6ADF5011
:104BE0004B6E4B50D8A403D0030E4C6EBED748502A
:104BF000D96EDA6A0B0ED926DFB613D048C005F09D
:104C00004750D96EDA6A020ED926DF50066E000EC2
:104C1000086E0B0E076E7DECB0F005500610D8B490
:104C2000A4D747C037F0EFEC9FF04C6E4C50D8A49F
:104C30009CD79DD76EC0DBF06FC0DCF00001DB516C
:104C4000DC11D8A402D0050E120020EE01F0DB51D9
:104C5000D926DC51DA22000EDF6ECE0EDF6FDD0EBC
:104C60004D6EAE0E4E6E53C04FF054C050F006EC79
:104C7000A2F00001DA6FDA51D8B402D0DA51120092
:104C8000AE51D8B402D0B9A902D0030E1200AE0EB4
:104C90000C6E12ECADF0000120EE1EF0DB51D926B7
:104CA000DC51DA220CC0DEFF0DC0DEFF0EC0DEFFDD
:104CB0000FC0DEFFCA0E056ECCECA8F0000120EE9E
:104CC0001AF0DB51D926DC51DA2205C0DEFF06C01E
:104CD000DEFF07C0DEFF08C0DEFF20EE16F0DB516E
:104CE000D926DC51DA22DE6ADE6ADE6ADD6A20EE6F
:104CF00001F0DB51D926DC51DA22010EDF6E000E05
:104D0000120020EE15F0070EDE6AE806FDE20D50F7
