:040000005AEF00F0C3
:100008005B82FACF01F0FBCF02F0D9CF03F0DACF51
:1000180004F00E01BDBBC5AB03D03EECB6F03CD03E
:10002800F2AC3AD0C0BDC8AD0BD001D835D0050070
:10003800FA6E01015151FD6E5251FE6E535129D095
:10004800C0BFC8AF0BD001D827D00500FA6E010198
:100058004E51FD6E4F51FE6E50511BD0C0B9C8A90C
:100068000BD001D819D00500FA6E01016051FD6E60
:100078006151FE6E62510DD0C0BBC8AB0DD001D826
:100088000BD00500FA6E01015D51FD6E5E51FE6EEA
:100098005F51FF6EFA50120004C0DAFF03C0D9FFA7
:1000A80002C0FBFF01C0FAFF5B921100CEEFA8F07F
:10F2C20000B07001507001427001165801EA5B01F2
:10F2D200A670014660010C7101047101FC7001F419
:10F2E2007001EC7001E47001DC70019C70010E632E
:10F2F200011F1C1F1E1F1E1F1F1E1F1E1F0004009A
:10F3020000001000000004000000040000000400DF
:10F312000000040000000400000004000000C00718
:10F322000001409F00F84EFC20FC30FC107C204085
:10F332004E714E0027724E63020E0D0C0B0A04FA38
:10F342004FF90007FFFA43FA0480610002E061000E
:10F3520003F8B03C000266000038203C000005A81B
:10F3620041F90007C04443F9000F800012D851C888
:10F37200FFFC4FF9000FBFFE247C000F7FFF4EF908
:10F38200000F800043FA04D3610002A26000002A49
:10F39200B03C00016600001443FA04B96100028E19
:10F3A200247C0007BFFF6000001043FA04A1610043
:10F3B200027C247C0001BFFF103A040AB03C000129
:10F3C2006700000E43FA04B5610002626000000AA1
:10F3D20043FA048E6100025643FA041A6100024E97
:10F3E2006100032E42856100023061000260B03C80
:10F3F2000053670000587A036000002CB03C000AFA
:10F4020066000040700D6100024460000036610039
:10F41200020861000238B03C000D66E0700A61002B
:10F42200022C4A0567C0BA3C000167000240BA3CA0
:10F43200000267000248BA3C000367000250600005
:10F4420002E8B03C00536700000460C2610001CAD8
:10F45200610001FAB03C003067B4B03C0031670093
:10F46200001CB03C00326700005CB03C0035679E77
:10F47200B03C0038670000AC600001E242847401D5
:10F4820061000128D8013601594374036100011C4F
:10F49200D801E059D801E059204174016100010C02
:10F4A200D8011081B218670000047A0151CBFFEC39
:10F4B20046047401610000F4B8016700FF527A0249
:10F4C2006000FF4C4284343C0001610000DED80140
:10F4D20036015B43343C0005610000D0D801E0995D
:10F4E200D801E099D801E099E0992041343C00012B
:10F4F200610000B8D801610001F01081B218670004
:10F5020000061A3C000151CBFFE44604343C0001E2
:10F5120061000098B8016700FEF61A3C0002600024
:10F52200FEEE4284343C000161000080D8013601C5
:10F532005B43343C000561000072D801E099D801B8
:10F54200E099D801E099E09920414604343C000159
:10F5520061000058B8016700000A1A3C000260000E
:10F56200FEAE43FA02AB610000C443FA02C261007C
:10F5720000BC6100019C43FA02CF610000B043FA73
:10F58200028F610000A843FA0291610000A02C08DA
:10F592006100014243FA022F610000926100014AB8
:10F5A20043FA0223610000864ED04281616A610003
:10F5B200009C6118B03C00FF660000087A036000FE
:10F5C200FE66E989D20051CAFFE44E75B03C00667E
:10F5D2006200002AB03C006062000038B03C004685
:10F5E2006200001AB03C004062000018B03C0039D2
:10F5F2006200000AB03C002F6200001070FF600041
:10F602000016040000376000000E040000306000A5
:10F612000006040000574E751039000FFFFE080067
:10F62200000267F41039000FFFFD4E752F0010190C
:10F63200B03C00006700001213FC0001000FFFFD48
:10F6420013C0000FFFFC60E6201F4E7513FC000183
:10F65200000FFFFD13C0000FFFFC4E7543FA01B10E
:10F6620061CA43FA026D61C4600000BE43FA01A19F
:10F6720061BA43FA027661B4600000AE43FA0191C6
:10F6820061AA43FA028161A46000009E43FA0181EB
:10F69200619A43FA028361946000008E0247000F70
:10F6A200BE3C0009650000045E070647003013FCFB
:10F6B2000001000FFFFD13C7000FFFFC4E751E0671
:10F6C200E81F61D81E0661D44E75E09E61F0E19E8E
:10F6D20061EC4E75484661E6484661EE4E75484615
:10F6E20061E8484661E44E75B1CA620000044E7595
:10F6F20043FA011D6100FF3643FA019C6100FF2EAF
:10F702002C0861D043FA00BF6100FF226000001A9A
:10F712001039000FFFFE080000026700000A1039CE
:10F72200000FFFFD60EA4E7543FA017F6100FEFEA5
:10F7320023FC000000010000002023FC0000000167
:10F742000000000C4E7207001039000FFFFE080087
:10F7520000036600003A41FA006C421013FC0055A7
:10F76200000FBFF01039000FBFF0B03C005566002B
:10F77200001E13FC00AA000FBFF01039000FBFF0EB
:10F78200B03C00AA66000008103C00024E7513FC53
:10F7920000550001AFF010390007AFF0B03C005542
:10F7A2006600001C13FC00AA0001AFF0103900072C
:10F7B200AFF0B03C00AA6600000642004E75103C55
:10F7C20000014E75010D0A00734C6F6164202D20FB
:10F7D200532D7265636F7264204C6F616465722091
:10F7E2002D20533138303232312D523135303532CD
:10F7F200310D0A0057616974696E6720696E707510
:10F80200742073747265616D2E2E2E0D0A0A000D1E
:10F812000A734C6F61643A20005374617274696EAA
:10F822006720416464726573733A20307800466CD5
:10F83200757368696E6720696E707574206275668B
:10F842006665722E2E2E0020646F6E65003132388E
:10F852004B42003531324B4200313032344B4200A0
:10F86200202D204C69746520485720636F6E6669AD
:10F872006775726174696F6E0D0A00202D204675DE
:10F882006C6C20485720636F6E666967757261748D
:10F89200696F6E0D0A00496C6C6567616C2041648A
:10F8A200647265737320307800734C6F61643A2020
:10F8B2004C6F616465722061626F72746564202DA1
:10F8C2002053797374656D2068616C7465640D0AE8
:10F8D20000496C6C6567616C20532D7265636F72B1
:10F8E200642074797065210D0A0052414D207772AF
:10F8F20069746520766572696679206661696C65EE
:10F9020064210D0A00436865636B73756D2065722F
:10F91200726F72210D0A00496C6C6567616C20631D
:10F922006861726163746572210D0A004E6F762000
:10F93200323320323032310031383A34353A3237CC
:10F94200000D0A0A36386B2D4D4243202D204130DE
:10F9520039313032302D523134303232310D0A49A0
:10F962004F53202D20492F4F2053756273797374A2
:10F97200656D202D20533331303132312D523039E3
:10F98200313132315F444556454C330D0A0A000D80
:10F992000A507265737320435220746F206163634F
:10F9A2006570742C2045534320746F206578697408
:10F9B200206F7220616E79206F74686572206B65AA
:10F9C2007920746F206368616E67650D0A0A0043CF
:10F9D20068616E676564207370656564732077691A
:10F9E2006C6C206265206566666563746976652065
:10F9F2006166746572206E657874207265626F6FDD
:10FA020074210D0A0A000D0A507265737320542F77
:10FA12005520746F20696E6372656D656E74202B5C
:10FA220031302F2B31206F7220435220746F2061AE
:10FA320063636570740D0A000D0A494F533A2053EF
:10FA4200656C65637420626F6F74206D6F646520EE
:10FA52006F722073797374656D20706172616D6568
:10FA6200746572733A0D0A000A0D494F533A2043E6
:10FA720050552062757320666174616C20657272E4
:10FA82006F7220636F64653A202575202D204162D4
:10FA92006F727465640A0D00494F533A20417574C0
:10FAA2006F626F6F74206C6F61642030782530351F
:10FAB2006C78202D20657865632030782530356C90
:10FAC20078200A0D00494F533A20436865636B2042
:10FAD200534420616E642070726573732061206BE1
:10FAE200657920746F207265706561740D0A0A0071
:10FAF200494F533A20456D75544F53206C6F6164E2
:10FB02002030782530356C78202D2065786563208B
:10FB120030782530356C78200A0D000D0A0A494FDD
:10FB2200533A2042617564207265636F766572791B
:10FB3200202D20506C65617365207265626F6F7451
:10FB4200206E6F7721000A446F20796F75207761EC
:10FB52006E74207365742052544320617420494F9F
:10FB62005320636F6D70696C652074696D65202820
:10FB720000494F533A2052544320445333323331D5
:10FB82002074656D70657261747572652073656E3F
:10FB9200736F723A202575430D0A00494F533A207C
:10FBA2003638303038204350552069732072756ED4
:10FBB2006E696E672066726F6D206E6F770A0A0D2E
:10FBC20000494F533A204C69746520485720636FAF
:10FBD2006E66696775726174696F6E2064657465BB
:10FBE200637465640A0D00494F533A2046756C6C84
:10FBF20020485720636F6E66696775726174696F1A
:10FC02006E2064657465637465640A0D00494F5320
:10FC12003A205254432073657420617420636F6DDF
:10FC220070696C652074696D65202D204E6F773A7E
:10FC320020000D0A0A494F533A20456D707479200D
:10FC420066696C65202D204C6F61642061626F7261
:10FC5200746564210020363A204368616E6765202E
:10FC620073657269616C20706F7274732073706552
:10FC720065640D0A00494F533A20466F756E642041
:10FC820052544320445333323331204D6F64756CE8
:10FC9200652028000A0A0D494F533A20556E6B6EB3
:10FCA2006F776E20495251202D2041626F72746528
:10FCB20064000D0A494F533A20525443206D616E3D
:10FCC20075616C2073657474696E673A0D0A004938
:10FCD2004F533A2052544320646174652F74696D06
:10FCE20065207570646174656420280020373A20AD
:10FCF2004368616E67652043502F4D204175746FD4
:10FD02006578656320282D3E0020383A20436861DB
:10FD12006E6765205254432074696D652F64617467
:10FD2200650D0A00494F533A2052544320636C6FC9
:10FD3200636B206661696C757265210D0A00494F1B
:10FD4200533A204C6F6164696E6720626F6F742052
:10FD520070726F6772616D0020323A20456E686181
:10FD62006E6365642036384B2042617369630D0A05
:10FD720000494F533A20466F756E64204750452024
:10FD82004F7074696F6E0D0A00494F533A20435009
:10FD92002F4D204175746F6578656320697320006B
:10FDA2000D20202020202020202020202020202064
:10FDB2002020202000456E74657220796F757220B4
:10FDC20063686F696365203E002020202020202088
:10FDD200202020202020202020200D0020343A2026
:10FDE2004C6F6164204F532066726F6D2000202E8D
:10FDF2002E2E646F6E652020202020200D0A000D1B
:10FE02000A494F533A205344206572726F722000A0
:10FE12000D202D3E53657269616C2025753A2000D4
:10FE220020303A204E6F206368616E67652028009B
:10FE320020333A204175746F626F6F740D0A000DA2
:10FE42000A20353A204368616E67652000494F53A6
:10FE52003A2043757272656E7420004E4F5F4649B8
:10FE62004C4553595354454D004155544F424F4F01
:10FE7200542E42494E004155544F424F4F542E4149
:10FE820044520020313A20734C6F61640D0A0053D2
:10FE920065636F6E6473202D3E20004D696E75742C
:10FEA2006573202D3E20004E4F545F454E41424C1B
:10FEB2004544004469736B205365742025750029FD
:10FEC2003F205B592F4E5D203E004E4F545F4F50F6
:10FED200454E4544004542415349432E42494E0056
:10FEE200454D55544F532E42494E00454D55544FA2
:10FEF200532E41445200206F7065726174696F6EB7
:10FF020000202D2046696C653A20004D6F6E7468A2
:10FF1200202D3E2000486F757273202D3E20000D6B
:10FF220020446179202D3E200043504D36382E4228
:10FF3200494E004E4F545F524541445900256320BB
:10FF4200204F6B0D0A0059656172202D3E2000443E
:10FF520049534B5F4552520020646F6E650A0D0093
:10FF62004E4F5F46494C4500554E4B4E4F574E0043
:10FF7200313135323030002575290D0A004F4646A1
:10FF82000D0A00202825732900313932303000351E
:10FF920037363030005752495445004D4F554E5474
:10FFA20000290D0A0A004F4E0D0A0025630D0A00B2
:10FFB200206F6E2000313230300032343030003960
:10FFC200363030000D202D3E00524541440053454D
:10FFD200454B004F50454E0020204F6B002E2E2ED9
:10FFE20000333030004F4646006C58006C6E006C97
:0DFFF20075006C78004F4E002F003A0000A3
:020000040001F9
:1000000013ECB4F0000E01013E6F000E3F6F000EC6
:10001000406F000E416F6C0E056E700E066E010E85
:10002000076ED4ECB7F0F28EF28CCE0E0F01096F92
:10003000CF0E196F000E1E6FFD0E266F43ECB8F049
:1000400000018D6F8D51D8B407D062ECB8F0000E6E
:100050000001FD6F010E8C6F8390090E0001F36F9C
:100060001E0EF26FE40EE82EFED7F22FFCD7F32F10
:10007000FAD700F08380290E0001F36F960EF26F1D
:100080007F0EE82EFED7F22FFCD7F32FFAD78DBCC8
:1000900003D0010E00018B6F000E066E0C0E056E74
:1000A00084ECB7F00001826F010E82650BD0000E68
:1000B0000A6E0C0E096E000E0B6E55ECB5F0000EBC
:1000C0000001826F000E066E0D0E056E84ECB7F017
:1000D0000001876F060E87650AD0060E876F000E37
:1000E0000A6E0D0E096E87C00BF055ECB5F0000ED0
:1000F000066E0E0E056E84ECB7F00001866F060EDC
:1001000086650AD0060E866F000E0A6E0E0E096E08
:1001100086C00BF055ECB5F0000187512BECADF02B
:1001200006C005F0066A05509B6E000187512BEC56
:10013000ADF005509A6E000186512BECADF006C073
:1001400005F0066A05500E01976F000186512BECF1
:10015000ADF005500E01966F430E0001C16FF90E10
:10016000C26FDAECB6F000018D51D8B407D0C30EDF
:10017000C16FFB0EC26FDAECB6F006D0E90EC16FAC
:10018000FB0EC26FDAECB6F0110E0001F36F3C0EFD
:10019000F26FCB0EE82EFED7F22FFCD7F32FFAD753
:1001A0008FECB7F069EC9AF000017B6F200E5DECEC
:1001B000B1F00009D8A402D0010E7D6F7D51D8B4F2
:1001C00006D0730EC16FFD0EC26FDAECB6F08B0E67
:1001D0000001C16FFD0EC26FDAECB6F0000E066EC4
:1001E0000B0E056E84ECB7F00001F26F010EF265A4
:1001F00008D0000E0A6E0B0E096E000E0B6E55EC49
:10020000B5F0000E066E0B0E056E84ECB7F0000123
:10021000806F8051D8B407D0A80EC16FFF0EC26F97
:10022000DAECB6F006D07F0EC16FFF0EC26FDAECCB
:10023000B6F0710E3E6E010E3F6E99ECB7F0710E86
:100240003E6E010E3F6E99ECB7F0000E066E0A0E80
:10025000056E84ECB7F000018A6F8B05D8B406D028
:10026000030E8A6524D202D023ECB3F05A50D8A4EE
:10027000FBD73A0E0001C16FFA0EC26FDAECB6F08E
:10028000030E00018A650BD0000E0A6E0A0E096E7D
:10029000000E0B6E55ECB5F0000E00018A6F220EB9
:1002A000C16FFE0EC26FDAECB6F0790E0001C16FBD
:1002B000FF0EC26F010E8A25C36FC46B000EC423EC
:1002C000DAECB6F0850E0001C16FFE0EC26FDAECFB
:1002D000B6F05A0E0001C16FFD0EC26FDAECB6F037
:1002E000320E0001C16FFE0EC26FDAECB6F0DE0E08
:1002F0000001C16FFD0EC26FDAECB6F00001825151
:1003000082ECB0F0410E0001C16FFE0EC26FDAEC5C
:10031000B6F00001825182ECB0F0FE0E0001C16F18
:10032000FD0EC26FDAECB6F0570E0001C16FFC0E85
:10033000C26FDAECB6F0EE0E0001C16FFC0EC26FB8
:10034000DAECB6F000018051D8A407D0F70EC16FE7
:10035000FF0EC26FDAECB6F006D0E70EC16FFF0EEB
:10036000C26FDAECB6F07B0E0001C16FFF0EC26FF8
:10037000DAECB6F000017B51D8B409D00B0EC16F96
:10038000FD0EC26FDAECB6F0380E0001FC6FFE0E07
:10039000C16FFD0EC26FDAECB6F0B70E0001C16F8F
:1003A000FD0EC26FDAECB6F0C80E0001D46F590E24
:1003B000D56F010ED66FFAECA2F023ECB3F0586EB5
:1003C0002F0E5864F1D758500001FC5DD8A0ECD72F
:1003D0003F0EC16FFF0EC26F58C0C3F0C46BDAECA2
:1003E000B6F037D1B6ECB7F082C057F05728010B02
:1003F000576EC60E0001C16FFF0EC26FDAECB6F089
:10040000575082ECB0F0CB0E0001C16FFD0EC26FF1
:10041000DAECB6F002D023ECB3F05A50D8A4FBD7F4
:10042000000E0001D46F000ED56F000ED66FFAECEF
:10043000A2F023ECB3F0586E0D0E5818D8B404D0C7
:100440001B0E5818D8A4D2D7040E0001C16FFA0EA3
:10045000C26FDAECB6F00D0E5818D8A40FD157C001
:1004600082F0000E0A6E0C0E096E57C00BF055ECB0
:10047000B5F004D1000E886F010E896F020E8965F8
:1004800001D0C3D0B6ECB7F000018905D8A407D0DD
:10049000000E066E0D0E056E84ECB7F006D0000E51
:1004A000066E0E0E056E84ECB7F0576E5706572A8F
:1004B000060E576402D0000E576EA20E0001C16FE7
:1004C000FD0EC26FDAECB6F0120E0001C16FFE0E27
:1004D000C26F89C0C3F0C46BDAECB6F031D0E30E62
:1004E000C16FFF0EC26FDAECB6F04BD0B70EC16F22
:1004F000FF0EC26FDAECB6F044D0BC0EC16FFF0E37
:10050000C26FDAECB6F03DD0C10EC16FFF0EC26F04
:10051000DAECB6F036D08B0EC16FFF0EC26FDAEC9C
:10052000B6F02FD0910EC16FFF0EC26FDAECB6F0AD
:1005300028D0720EC16FFF0EC26FDAECB6F021D078
:1005400057500001F26FF36BF351000AD8A419D091
:10055000F251000AD8B4C3D7010AD8B4C7D7030AE6
:10056000D8B4CBD7010AD8B4CFD7070AD8B4D3D7D9
:10057000010AD8B4D7D7030AD8B4DBD702D023EC0A
:10058000B3F05A50D8A4FBD7000E0001D46F000E70
:10059000D56F000ED66FFAECA2F023ECB3F0586ED4
:1005A0000D0E5818D8B404D01B0E5818D8A47FD7F5
:1005B0000D0E5818D8A41FD0DA0E0001C16FFF0E1F
:1005C000C26FDAECB6F000018905D8A409D0000E9C
:1005D0000A6E0D0E096E57C00BF055ECB5F008D041
:1005E000000E0A6E0E0E096E57C00BF055ECB5F0FA
:1005F00000018825886F060E0001C16FFA0EC26FD8
:10060000DAECB6F00001892B39D7FE0EC16FFD0E72
:10061000C26FDAECB6F000018851D8B42FD0D10EF9
:10062000C16FF90EC26FDAECB6F028D08051D8A4B1
:1006300002D0010E01D0000E806F000E0A6E0B0E6C
:10064000096E80C00BF055ECB5F018D08CEC8FF033
:1006500015D058500001F26FF36BF351000AD8A483
:100660000DD0F251350AD8B4BDD6030AD8B402D79A
:10067000010AD8B4DBD70F0AD8B4E8D7839E585004
:10068000CF0F00018A6F040E8A6109D0000E0A6E36
:100690000A0E096E8AC00BF055ECB5F008D0000EBA
:1006A000066E0A0E056E84ECB7F000018A6F030E29
:1006B00000018A19D8A422D14F0EC16FFE0EC26F5D
:1006C000DAECB6F00001825182ECB0F0FE0E0001CF
:1006D000C16FFD0EC26FDAECB6F010D1420E01010F
:1006E000696FF30E6A6FEC0E2E6F050E2F6F000E02
:1006F000306F000E316F000E0001606FC00E616F31
:10070000070E626F000E636F000E646FC00E656FA0
:10071000070E11D0D70E766FFE0E776F000E606F4A
:10072000040E616F000E626F000E636F000E646F47
:10073000040E656F000E666F000E676FF4D0000E3A
:10074000606F040E616F000E626F000E636F000E2B
:10075000646F040E656F000E666F000E676F780E93
:10076000766FFE0E776F780E556EFE0E566EC6ECE7
:10077000B7F00009D8A439D0A00E446E060E456E1D
:10078000A20E466E83ECB5F0A35104E1070EA25D04
:10079000D8A02BD0A00E376E060E386E9E0E396E86
:1007A0003A6A000E3C6E100E3B6E62ECB4F037C03D
:1007B00060F038C061F039C062F03AC063F09EC0AA
:1007C00037F09FC038F0000E396E000E3A6E000E02
:1007D0003C6E100E3B6E62ECB4F037C064F038C073
:1007E00065F039C066F03AC067F09A0E0001C16F3B
:1007F000FA0EC26F60C0C3F061C0C4F062C0C5F041
:1008000063C0C6F064C0C7F065C0C8F066C0C9F078
:1008100067C0CAF0DAECB6F06B0E0001766FFE0E20
:100820005CD02B0E766FFF0E78D7ED0E766FFE0E36
:10083000776F76C0ECF077C0EDF047ECA7F0A00E34
:10084000446E060E456EA20E466E83ECB5F0A00E09
:10085000376E060E386E9E0E396E3A6A000E3C6E8A
:10086000100E3B6E62ECB4F037C060F038C061F03F
:1008700039C062F03AC063F09EC037F09FC038F0D4
:10088000000E396E000E3A6E000E3C6E100E3B6E7E
:1008900062ECB4F037C064F038C065F039C066F07F
:1008A0003AC067F0F20E0001C16FFA0EC26F60C06D
:1008B000C3F061C0C4F062C0C5F063C0C6F064C0DC
:1008C000C7F065C0C8F066C0C9F067C0CAF0DAEC0E
:1008D000B6F0E20E0001766FFE0E776F24D08251E3
:1008E000F26FF36BF351000AD8A41DD0F251000A45
:1008F000D8B497D7010AD8B498D715D000018A5137
:10090000F26FF36BF351000AD8A40DD0F251000A34
:10091000D8B4E4D6010AD8B4FDD6030AD8B40FD7A8
:10092000010AD8B4DCD7400EC16FFD0EC26FDAECFD
:10093000B6F000018A51D8B410D0850EC16FFF0EF9
:10094000C26F76C0C3F077C0C4F0DAECB6F076C000
:10095000ECF077C0EDF047ECA7F0DF0EC16FFF0EB3
:10096000C26FDAECB6F0000EE9ECAEF0000EE9EC86
:10097000AEF0100EE9ECAEF0000EE9ECAEF0000EB9
:10098000E9ECAEF0000EE9ECAEF0040EE9ECAEF0EE
:10099000000EE9ECAEF0200EE9ECAEF07C0EE9ECD6
:1009A000AEF0000EE9ECAEF0000EE9ECAEF0000E99
:1009B000E9ECAEF0000EE9ECAEF0200EE9ECAEF0A2
:1009C000FC0EE9ECAEF0000EE9ECAEF0000EE9EC46
:1009D000AEF0100EE9ECAEF0000EE9ECAEF0200E39
:1009E000E9ECAEF0FC0EE9ECAEF071ECAEF000011B
:1009F0006751E9ECAEF000016651E9ECAEF00001A0
:100A00006551E9ECAEF000016451E9ECAEF0200E66
:100A1000E9ECAEF07C0EE9ECAEF071ECAEF000016A
:100A20006351E9ECAEF000016251E9ECAEF0000177
:100A30006151E9ECAEF000016051E9ECAEF000016B
:100A40008A51D8B47AD0A00E446E060E456EA20E1E
:100A5000466E83ECB5F0836FA251A311D8B402D0D7
:100A6000000EFA6F000E716F000E706F37D0200EFF
:100A7000E9ECAEF0FC0EE9ECAEF071ECAEF0A00EDD
:100A800000017025D96E060E7121DA6EDF50E9EC97
:100A9000AEF0A10E00017025D96E060E7121DA6E3E
:100AA000DF50E9ECAEF0A20E00017025D96E060E03
:100AB0007121DA6EDF50E9ECAEF0A30E0001702573
:100AC000D96E060E7121DA6EDF50E9ECAEF0040E3D
:100AD00000017025706F000E7121716FA251705D61
:100AE000A3517159D8A0C3D7020EA319A211D8A43B
:100AF00003D08351D8B4A7D78351D8B411D083C0C1
:100B0000CCF076C0CDF077C0CEF0020EA5EC9EF012
:100B100075ECB6F0000E4D6E000E4C6E7BECB4F032
:100B20008351D8A490D7FA51D8B441D0340EC16FB4
:100B3000FC0EC26FDAECB6F0FFD7000E0101326F87
:100B4000000E336F000E346F000E356F26D0100E7E
:100B5000E9ECAEF0FC0EE9ECAEF071ECAEF0000E9C
:100B6000E9ECAEF00101325169250001F26F01019B
:100B700033516A210001F36FF2C0F6FFF3C0F7FFB3
:100B8000000EF86E0800F550E9ECAEF0010E010120
:100B90003227000E3323342335232E51325D2F515B
:100BA00033593051345931513559D8A0D0D74E0E20
:100BB000E9ECAEF0720EE9ECAEF071ECAEF0270E9F
:100BC000E9ECAEF0000EE9ECAEF05A0E0001C16F98
:100BD000FF0EC26FDAECB6F0869286900E012851B5
:100BE0000209286F150E0001F26FC60EE82EFED71F
:100BF000F22FFCD700F0868286809D0E0001C16F27
:100C0000FB0EC26FDAECB6F00E0127AB07D18CB247
:100C10003DD08EA204D00001F26BF22B02D0000175
:100C2000F26B8EA402D0010E01D0000E020DF35023
:100C3000F225926F8FCF59F00AD0C1EC8AF018D00C
:100C400059C0FFF0000E796F000E786F11D09251ED
:100C5000F26FF36BF351000AD8A40AD0F251000AE4
:100C6000D8B4EBD7010AD8B4EBD7030AD8A4010A49
:100C7000F29E0E0132518009326F00F000F000F058
:100C80000E0132517F0B326FF28EC8D08DB684D0F8
:100C90008EA204D00001F26BF22B02D00001F26BA5
:100CA0008EA402D0010E01D0000E020DF350F225E9
:100CB000926F000E596E3FD05CEC97F050D059689F
:100CC0005A50D8B403D023ECB3F033D0868447D045
:100CD0009351D8B403D0F26BF22B02D00001F26B27
:100CE000050EF36FD890F237F32FFCD78DC0F4F0D8
:100CF000D890F437D890F437D890F4375A50D8B405
:100D000003D0F56BF52B02D00001F56BD890F537C9
:100D1000D890F5377B517B25F511F411F211801134
:100D20001009596E1CD059689351D8B4CFD799EC9B
:100D3000B2F0596ECBD79251F26FF36BF351000AB8
:100D4000D8A40DD0F251000AD8B4B6D7010AD8B44D
:100D5000B6D7030AD8B4BCD7010AD8B4E4D7869270
:100D600000018CB102D0829001D08280000E8A6E88
:100D700059C085FF0E0132518009326F00F000F03A
:100D800000F000F000F000F08A680001FDB102D030
:100D9000829001D082803DD000018E51D8B406D01F
:100DA000420E596E000E8E6F868418D05A50D8B4F9
:100DB00005D09151D8B402D0400E07D09351D8B489
:100DC00006D09051D8B403D0410E596E07D0960E7C
:100DD000C16FFC0EC26FDAECB6F0FFD786928CB111
:100DE00002D0829001D08280000E8A6E59C085FFA9
:100DF0000E0132518009326F00F000F000F000F077
:100E000000F000F08A680001FDB102D0829001D0AC
:100E100082800E0132517F0B326F86825A50D8B4D5
:100E200004D000019151D8A4869400019351D8B404
:100E300003D09051D8A486948F51D8B4E5D604EC51
:100E4000B6F001013A51055C0001F26F01013B511E
:100E500006580001F36F01013C5107580001F46F7F
:100E600001013D5108580001F56FFEC0F6F0F76B27
:100E7000F86BF96BF251F65DF351F759F451F859EB
:100E8000F551F959D8B0C0D68694010E8E6F04EC96
:100E9000B6F005C03AF106C03BF107C03CF108C00E
:100EA0003DF1B2D64B50D96EDA6ADECFF6FFDDCF18
:100EB000F7FF000EF86E0800F550250AD8A447D3B6
:100EC0004B50D96EDA6ADE2A000EDD22000E0001D8
:100ED000696F000E686F68C06CF069C06DF06A6978
:100EE0006B69000EB16F000E13D06C814B50D96E40
:100EF000DA6ADE2A000EDD222FD06C83F7D76C85EC
:100F0000F5D76C87F3D76C89F1D7000EB16F010E5E
:100F1000B06F22D04B50D96EDA6ADECFF6FFDDCF4C
:100F2000F7FF000EF86E0800F5504D6E4E6A4E50F9
:100F3000000AD8A4EAD74D50200AD8B4E2D7030A51
:100F4000D8B4E1D7080AD8B4DAD7060AD8B4CDD7CE
:100F50001D0AD8B4D2D7D9D7B051B111D8B4DAD785
:100F60006CB16C934B50D96EDA6ADECFF6FFDDCFF1
:100F7000F7FF000EF86E0800F5502A0AD8A41AD020
:100F80004B50D96EDA6ADE2A000EDD224C50D96E43
:100F9000DA6A020EDF26DF5CD96EDA6ADECF68F02D
:100FA000DECF69F069AF3FD06C81686D691FD8B042
:100FB000692B39D04B50D96EDA6ADECF0CF0DDCF19
:100FC0000DF01AECA1F00CC068F00DC069F006D06D
:100FD0004B50D96EDA6ADE2A000EDD22D00E4D6E3D
:100FE000FF0E4E6E4B50D96EDA6ADECFF6FFDDCFC4
:100FF000F7FF000EF86E0800F5504F6E506A4D5026
:101000004F264E505022505006E10A0E4F5CD8B089
:1010100002D0010E01D0000E0001B26FB36BB251CD
:10102000B311D8A4D5D74B50D96EDA6ADECFF6FF0C
:10103000DDCFF7FF000EF86E0800F550630AD8A464
:101040001DD04B50D96EDA6ADE2A000EDD224C50DC
:10105000D96EDA6ADF50DF2ADF2AD96EDA6ADF500A
:10106000B66F49C010F04AC011F0B6C012F024ECBF
:10107000ABF010C049F011C04AF012004B50D96ECD
:10108000DA6ADECFF6FFDDCFF7FF000EF86E08005C
:10109000F5506E0AD8A42FD04B50D96EDA6ADE2AEA
:1010A000000EDD224C50D96EDA6A020EDF26DF5CBC
:1010B000D96EDA6ADECFB4F0DECFB5F0B4C0F6FF99
:1010C000B5C0F7FF000EF86E0E0EF76407D065C1CD
:1010D000F5FF0D0066C1F5FF0C0008D0F6CFE1FF6B
:1010E000F7CFE2FF65C1E6FF66C1E7FF000E4A6E7B
:1010F000000E496E12004B50D96EDA6ADECF05F051
:10110000DDCF06F0EE0E076EFF0E086E000E0A6EC3
:10111000020E096E6DECA8F005500610D8A43FD061
:101120004B50D96EDA6A020EDE26000EDD224C50DC
:10113000D96EDA6A020EDF26DF5CD96EDA6ADECF9C
:10114000B4F0DECFB5F065C14DF066C14EF0000ED3
:101150004EBEFF0E4F6E506EB4C0F6FFB5C0F7FF27
:10116000000EF86E0E0EF7640DD04DC0F5FF0D00A9
:101170004EC0F5FF0D004FC0F5FF0D0050C0F5FF4C
:101180000C000CD0F6CFE1FFF7CFE2FF4DC0E6FF39
:101190004EC0E6FF4FC0E6FF50C0E7FFA7D74B5059
:1011A000D96EDA6ADECFF6FFDDCFF7FF000EF86EFC
:1011B0000800F550730AD8A421D04B50D96EDA6AD2
:1011C000DE2A000EDD224C50D96EDA6A020EDF26CE
:1011D000DF5CD96EDA6ADECFAEF0DECFAFF049C0A9
:1011E00010F04AC011F0AEC012F0AFC013F0C4EC62
:1011F000A1F010C049F011C04AF012004B50D96E56
:10120000DA6ADECFF6FFDDCFF7FF000EF86E0800DA
:10121000F550750AD8A438D04B50D96EDA6ADE2A58
:10122000000EDD224C50D96EDA6ADF50DF2ADF2A49
:10123000D96EDA6ADECF4DF0DDCF4EF04DC0B7F09B
:101240004EC0B8F00001B96BBA6BBB6BBC6BBD6B29
:10125000BE6B49C022F04AC023F0B7C024F0B8C02A
:1012600025F0B9C026F0BAC027F0BBC028F0BCC03A
:1012700029F0BDC02AF0BEC02BF0CDEC9DF022C0FD
:1012800049F023C04AF012004B50D96EDA6ADECF23
:1012900005F0DDCF06F0F10E076EFF0E086E000EB2
:1012A0000A6E020E096E6DECA8F005500610D8A467
:1012B00041D04B50D96EDA6A020EDE26000EDD22D6
:1012C0004C50D96EDA6ADFCF4DF0040EDF264D5058
:1012D000D96EDA6ADECF4EF0DECF4FF0DECF50F0BF
:1012E000DECF51F04E500001B76F4F50B86F5050E5
:1012F000B96F5150BA6FBB6BBC6BBD6BBE6B49C055
:1013000022F04AC023F0B7C024F0B8C025F0B9C01D
:1013100026F0BAC027F0BBC028F0BCC029F0BDC081
:101320002AF0BEC02BF0CDEC9DF022C049F023C0C6
:101330004AF012004B50D96EDA6ADECFF6FFDDCFED
:10134000F7FF000EF86E0800F550780AD8B40ED0FA
:101350004B50D96EDA6ADECFF6FFDDCFF7FF000E15
:10136000F86E0800F550580AD8A446D04B50D96EF4
:10137000DA6ADECFF6FFDDCFF7FF000EF86E080069
:10138000F5CFB6F04B50D96EDA6ADE2A000EDD22B8
:101390004C50D96EDA6ADF50DF2ADF2AD96EDA6A5A
:1013A000DECF4DF0DDCF4EF04DC0B7F04EC0B8F0FF
:1013B0000001B96BBA6BBB6BBC6BBD6BBE6B49C03C
:1013C00022F04AC023F0B7C024F0B8C025F0B9C05D
:1013D00026F0BAC027F0BBC028F0BCC029F0BDC0C1
:1013E0002AF0BEC02BF0B6C02CF0CAEC9BF022C095
:1013F00049F023C04AF012004B50D96EDA6ADECFB2
:1014000005F0DDCF06F0F40E076EFF0E086E000E3D
:101410000A6E020E096E6DECA8F005500610D8B4E5
:1014200015D04B50D96EDA6ADECF05F0DDCF06F06D
:10143000EB0E076EFF0E086E000E0A6E020E096EAE
:101440006DECA8F005500610D8A457D04B50D96EBB
:10145000DA6ADECF4DF0DDCF4EF0010E4D26000EE4
:101460004E224DC0F6FF4EC0F7FF000EF86E08008A
:10147000F5CFB6F04B50D96EDA6A020EDE26000EBA
:10148000DD224C50D96EDA6ADFCF4DF0040EDF2634
:101490004D50D96EDA6ADECF4EF0DECF4FF0DECFA0
:1014A00050F0DECF51F04E500001B76F4F50B86F83
:1014B0005050B96F5150BA6FBB6BBC6BBD6BBE6BFC
:1014C00049C022F04AC023F0B7C024F0B8C025F0CC
:1014D000B9C026F0BAC027F0BBC028F0BCC029F0C4
:1014E000BDC02AF0BEC02BF0B6C02CF0CAEC9BF0F9
:1014F00022C049F023C04AF012004B50D96EDA6A7C
:10150000DECFF6FFDDCFF7FF000EF86E0800F550D6
:10151000250AD8A415D04B50D96EDA6ADE2A000EFF
:10152000DD22000E086E250E076E49C009F04AC084
:101530000AF021ECAFF0000E4A6E010E496E120067
:101540004B50D96EDA6ADE2A000EDD22CFD54B5021
:10155000D96EDA6ADECFF6FFDDCFF7FF000EF86E48
:101560000800F550076E086A49C009F04AC00AF041
:1015700021ECAFF04B50D96EDA6ADE2A000EDD2284
:10158000DAD738D259A002D0838E76D2839E74D215
:1015900059505DECB8F070D28D51D8A46DD259A0DD
:1015A00002D0010E916F59A202D0010E906F59A482
:1015B00063D2010E8F6F60D27D51D8B45DD27C5161
:1015C000D8A45AD2120E176E59C018F0200E53EC40
:1015D000B0F052D27D51D8B44FD27C51D8A44CD265
:1015E000130E176E59C018F0200E53ECB0F044D211
:1015F0007D51D8B441D27C51D8A43ED2000E176E92
:1016000059C018F0200E53ECB0F036D27D51D8B44A
:1016100033D27C51D8A430D2010E176E59C018F0C5
:10162000200E53ECB0F028D27D51D8B425D27C5195
:10163000D8A422D20C0E176E59C018F0200E53EC0D
:10164000B0F01AD27D51D8B417D27C51D8A414D29C
:101650000D0E176E59C018F0200E53ECB0F00CD2DE
:10166000640E596027D08CECAFF08251300F01012D
:10167000C66F0A0E056E5950A2ECB3F0300F01018F
:10168000C86F0A0E056E5950A2ECB3F0F60DF35078
:101690005924300F0101C96F00017F51D8A407D030
:1016A000C40E556E010E566EC6ECB7F07F6F010E7C
:1016B000FB6FE2D1100E24D078517911D8A404D058
:1016C00059C074F0756B0FD05950EC6F7451746F32
:1016D000ECC075F0020E755DD8B002D0000E01D0DE
:1016E000110E7F6FFF690001784B792BC5D159C06E
:1016F000ADF0800EAD6101D002D0120E01D0000E0F
:101700007F6FBAD178517911D8A466D07F0EAD65BC
:1017100001D062D07F51D8A45FD0AD41E8423F0BE9
:10172000816F74C0ECF075C0EDF0050ED890EC3709
:10173000ED37E82EFBD78151EC11726FED51736FCD
:10174000ADC0ECF0030EEC17EC51800DF3CF6BF154
:10175000F4CF6CF1010EF16F01016D5100017219AE
:101760000BE101016E5100017319D8A405D0FB51A2
:10177000D8A402D0000EF16FF1C084F08451D8B427
:1017800027D08CECAFF07F51D8A407D072C04CF0BA
:1017900073C04DF07BECB4F07F6F7F51D8A409D0BB
:1017A000A00E446E060E456EA20E466E83ECB5F09A
:1017B0007F6F72C06DF173C06EF17F51D8A408D0F5
:1017C000020EA35DD8B004D0010EFB6F130E7F6F25
:1017D000010E856F000EFB6F7F51D8A410D0A00EB4
:1017E00001016B25D96E060E6C21DA6E59C0DFFF40
:1017F0000001795103E17F0E785DD8B0FF69784B25
:10180000792B01016B4B6C2B37D15950D8B434D1A3
:1018100059C0FEF031D1595045ECB3F02DD17D5176
:10182000D8B42AD1010E7C6F5950D8A402D0010E31
:1018300001D0000E010BAC6F120E176EAC51AC252F
:101840000509186E200E53ECB0F0000E176EF80E5E
:10185000186E200E53ECB0F0010E176E000E186ECD
:10186000200E53ECB0F00C0E176EFF0E186E200E0B
:1018700053ECB0F0D8800001AC35576E120E176EE5
:1018800057C018F0200E53ECB0F057500409576EB3
:10189000120E176E57C018F0200E53ECB0F0ECD0BB
:1018A0007C51D8B4E9D0130E176E59C018F0200E31
:1018B00053ECB0F00001AC51AC25FC09576E120E90
:1018C000176E57C018F0200E53ECB0F057500109B6
:1018D000576E120E176E57C018F0200E53ECB0F072
:1018E000CBD078517911D8A407D059500101366F67
:1018F000376B386B396BF7D678C0ECF0D890EC3793
:10190000D890EC37D890EC3759C0EDF0EE6BEF6B18
:10191000F06BEC2B05D0D890ED37EE37EF37F03782
:10192000EC2FF9D7010136510001ED110101366F9D
:1019300037510001EE110101376F38510001EF11ED
:101940000101386F39510001F0110101396F0001B7
:10195000795104E1030E785DD8A0C5D6FF69000E69
:101960007E6FC1D67E51D8A4BED678517911D8A445
:1019700010D0000E136E000E146E36C115F037C174
:1019800016F038C117F039C118F019ECA4F00001B5
:101990007E6FA00E7825D96E060E7921DA6E59C0B9
:1019A000DFFF7829010E7959D8A09DD6A00E136EBD
:1019B000060E146E000E156E020E166E000E176ED9
:1019C000000E186E19ECA4F000017E6F7E51D8A4B1
:1019D00089D6000E136E000E146E000E156E000EEA
:1019E000166E000E176E000E186E19ECA4F00001B2
:1019F0007E6F78D60001FF51EC6FED6BED51000A60
:101A0000D8A43AD0EC51000AD8B4BCD5010AD8B455
:101A1000BFD5030AD8B4C0D5010AD8B4CDD5070ABA
:101A2000D8B4D8D5010AD8B4E3D5030AD8B4EED5D2
:101A3000010AD8B4F9D50F0AD8B404D6010AD8B42B
:101A40000FD6030AD8B438D6010AD8B450D6070A3C
:101A5000D8B458D6030AD8B4D8D61F0AD8B4DBD61F
:101A6000010AD8B4DCD6030AD8B41AD7010AD8B40C
:101A700038D7070AD8B476D70A0E0001FF19D8B4B0
:101A800012000C0EFF19D8B41200130EFF19D8B4AF
:101A90001200140EFF19D8B41200FF691200000ED4
:101AA00000016E6F000E6F6FE2EC9CF02A6E2AA0B0
:101AB00002D0020E1200000E0001DA6F000EDB6F82
:101AC000000EDC6F000EDD6FAE0E236E000E246E76
:101AD000000E256E000E266E000E276E9BECA5F004
:101AE0000001E26FE205D8A438D0AE0E136E146A7E
:101AF000000E156E000E166E000E176E000E186E9C
:101B0000010E1A6EBE0E196E000E1C6E100E1B6EAC
:101B1000A2ECA4F00009D8B402D0030E1CD000013E
:101B2000B251D8B41AD0B60E056E2BECA9F005C090
:101B3000DAF006C0DBF007C0DCF008C0DDF0AE0E66
:101B4000236EDAC024F0DBC025F0DCC026F0DDC057
:101B500027F09BECA5F00001E26F030EE219D8A478
:101B600002D0010E1200E251D8B402D0060E1200CB
:101B7000AE0E136E146ADAC015F0DBC016F0DCC0CE
:101B800017F0DDC018F0000E1A6E0D0E196E000E63
:101B90001C6E240E1B6EA2ECA4F00009D8A4E1D7A1
:101BA000B70E056E2EECB4F005C0DEF006C0DFF017
:101BB0000001E06BE16BDE51DF11E011E111D8A40F
:101BC0000CD0C50E056E2BECA9F005C0DEF006C0EA
:101BD000DFF007C0E0F008C0E1F0DEC005F0DFC0D4
:101BE00006F0E0C007F0E1C008F00001B151096E55
:101BF0000A6A0B6A0C6A07ECB1F005C0DEF006C099
:101C0000DFF007C0E0F008C0E1F0AF0E056E2EEC8B
:101C1000B4F005500001DA252A6E0650DB212B6E48
:101C2000000EDC212C6E000EDD212D6E20EE0AF060
:101C30002850D9262950DA222AC0DEFF2BC0DEFF29
:101C40002CC0DEFF2DC0DEFF20EE02F02850D9268A
:101C50002950DA22AEC0DFFFB20E056E2EECB4F0D2
:101C600020EE04F02850D9262950DA2205C0DEFFE4
:101C700006C0DDFFB40E056E2EECB4F005C0D2F048
:101C800006C0D3F00001D46BD56BD251D311D4115F
:101C9000D511D8A40CD0C10E056E2BECA9F005C04F
:101CA000D2F006C0D3F007C0D4F008C0D5F020EEC3
:101CB00004F02850D9262950DA22DECF2AF0DDCFD1
:101CC0002BF0040E2C6ED8902B322A322C2EFBD700
:101CD0002A502D6E2B502E6E2F6A306AAF0E056E75
:101CE0002EECB4F00550316E0650326E336A346A11
:101CF000311E321E331E341E312A000E3222332290
:101D000034220001DE51315C356EDF513258366EBF
:101D1000E0513358376EE1513458386E2D50355CF0
:101D2000396E2E5036583A6E2F5037583B6E305021
:101D300038583C6ED25139240C6ED3513A200D6E76
:101D4000D4513B200E6ED5513C200F6E20EE02F098
:101D50002850D9262950DA22DF503D6E3D50106EB2
:101D6000116A126A136AB4ECADF0020E0C24D66F3D
:101D7000000E0D20D76F000E0E20D86F000E0F2022
:101D8000D96F20EE06F02850D9262950DA22D6C085
:101D9000DEFFD7C0DEFFD8C0DEFFD9C0DEFF000EF9
:101DA000E26FD951D81106E1F80ED65D0F0ED75962
:101DB000D8A00BD0D951D81108E1F70ED65DFF0E8F
:101DC000D759D8B002D0020EE26FD951D81106E12E
:101DD000F70ED65DFF0ED759D8A002D0030EE26FE2
:101DE000E251D8B4C3D628C0D9FF29C0DAFFE2C077
:101DF000DFFF030EE219D8A413D0CD0E056E2BEC35
:101E0000A9F020EE0EF02850D9262950DA2205C07C
:101E1000DEFF06C0DEFF07C0DEFF08C0DEFF28D001
:101E200020EE0AF02850D9262950DA22DECF2AF0F7
:101E3000DECF2BF0DECF2CF0DECF2DF0DE512A24CA
:101E40002E6EDF512B202F6EE0512C20306EE15191
:101E50002D20316E20EE0EF02850D9262950DA229E
:101E60002EC0DEFF2FC0DEFF30C0DEFF31C0DEFF40
:101E700020EE0AF02850D9262950DA22DECF2AF0A7
:101E8000DECF2BF0DECF2CF0DECF2DF020EE04F0F5
:101E90002850D9262950DA22DECF2EF0DDCF2FF0C0
:101EA000040E306ED8902F322E32302EFBD72E50AB
:101EB0002A24316E2F502B20326E000E2C20336ED0
:101EC000000E2D20346E0001DE513124356EDF51BD
:101ED0003220366EE0513320376EE1513420386EB7
:101EE00020EE12F02850D9262950DA2235C0DEFF24
:101EF00036C0DEFF37C0DEFF38C0DEFF20EE01F067
:101F00002850D9262950DA22000EDF6E28C06EF044
:101F100029C06FF0000E1200AB0E1F6EAA0E206ECD
:101F2000A90E216EA80E226EA70E236EA60E246E99
:101F3000A50E256E34ECAEF0000E0001EE6FB40E6F
:101F4000C16FFC0EC26FDAECB6F0080E0001C16F73
:101F5000FA0EC26FDAECB6F0B50E0001C16FFD0EDD
:101F6000C26FDAECB6F049D0480EC16FFF0EC26FF7
:101F7000DAECB6F00001A651AFECB5F059D00D0E79
:101F8000C16FFF0EC26FDAECB6F00001A751AFECE3
:101F9000B5F04ED0A90EC16FFD0EC26FDAECB6F0EF
:101FA000210E0001C16FFF0EC26FDAECB6F0000126
:101FB000A851AFECB5F03CD0170EC16FFF0EC26F49
:101FC000DAECB6F00001A951AFECB5F031D09D0EBE
:101FD000C16FFE0EC26FDAECB6F00001AA51AFEC91
:101FE000B5F026D0910EC16FFE0EC26FDAECB6F0DE
:101FF0000001AB51AFECB5F01BD00001EE51E46F26
:10200000E56BE551000AD8A413D0E451000AD8B416
:10201000ABD7010AD8B4B3D7030AD8B4BBD7010AE7
:10202000D8B4CAD7070AD8B4D2D7010AD8B4DAD7F5
:10203000000E0001D46F000ED56F000ED66FFAECC3
:10204000A2F023ECB3F0586E750E5818D8B410D027
:10205000550E5818D8B40CD0740E5818D8B408D0EF
:10206000540E5818D8B404D00D0E5818D8A4E0D780
:10207000750E5818D8B478D0550E5818D8B474D0F6
:102080008ED0A62B630EA6658AD0000EA66F87D0D1
:10209000A72B0C0EA76583D0010EA76F80D0A82BAD
:1020A000020EA719D8A431D0A851E46FE56BFF0E3A
:1020B000E66FFF0EE76FA751E86FE96BE651E8277F
:1020C000E751E923F30EE825F66EF20EE921F76EEB
:1020D000F86A000EF8220800F550EA6FEB6BA65183
:1020E00049ECB7F00001EC6FEC51EA27000EEB234E
:1020F000E451EA5DEB51800AED6FE551800AED593C
:10210000D8B04DD0010EA86F4AD0FF0EE46FFF0E7D
:10211000E56FA751E66FE76BE451E627E551E7234A
:10212000F30EE625F66EF20EE721F76EF86A000E62
:10213000F822A8510900F55CD8A0E4D730D0A92B2B
:10214000170EA9652CD0000EA96F29D0AA2B3B0E23
:10215000AA6525D0000EAA6F22D0AB2B3B0EAB6533
:102160001ED0000EAB6F1BD00001EE51E46FE56B8B
:10217000E551000AD8A413D0E451000AD8B481D79D
:10218000010AD8B485D7030AD8B489D7010AD8B4CC
:10219000D6D7070AD8B4DAD7010AD8B4DED7740E76
:1021A0005818D8B497D0540E5818D8B493D0ADD08E
:1021B000A6510A0FA66F630EA665A7D00A0E056E7C
:1021C000A651A2ECB3F0F60DF3500001A625A66FC0
:1021D0009CD00A0EA76503D0A751F60F05D0030EB9
:1021E000A76193D0A7510A0FA76F8FD0A8510A0FEC
:1021F000A86FA851E46FE56BFF0EE66FFF0EE76F67
:10220000A751E86FE96BE651E827E751E923F30EA0
:10221000E825F66EF20EE921F76EF86A000EF82254
:102220000800F550EA6FEB6BA65149ECB7F00001DE
:10223000EC6FEC51EA27000EEB23E451EA5DEB5121
:10224000800AED6FE551800AED59D8B00AD00A0E28
:10225000056EA851A2ECB3F0F60DF3500001A825CD
:10226000A86FA851D8A451D0010EA86F4ED0A95183
:102270000A0FA96F170EA96548D00A0E056EA9515D
:10228000A2ECB3F0F60DF3500001A925A96F3DD0E3
:10229000AA510A0FAA6F3B0EAA6537D00A0E056E27
:1022A000AA51A2ECB3F0F60DF3500001AA25AA6FD3
:1022B0002CD0AB510A0FAB6F3B0EAB6526D00A0E8C
:1022C000056EAB51A2ECB3F0F60DF3500001AB2557
:1022D000AB6F1BD00001EE51E46FE56BE551000AD6
:1022E000D8A413D0E451000AD8B462D7010AD8B4F4
:1022F00070D7030AD8B47AD7010AD8B4B8D7070A76
:10230000D8B4C6D7010AD8B4D4D7C10E0001C16F62
:10231000FB0EC26FDAECB6F00D0E5818D8A41CD61E
:102320000001EE2B050EEE6517D6AAC01BF0A9C062
:102330001CF0A8C01DF0A7C01EF0A6C01FF0AB5136
:1023400029ECB2F0F00E0001C16FFD0EC26FDAECA5
:10235000B6F0D10E0001C16FFC0EC26FDAECB6F020
:10236000010E2FECAAF07B0E0001C16FFF0EC26FB1
:10237000DAECB6F012006EC0BEF06FC0BFF0000124
:10238000BE51BF11D8A402D0050E120020EE01F0FC
:10239000BE51D926BF51DA22DFB002D0040E12009E
:1023A00020EE1AF0BE51D926BF51DA223750DE5C3A
:1023B0003850DE583950DE583A50DE58D8B00ED07A
:1023C00020EE1AF0BE51D926BF51DA22DECF37F007
:1023D000DECF38F0DECF39F0DECF3AF020EE16F067
:1023E000BE51D926BF51DA22DECFB2F0DECFB3F034
:1023F000DECFB4F0DECFB5F020EE16F0BE51D92618
:10240000BF51DA22DE6ADE6ADE6ADD6A37503810D2
:1024100039103A10D8B4AFD120EE02F0BE51D9260F
:10242000BF51DA22DF503B6E3BC03CF03D6A3E6A52
:102430003F6A090ED8903C363D363E363F36E82E90
:10244000F9D73CC0B6F03DC0B7F03EC0B8F03FC0D1
:10245000B9F0B251B311B411B511D8B495D0FF0E83
:1024600037240C6EFF0E38200D6EFF0E39200E6ED5
:10247000FF0E3A200F6EB6C010F0B7C011F0B8C012
:1024800012F0B9C013F0B4ECADF00CC03BF00DC0CD
:102490003CF00EC03DF00FC03EF0FF0EB2250C6EBA
:1024A000FF0EB3210D6EFF0EB4210E6EFF0EB5218F
:1024B0000F6EB6C010F0B7C011F0B8C012F0B9C0BE
:1024C00013F0B4ECADF00C503B5C0D503C580E508A
:1024D0003D580F503E58D8A057D0FF0EB6253B6E42
:1024E000FF0EB7213C6EFF0EB8213D6EFF0EB921E5
:1024F0003E6E3B1C3F6E3C1C406E3D1C416E3E1CC4
:10250000426EFF0EB225436EFF0EB321446EFF0EE6
:10251000B421456EFF0EB521466E3F504314476E01
:1025200040504414486E41504514496E4250461480
:102530004A6E20EE16F0BE51D926BF51DA2247C0AE
:10254000DEFF48C0DEFF49C0DEFF4AC0DEFF20EEEE
:1025500016F0BE51D926BF51DA22DE50375EDE506A
:10256000385ADE50395ADD503A5A20EE22F0BE5128
:10257000D926BF51DA22DECFBAF0DECFBBF0DECFF4
:10258000BCF0DECFBDF076D020EE1EF0BE51D926D5
:10259000BF51DA22DECFBAF0DECFBBF0DECFBCF027
:1025A000DECFBDF020EE22F0BE51D926BF51DA2297
:1025B000BAC0DEFFBBC0DEFFBCC0DEFFBDC0DEFFB9
:1025C00059D0BAC023F0BBC024F0BCC025F0BDC0B8
:1025D00026F07BEC9FF023C0BAF024C0BBF025C0EE
:1025E000BCF026C0BDF00001BD51BC11BB1104E11F
:1025F000020EBA5DD8A010D020EE06F0BE51D9264A
:10260000BF51DA22DE50BA5DDE50BB59DE50BC59F4
:10261000DE50BD59D8A00AD020EE01F0BE51D92617
:10262000BF51DA22000EDF6E010E120020EE22F002
:10263000BE51D926BF51DA22BAC0DEFFBBC0DEFFD1
:10264000BCC0DEFFBDC0DEFF20EE16F0BE51D926B5
:10265000BF51DA22B651DE26B751DE22B851DE2252
:10266000B951DE22B651375EB751385AB851395A8E
:10267000B9513A5A3750B65D3850B7593950B859F0
:102680003A50B959D8A09DD720EE16F0BE51D926A0
:10269000BF51DA223750DE263850DE223950DE2292
:1026A0003A50DE22BAC011F0BBC012F0BCC013F029
:1026B000BDC014F00CECA8F011C0AEF012C0AFF029
:1026C00013C0B0F014C0B1F00001AE51AF11B011A1
:1026D000B111D8B4A1D720EE02F0BE51D926BF5116
:1026E000DA22DF503B6EFF0E3B243C6E3D6AFF0E4C
:1026F0003D223E6A3DBE3E063E503F6E20EE16F045
:10270000BE51D926BF51DA22DECF40F0DECF41F0F4
:10271000DECF42F0DECF43F00A0E05D0D890433230
:10272000423241324032E82EF9D73C504014446ED8
:102730003D504114456E3E504214466E3F50431486
:10274000476EAE514424486EAF514520496EB0519A
:1027500046204A6EB15147204B6E20EE26F0BE5106
:10276000D926BF51DA2248C0DEFF49C0DEFF4AC089
:10277000DEFF4BC0DEFF000E120037C044F038C051
:1027800045F06EC055F06FC056F03B50D96EDA6A16
:10279000000EDE6E000EDD6E55505610D8A402D02D
:1027A000050E120020EE01F05550D9265650DA22BF
:1027B000DFB002D0040E120039503A10D8A42DD048
:1027C00020EE01F05550D9265650DA22DFAC1BD04E
:1027D000000E136E000E146E000E156E000E166EB7
:1027E000000E176E000E186E19ECA4F00009D8B494
:1027F0000AD020EE01F05550D9265650DA22000EAC
:10280000DF6E010E120020EE01F05550D926565011
:10281000DA22BF0EDF16000E120020EE01F0555036
:10282000D9265650DA22DFBC0ED020EE16F05550D5
:10283000D9265650DA22000EDE16FE0EDE16FF0EE8
:10284000DE16FF0EDE1620EE16F05550D926565035
:10285000DA22DECF3CF0DECF3DF0DECF3EF0DECF41
:102860003FF020EE1AF05550D9265650DA22DECF2E
:1028700040F0DECF41F0DECF42F0DECF43F03C50FF
:10288000405C4A6E3D5041584B6E3E5042584C6E33
:102890003F5043584D6E39503C6E3A503D6E3E6A43
:1028A0003F6A3C504A5C3D504B583E504C583F505C
:1028B0004D58D8B05ED14AC039F04BC03AF059D12A
:1028C000FF0E3C6E010E3D6E20EE16F05550D926DF
:1028D0005650DA22DECF3EF0DDCF3FF03C503E16C0
:1028E0003D503F163E503F10D8A4C5D020EE16F004
:1028F0005550D9265650DA22DECF3CF0DECF3DF0DF
:10290000DECF3EF0DECF3FF00A0E05D0D8903F324A
:102910003E323D323C32E82EF9D720EE02F05550DF
:10292000D9265650DA22DF50406E40043C14526ED5
:102930005250D8A449D020EE16F05550D926565002
:10294000DA22DE50DE10DE10DE10D8A40FD020EE2A
:102950001EF05550D9265650DA22DECF4EF0DECF8B
:102960004FF0DECF50F0DECF51F018D020EE22F045
:102970005550D9265650DA22DECF23F0DECF24F090
:10298000DECF25F0DECF26F07BEC9FF023C04EF0AB
:1029900024C04FF025C050F026C051F051505010C7
:1029A0004F1004E1020E4E5CD8A023D720EE22F097
:1029B0005550D9265650DA224EC0DEFF4FC0DEFFFA
:1029C00050C0DEFF51C0DEFF20EE22F05550D92668
:1029D0005650DA22DECF11F0DECF12F0DECF13F048
:1029E000DECF14F00CECA8F011C046F012C047F096
:1029F00013C048F014C049F0465047104810491021
:102A0000D8B4F7D6525046243C6E000E47203D6E97
:102A1000000E48203E6E000E49203F6E20EE26F04C
:102A20005550D9265650DA223CC0DEFF3DC0DEFFAD
:102A30003EC0DEFF3FC0DEFF000E136E000E146EC0
:102A400020EE26F05550D9265650DA22DECF15F06A
:102A5000DECF16F0DECF17F0DECF18F019ECA4F0C1
:102A60000009D8A4C6D620EE01F05550D9265650FC
:102A7000DA22000EDB8CFF0E3C6E010E3D6E20EE66
:102A800016F05550D9265650DA22DECF3EF0DDCF73
:102A90003FF03C503E163D503F163E500008536EEE
:102AA0003F50D8A0E82A0208546E5350395C545065
:102AB0003A58D8B004D039C053F03AC054F044C0AA
:102AC00013F045C014F053C015F054C016F0176A47
:102AD000186A19ECA4F00009D8A48BD620EE16F0E1
:102AE0005550D9265650DA225350DE265450DE2255
:102AF000000EDE22DE22535044265450452253500D
:102B0000395E54503A5A3B50D96EDA6A5350DE2639
:102B10005450DD22FF0E3C6E010E3D6E20EE16F08D
:102B20005550D9265650DA22DECF3EF0DDCF3FF0A9
:102B30003C503E163D503F163E503F10D8A419D091
:102B4000000E136E000E146E000E156E000E166E43
:102B5000000E176E000E186E19ECA4F00009D8A430
:102B600048D620EE01F05550D9265650DA22BF0E35
:102B7000DF1639503A10D8B44ED6A2D637C0BCF0C2
:102B800038C0BDF06EC0C0F06FC0C1F03B50D96E10
:102B9000DA6A000EDE6E000EDD6E0001C051C1115A
:102BA000D8A402D0050E120020EE01F0C051D926A3
:102BB000C151DA22DFB002D0040E120020EE16F06E
:102BC000C051D926C151DA22DECF3CF0DECF3DF034
:102BD000DECF3EF0DECF3FF020EE1AF0C051D92616
:102BE000C151DA22DECF40F0DECF41F0DECF42F03D
:102BF000DECF43F03C50405CB36F3D504158B46F62
:102C00003E504258B56F3F504358B66F39503C6EF6
:102C10003A503D6E3E6A3F6A3C50B35D3D50B459F8
:102C20003E50B5593F50B659D8B040D1B3C039F035
:102C3000B4C03AF03BD120EE16F0C051D926C151B4
:102C4000DA22FF0EDE143C6E010EDE143D6E000E25
:102C5000DE143E6E000EDE143F6E3C503D103E1002
:102C60003F10D8A4B2D020EE16F0C051D926C151E1
:102C7000DA22DECF3CF0DECF3DF0DECF3EF0DECF1D
:102C80003FF00A0E05D0D8903F323E323D323C3202
:102C9000E82EF9D720EE02F0C051D926C151DA2230
:102CA000DF50406E40043C14BB6FBB51D8A454D0DD
:102CB00020EE16F0C051D926C151DA22DE50DE10C6
:102CC000DE10DE10D8A40FD020EE1EF0C051D926A1
:102CD000C151DA22DECFB7F0DECFB8F0DECFB9F0E7
:102CE000DECFBAF018D020EE22F0C051D926C15163
:102CF000DA22DECF23F0DECF24F0DECF25F0DECFE8
:102D000026F07BEC9FF023C0B7F024C0B8F025C0BC
:102D1000B9F026C0BAF00001BA51B911B8110EE1EC
:102D2000020EB75DD8B00AD020EE01F0C051D9260E
:102D3000C151DA22000EDF6E010E120020EE22F0E9
:102D4000C051D926C151DA22B7C0DEFFB8C0DEFFBC
:102D5000B9C0DEFFBAC0DEFF20EE22F0C051D92696
:102D6000C151DA22DECF11F0DECF12F0DECF13F048
:102D7000DECF14F00CECA8F011C0AFF012C0B0F030
:102D800013C0B1F014C0B2F00001AF51B011B111D5
:102D9000B211D8B4C9D7BB51AF253C6E000EB021DB
:102DA0003D6E000EB1213E6E000EB2213F6E20EE50
:102DB00026F0C051D926C151DA223CC0DEFF3DC009
:102DC000DEFF3EC0DEFF3FC0DEFFFF0E3C6E010EA9
:102DD0003D6E20EE16F0C051D926C151DA22DECF69
:102DE0003EF0DDCF3FF03C503E163D503F163E508A
:102DF0000008BE6F3F50D8A0E82A0208BF6FBE513E
:102E0000395CBF513A58D8B004D039C0BEF03AC08E
:102E1000BFF0BCC013F0BDC014F020EE26F0C051CE
:102E2000D926C151DA22DECF15F0DECF16F0DECF83
:102E300017F0DECF18F020EE16F0C051D926C151A0
:102E4000DA22DECF3CF0DDCF3DF0FF0E3C14196EF0
:102E5000010E3D141A6EBEC01BF0BFC01CF0A2ECE8
:102E6000A4F00001AE6FAE51D8A45ED720EE16F0EC
:102E7000C051D926C151DA22BE51DE26BF51DE2211
:102E8000000EDE22DE22BE51395EBF513A5A3B505F
:102E9000D96EDA6ABE51DE26BF51DD22BC51BD11AA
:102EA000D8B404D0BE51BC27BF51BD2339503A100D
:102EB000D8A4C1D6000E12004ED18DBC02D0010E96
:102EC00020D0000E1ED07D51D8B46FD1120E176ED7
:102ED000200EF1ECAFF015D07D51D8B466D1130EB1
:102EE000176E200EF1ECAFF00CD07C51D8B45DD150
:102EF000120E176E200EF1ECAFF0596E5950F80B10
:102F00000109596E52D17B51D8B452D07851791100
:102F1000D8A410D0AB0E1F6EAA0E206EA90E216E83
:102F2000A80E226EA70E236EA60E246EA50E256E89
:102F300034ECAEF0000179513BE1070E785DD8A08A
:102F400016D036D0ABC059F030D0AAC059F02DD031
:102F5000A9C059F02AD0A8C059F027D0A7C059F06D
:102F600024D0A6C059F021D0A5C059F01ED078C0F9
:102F7000E3F079C0E4F0E451000AD8A416D0E3519C
:102F8000000AD8B4DFD7010AD8B4DFD7030AD8B40F
:102F9000DFD7010AD8B4DFD7070AD8B4DFD7010AD0
:102FA000D8B4DFD7030AD8B4DFD7784B792BFDD05C
:102FB000FF69FBD07FC059F0F8D078517911D8A4BF
:102FC0003FD07F0EAD6501D03BD07F51D8A438D023
:102FD0008551D8A48CECAFF0AD41E8423F0B816F36
:102FE00074C0E3F075C0E4F0050ED890E337E43721
:102FF000E82EFBD78151E311726FE451736F010E1C
:10300000E56F01016D51000172190BE101016E5173
:1030100000017319D8A405D0FB51D8A402D0000E2A
:10302000E56FE5C084F08451D8B40AD07F51D8A4AC
:1030300007D072C04CF073C04DF07BECB4F07F6FE2
:103040007F51D8A43BD078517911D8A428D084518D
:10305000D8B41BD0A00E446E060E456EA20E466E6E
:1030600083ECB5F07F6F72C06DF173C06EF17F516C
:10307000D8A409D0020EA35DD8B005D0010EFB6F15
:10308000130E7F6F02D0000EFB6FADC0E3F0030E96
:10309000E317E351800DF3CF6BF1F4CF6CF17F5167
:1030A000D8A40AD0A00E01016B25D96E060E6C21A2
:1030B000DA6EDF50596E02D0010EFB6F00017951BC
:1030C00003E17F0E785DD8B0FF69784B792B010161
:1030D0006B4B6C2B6AD0710E3E6E010E3F6E99ECFD
:1030E000B7F000017F6F66D78CECAFF063D77E51ED
:1030F000D8A427D078517911D8A418D0A00E136E77
:10310000060E146E36C115F037C116F038C117F02F
:1031100039C118F0000E1A6E000E196E020E1C6EE8
:10312000000E1B6EA2ECA4F000017E6F7E51D8A4AD
:1031300008D0A00E7825D96E060E7921DA6EDF5000
:10314000596E7829010E7959D8A02FD7FF692DD74C
:103150007EC059F02AD00001FF51E36FE46BE451C7
:10316000000AD8A422D0E351800AD8B4A6D6010A16
:10317000D8B4A9D6030AD8B4AFD6010AD8B4B5D604
:10318000070AD8B4C0D6010AD8B414D7030AD8B4F1
:1031900014D7010AD8B49FD70F0AD8B4A5D7010A0B
:1031A000D8B4A5D7190AD8B4D3D7840E0001FF1913
:1031B000D8B41200860EFF19D8B41200890EFF1978
:1031C000D8B41200FF691200000E306E000E316E8E
:1031D000000E326E000E336E13C034F014C035F0A2
:1031E00034503510D8B459D134C0D9FF35C0DAFFC6
:1031F000DF50D8B452D102D0344A352A34C0D9FF76
:1032000035C0DAFFDF50366E010E286E200E3618FC
:10321000D8B413D0F70E1A6EFF0E1B6E36501C6E0C
:103220001D6A1A501C261B501D221D5004E1050E5C
:103230001C5CD8A002D0000E286E28C022F0236AA1
:1032400022502310D8A4D8D7000E2E6E000E296E5F
:10325000000E2F6E2D0E3618D8A40BD0010E2E6E38
:10326000344A352A34C0D9FF35C0DAFFDF50366E14
:1032700004D02B0E3618D8B4F3D7300E3618D8A495
:1032800030D0344A352A34C0D9FF35C0DAFFDF5098
:10329000366E17501810D8B405D0100E1718181025
:1032A000D8A415D0780E3618D8B404D0580E3618D5
:1032B000D8A40DD0000E186E100E176E344A352AA1
:1032C00034C0D9FF35C0DAFFDF50366E0AD0010EA8
:1032D000296E17501810D8A404D0000E186E080ECE
:1032E000176E17501810D8A404D0000E186E0A0ECE
:1032F000176E1950D8B414D02E50D8A408D0FF0E91
:103300002A6EFF0E2B6EFF0E2C6E7F0E07D0000E66
:103310002A6E000E2B6E000E2C6E800E2D6E04D0C9
:103320002A682B682C682D6830C01EF031C01FF051
:1033300032C020F033C021F09F0E1A6EFF0E1B6EBC
:1033400036501C6E1D6A200E1C12000E1D121A50E3
:103350001C261B501D221D5006E11A0E1C5CD8B005
:1033600002D0010E01D0000E246E256A24502510D3
:10337000D8B409D036C00BF00C6A50ECB2F00B5048
:10338000C90F366E1CD0D00E1A6EFF0E1B6E365053
:103390001C6E1D6A1A501C261B501D221D5006E172
:1033A0000A0E1C5CD8B002D0010E01D0000E266EB1
:1033B000276A26502710D8B462D0300E365E3650B9
:1033C0001A6E1B6A17501A5C1B50800A1C6E18502C
:1033D000800A1C58D8B053D02F50D8A445D017C05D
:1033E00005F018C006F0000E06BEFF0E076E086E50
:1033F00030C009F031C00AF032C00BF033C00CF01D
:1034000007ECB1F036500524306E000E0620316E08
:10341000000E0720326E000E0820336E1E50305C06
:103420001F5031582050325821503358D8A00DD059
:103430001950D8B419D030502A5C31502B58325022
:103440002C5833502D58D8B00FD02AC030F02BC094
:1034500031F02CC032F02DC033F0000E0101646F4A
:10346000220E636F010E2F6E344A352A34C0D9FF05
:1034700035C0DAFFDF50366E010E296E55D72F505A
:10348000D8A40BD02E50D8B408D0331E321E311E13
:10349000306C000E31223222332215501610D8B46F
:1034A0000FD02950D8A404D013C034F014C035F084
:1034B00015C0D9FF16C0DAFF34C0DEFF35C0DDFF0E
:1034C00030C013F031C014F032C015F033C016F024
:1034D0001200680E5DECB1F00009D8B402D0000E05
:1034E0001200770EC16FFC0EC26FDAECB6F0010E5F
:1034F0002FECAAF07B0E0001C16FFF0EC26FDAEC59
:10350000B6F0730E0001C16FFB0EC26FA5C0C3F011
:10351000C46BDAECB6F00F0E176E680EF1ECAFF07C
:10352000800B0001D06FD051D8B432D1D50E056ECA
:10353000400E066EF90E076E000E096E020E086E42
:10354000B0ECB0F0D50E056EBFECB3F0AB6FD50E9E
:10355000056E3D0E066EF90E076E000E096E020E28
:10356000086EB0ECB0F0D50E056EBFECB3F0AA6FEC
:10357000D50E056E3A0E066EF90E076E000E096E38
:10358000020E086EB0ECB0F0D50E056EBFECB3F0D5
:10359000A96FD50E056E320E066EF90E076E000E7F
:1035A000096E020E086EB0ECB0F0D50E056EBFECE1
:1035B000B3F0A86F53D02F0EF66EF90EF76E000E13
:1035C000F86E0800F550610AD8A402D0010E44D06C
:1035D000300EF66EF90EF76E000EF86E0800F5501C
:1035E0006E0AD8A402D0060E37D0070E35D0020ED0
:1035F00033D0300EF66EF90EF76E000EF86E08003E
:10360000F550720AD8B404D0000ED26F080E03D061
:10361000000ED26F040ED16FD1C0A7F046D0300E8D
:10362000F66EF90EF76E000EF86E0800F550720A8D
:10363000D8B404D0000ED46F050E03D0000ED46FA2
:10364000030ED36FD3C0A7F030D0090E05D00A0EF9
:1036500003D00B0E01D00C0EA76F27D02E0EF66EE6
:10366000F90EF76E000EF86E0800F550CE6FCF6BB6
:10367000CF51000AD8A419D0CE51410AD8B4B9D735
:10368000050AD8B4E8D7020AD8B4B1D70C0AD8B41E
:1036900092D7070AD8B4C3D7030AD8B4DAD7010A35
:1036A000D8B4D5D71C0AD8B4D0D7D50E056E370EEE
:1036B000066EF90E076E000E096E020E086EB0EC73
:1036C000B0F0D50E056EBFECB3F0A66F260EC16F3D
:1036D000FD0EC26FDAECB6F0480E0001C16FFB0EB2
:1036E000C26FDAECB6F0000E2FECAAF0C10E0001AA
:1036F000C16FFE0EC26FDAECB6F023ECB3F0586E79
:10370000790E5818D8B40CD0590E5818D8B408D01F
:103710006E0E5818D8B404D04E0E5818D8A4EDD751
:10372000AD0E0001C16FFF0EC26F58C0C3F0C46B75
:10373000DAECB6F0790E5818D8B404D0590E5818EF
:10374000D8A41FD0AAC01BF0A9C01CF0A8C01DF0AF
:10375000A7C01EF0A6C01FF00001AB5129ECB2F0CB
:103760000F0E0001C16FFC0EC26FDAECB6F0010E55
:103770002FECAAF0FE0E0001C16FFD0EC26FDAEC55
:10378000B6F00F0E176E080E186E680E53ECB0F000
:10379000010E12006BAF6C936BBF05D06B5108E14B
:1037A0006A05D8B005D0000E3A6E010E396E04D00D
:1037B0006AC039F06BC03AF068C03BF069C03CF0B9
:1037C0006CA904D0FE0E3B26FF0E3C2224C03DF027
:1037D00025C03EF026C03FF027C040F028C041F091
:1037E00029C042F02AC043F02BC044F0000E466EC0
:1037F0001F0E456E000E0101BA6F93D04506D8A08A
:1038000046060F0E3D14476E486A48BE08D0485021
:1038100004E10A0E475CD8A002D0570E01D0300E4A
:103820004724476E000E4820486EBF0E2D6EFF0ED7
:103830002E6E2C502F6E306A2D502F262E50302297
:10384000305006E11A0E2F5CD8B002D0010E01D024
:10385000000E356E366A35503610D8B427D09F0E1C
:103860002D6EFF0E2E6E200E47102F6E000E48108C
:10387000306E2D502F262E503022305006E11A0E79
:103880002F5CD8B002D0010E01D0000E376E386A1E
:1038900037503810D8B40AD047C00BF048C00CF0ED
:1038A00050ECB2F00BC047F00CC048F09B0E452422
:1038B000D96E010E4620DA6E47C0DFFF3906D8A068
:1038C0003A063B06D8A03C063DC02DF03EC02EF087
:1038D0003FC02FF040C030F041C031F042C032F064
:1038E00043C033F044C034F0050E09D0D8903432D0
:1038F00033323232313230322F322E322D32E82E04
:10390000F5D72DC03DF02EC03EF02FC03FF030C0A7
:1039100040F031C041F032C042F033C043F034C017
:1039200044F046BE21D0465004E1020E455CD8A0CA
:103930001BD03D503E103F1040104110421043102C
:103940004410D8A45BD73ABE05D03A5002E13904FE
:10395000D8B054D73CBE08D03C5003E13B04D8A0BB
:1039600003D000016CB34AD700016CA916D04506FC
:10397000D8A046069B0E4524D96E010E4620DA6E6D
:103980002CC0DFFF4506D8A046069B0E4524D96E05
:10399000010E4620DA6E300EDF6E22C017F023C013
:1039A00018F09B0E4524196E010E46201A6E3BC07E
:1039B0001BF03CC01CF072ECABF017C022F018C03A
:1039C00023F012007A51D8A48CBA0ED0000E136ED8
:1039D000000E146E000E156E000E166E000E176EA1
:1039E000000E186E19ECA4F03DECB8F0828A0A0EB5
:1039F000276E03D049ECB8F027062750D8A4FAD791
:103A0000000E246E000E0D6E000E0E6E000E0F6E78
:103A1000000E106E400EDFECB2F0E806D8A4B1D074
:103A2000AA0E0D6E010E0E6E000E0F6E000E106EC1
:103A3000480EDFECB2F0E806D8A45CD0000E276E8A
:103A400027501D0FD96EDA6A49ECB8F0DF6E272ACD
:103A5000030E2764F5D71F04D8A493D0AA0E20180C
:103A6000D8A48FD0270E266E100E256E05D0BEEC82
:103A7000B7F02506D8A0260625502610D8B40ED0BB
:103A8000000E0D6E000E0E6E000E0F6E400E106ECC
:103A9000E90EDFECB2F00009D8A4E9D725502610D2
:103AA000D8B46FD0000E0D6E000E0E6E000E0F6EAD
:103AB000000E106E7A0EDFECB2F00009D8A461D0CF
:103AC000000E276E27501D0FD96EDA6A49ECB8F048
:103AD000DF6E272A030E2764F5D71DBC04D0000E25
:103AE000226E040E03D0000E226E0C0E216E21C039
:103AF00024F047D0000E0D6E000E0E6E000E0F6EFD
:103B0000000E106EE90EDFECB2F01C6E020E1C60AF
:103B100004D0020E246EE90E03D0010E246E410E75
:103B2000236E270E266E100E256E05D0BEECB7F064
:103B30002506D8A0260625502610D8B40ED0000E93
:103B40000D6E000E0E6E000E0F6E000E106E2350E6
:103B5000DFECB2F00009D8A4E9D725502610D8B47C
:103B60000ED0000E0D6E020E0E6E000E0F6E000EC9
:103B7000106E500EDFECB2F00009D8B402D0000E87
:103B8000246E24C07AF0828A49ECB8F02450D8A47C
:103B900002D0010E1200000E12006BAF6C936BBFCF
:103BA00005D06B5108E16A05D8B005D0000E356E1E
:103BB000010E346E04D06AC034F06BC035F068C0BA
:103BC00036F069C037F024C038F025C039F026C07F
:103BD0003AF027C03BF028C03CF029C03DF02AC095
:103BE0003EF02BC03FF0000E416E1F0E406E000EE7
:103BF0000101BA6F76D04006D8A041069B0E402442
:103C0000D96E010E4120DA6E38C005F039C006F0D9
:103C10003AC007F03BC008F03CC009F03DC00AF0D4
:103C20003EC00BF03FC00CF00A0E0D6E000E0E6E83
:103C3000000E0F6E000E106E000E116E000E126E52
:103C4000000E136E000E146E83ECA9F005C02CF06C
:103C500006C02DF007C02EF008C02FF009C030F0CC
:103C60000AC031F00BC032F00CC033F02C50300FD2
:103C7000DF6E3406D8A035063606D8A0370638C021
:103C800005F039C006F03AC007F03BC008F03CC070
:103C900009F03DC00AF03EC00BF03FC00CF00A0E28
:103CA0000D6E000E0E6E000E0F6E000E106E000EEA
:103CB000116E000E126E000E136E000E146EE0EC0C
:103CC000A6F005C038F006C039F007C03AF008C0C9
:103CD0003BF009C03CF00AC03DF00BC03EF00CC008
:103CE0003FF040504110D8B41BD0385039103A1032
:103CF0003B103C103D103E103F10D8A47CD735BE81
:103D000005D0355002E13404D8B075D737BE08D09D
:103D1000375003E13604D8A003D000016CB36BD751
:103D200022C017F023C018F09B0E4024196E010E1C
:103D300041201A6E36C01BF037C01CF072ECABF09D
:103D400017C022F018C023F012000001D16F00014B
:103D5000CC51D8B41200010EC16FFE0EC26FDAEC66
:103D6000B6F0BE0E0001C16FFE0EC26FCCC0C3F034
:103D7000C46BDAECB6F0EB0E0001C16FFC0EC26F43
:103D8000DAECB6F031D0510EC16FFF0EC26FDAEC33
:103D9000B6F046D0350EC16FFF0EC26FDAECB6F04A
:103DA0003FD0620EC16FFF0EC26FDAECB6F038D0B2
:103DB000CC0EC16FFE0EC26FDAECB6F031D0A90E98
:103DC000C16FFE0EC26FDAECB6F02AD05D0EC16F85
:103DD000FE0EC26FDAECB6F023D06A0EC16FFF0E92
:103DE000C26FDAECB6F01CD00001CC51CF6FD06BB3
:103DF000D051000AD8A4F1D7CF51010AD8B4C3D703
:103E0000030AD8B4C7D7010AD8B4CBD7070AD8B4A5
:103E1000CFD7010AD8B4D3D7030AD8B4D7D7DDD7C0
:103E2000B20E0001C16FFF0EC26FDAECB6F02AD0FD
:103E30009D0EC16FFF0EC26FDAECB6F03CD0D50E0E
:103E4000C16FFF0EC26FDAECB6F035D0CB0EC16F8A
:103E5000FF0EC26FDAECB6F02ED0970EC16FFF0ED8
:103E6000C26FDAECB6F027D0D00EC16FFF0EC26F72
:103E7000DAECB6F020D06A0EC16FFF0EC26FDAEC3A
:103E8000B6F019D00001D151CF6FD06BD051000ADC
:103E9000D8A4F1D7CF51000AD8B4CAD7010AD8B4F0
:103EA000CED7030AD8B4D2D7010AD8B4D6D7070AD6
:103EB000D8B4DAD7E0D7F80E0001C16FFE0EC26F9A
:103EC000DAECB6F00001CD51CE11D8B40CD0030E0F
:103ED000C16FFF0EC26FDAECB6F0CDC0C1F0CEC03C
:103EE000C2F0DAECB6F0A30E0001C16FFF0EC26F94
:103EF000DAECB6F012006EC035F06FC036F0265026
:103F00002510241004E1020E235CD8A010D020EE6E
:103F100006F03550D9263650DA22DE50235CDE50CA
:103F20002458DE502558DE502658D8A0A4D0010EC3
:103F3000236E000E246E000E256E000E266E1200FB
:103F4000310E136E146A20EE0AF03550D926365021
:103F5000DA22DECF27F0DECF28F0DECF29F0DECF69
:103F60002AF024502B6E25502C6E26502D6E2E6A72
:103F700027502B24156E28502C20166E29502D20EA
:103F8000176E2A502E20186EFF0E23142F6E000E6F
:103F90002414306ED8902F34196E30341A6E000EFF
:103FA0001C6E020E1B6EA2ECA4F00009D8A4BFD7B1
:103FB000310E056E2EECB4F005C023F006C024F0DF
:103FC000256A266A1200310E136E146A20EE0AF07A
:103FD0003550D9263650DA22DECF27F0DECF28F052
:103FE000DECF29F0DECF2AF023C02BF024C02CF046
:103FF00025C02DF026C02EF0080E05D0D8902E3208
:104000002D322C322B32E82EF9D727502B24156E67
:1040100028502C20166E29502D20176E2A502E2045
:10402000186E7F0E23142F6E000E2414306ED8905D
:104030002F363036D8902F3630362FC019F030C09A
:104040001AF0000E1C6E040E1B6EA2ECA4F0000908
:10405000D8A46DD7310E056E2BECA9F0FF0E051418
:10406000236EFF0E0614246EFF0E0714256E0F0E2E
:104070000814266E120035C0D9FF36C0DAFFDF50B3
:10408000276E286A2850000AD8A451D72750020A60
:10409000D8B456D7010AD8B496D749D76EC03FF0E6
:1040A0006FC040F03750D96EDA6ADECF38F0DDCF1E
:1040B00039F0010E3824456E000E3920466E455009
:1040C0004610D8B40BD03750D96EDA6A0B0ED92609
:1040D000DE50DE10DE10DE10D8A402D0030E120077
:1040E00045C038F00F0E3816D8A49BD03750D96E83
:1040F000DA6A0B0ED926DE2A000EDE22DE22DE224E
:104100003750D96EDA6A070ED926DE50DE10DE107F
:10411000DE10D8A40DD020EE04F03F50D926405038
:10412000DA22DE50455CDE504658D8B0D7D779D079
:1041300045C038F046C039F0040E3A6ED890393296
:1041400038323A2EFBD7FF0E3B6EFF0E3C6E20EE50
:1041500002F03F50D9264050DA22DF503D6E3E6AD1
:104160003B503D263C503E2238503D1639503E16BD
:104170003D503E10D8A455D03750D96EDA6A070E9C
:10418000D926DECF23F0DECF24F0DECF25F0DECF40
:1041900026F07BEC9FF023C041F024C042F025C004
:1041A00043F026C044F044504310421006E1020E92
:1041B000415CD8B002D0010E120020EE06F03F5054
:1041C000D9264050DA22DE50415CDE504258DE50A3
:1041D0004358DE504458D8B081D73750D96EDA6A88
:1041E000070ED92641C0DEFF42C0DEFF43C0DEFF1E
:1041F00044C0DEFF41C011F042C012F043C013F0D2
:1042000044C014F00CECA8F03750D96EDA6A0B0EEB
:10421000D92611C0DEFF12C0DEFF13C0DEFF14C0BE
:10422000DEFF3750D96EDA6A45C0DEFF46C0DDFFDB
:10423000000E1200000E1A6E000E196E000E136EA4
:10424000000E126E02D00C4A0D2A010E186E0CC020
:10425000F6FF0DC0F7FF000EF86E0800F550200ABB
:10426000D8B41AD0F70E0E6EFF0E0F6E0CC0F6FF0C
:104270000DC0F7FF000EF86E0800F550106E116AC1
:104280000E5010260F501122115004E1050E105C43
:10429000D8A002D0000E186E18C014F0156A145081
:1042A0001510D8B408D0CFD7000E136E010E126EC1
:1042B0000C4A0D2A32D00CC0F6FF0DC0F7FF000EDD
:1042C000F86E0800F5500E6E0F6A0F50000AD8A461
:1042D00024D00E502B0AD8B4EBD7060AD8B4E4D7B2
:1042E0001CD019C005F01AC006F0000E086E0A0EA8
:1042F000076E2BECB6F00CC0F6FF0DC0F7FF000EFA
:10430000F86E0800F550055E000E065A300E0524C2
:10431000196E000E06201A6ECBD7D00E0E6EFF0E51
:104320000F6E0CC0F6FF0DC0F7FF000EF86E080010
:10433000F550106E116A0E5010260F5011221150B8
:1043400006E10A0E105CD8B002D0010E01D0000EBA
:10435000166E176A16501710D8A4C3D71250131030
:10436000D8A40DD019C00EF01AC00FF00E1E0F1EEB
:104370000E4A0F2A0EC00CF00FC00DF0120019C02B
:104380000CF01AC00DF0120021EEBBF010EE15F08B
:10439000060EDBCFE3FFE806FCE212C020F013C0FC
:1043A00021F020502110D8A403D0150E206E216AD0
:1043B00020C005F021C006F001ECB3F005C024F0E8
:1043C00006C025F06AC022F06BC023F023BE0ED0D9
:1043D0002450225C2350800A146E2550800A145801
:1043E000D8B004D022C024F023C025F024C022F08D
:1043F00025C023F068C01EF069C01FF000016CA149
:104400000DD016D0000E086E200E076E10C009F0F9
:1044100011C00AF021ECAFF0244A252A1E50245C7A
:104420002550800A146E1F50800A1458D8A0EAD76D
:10443000000E1D6E000E1C6E1FD020C0F6FF21C0A6
:10444000F7FF000EF86E0E0EF76403D00800F5506B
:1044500005D0F6CFE1FFF7CFE2FFE750146E14501E
:10446000076E086A10C009F011C00AF021ECAFF025
:10447000204A212A1C4A1D2A22501C5C1D50800AF9
:10448000146E2350800A1458D8A0D7D700016CB1FD
:104490000DD016D0000E086E200E076E10C009F069
:1044A00011C00AF021ECAFF0244A252A1E50245CEA
:1044B0002550800A146E1F50800A1458D8A0EAD7DD
:1044C00024C010F025C011F0120002D04F4A502A2B
:1044D0004FC0F6FF50C0F7FF000EF86E0E0EF764E7
:1044E00003D00800F55005D0F6CFE1FFF7CFE2FF8B
:1044F000E750200AD8B4EAD74FC0F6FF50C0F7FF04
:10450000000EF86E0E0EF76403D00800F55005D0CB
:10451000F6CFE1FFF7CFE2FFE7502F0AD8A402D091
:104520004F4A502A4D50D96EDA6A030ED926DE6AF8
:10453000DE6ADE6ADD6A4FC0F6FF50C0F7FF000E8C
:10454000F86E0E0EF76403D00800F55005D0F6CFD4
:10455000E1FFF7CFE2FFE750516E200E51600BD024
:104560004DC01CF08AECA3F0526E4E50D96EDA6A40
:10457000000EDF6E3DD04DC00BF04F0E0C6E21ECE7
:10458000A5F0526E5250D8A433D04DC047F04EC063
:1045900048F00CECA6F0526E5250D8A429D04D50E1
:1045A000D96EDA6A020ED926DF50D96EDA6A0B0E9E
:1045B000D926DF50D8A41CD04E50D96EDA6A0B0E23
:1045C000D926DFB803D0030E526E12D04EC00CF0C5
:1045D00071ECADF04D50D96EDA6A030ED9260CC0DD
:1045E000DEFF0DC0DEFF0EC0DEFF0FC0DEFFC3D753
:1045F00052501200010EDF6F04ECB6F005C0E0F07F
:1046000006C0E1F007C0E2F008C0E3F07FD004ECA0
:10461000B6F00001E051055CD76FE1510658D86F44
:10462000E2510758D96FE3510858DA6FDA51D911BE
:1046300009E1B80ED75D0B0ED859D8A08DAC02D0C9
:10464000000EDF6F04ECB6F00001DB51055CD76FA4
:10465000DC510658D86FDD510758D96FDE51085824
:10466000DA6FDA51D91106E12D0ED75D010ED85956
:10467000D8A018D083AE02D0010E01D0000EFF0AE0
:10468000D76FD733D7338350D7197F0BD719836EA2
:1046900004ECB6F005C0DBF006C0DCF007C0DDF0CE
:1046A00008C0DEF004ECB6F00001E051055CD76F05
:1046B000E1510658D86FE2510758D96FE3510858B5
:1046C000DA6FDA51D91106E1B90ED75D0B0ED85960
:1046D000D8A01CD0DF51D8B419D0D451D511D611DF
:1046E000D8B414D0060E8719D8A404D0060E8619A3
:1046F000D8B40CD001D80AD00500FA6ED451FD6EA2
:10470000D551FE6ED651FF6EFA5012005A50D8A401
:1047100012007DD76EC025F06FC026F01C50D96EF8
:10472000DA6A000EDE6E000EDD6E1C50D96EDA6A9B
:10473000030ED926DECF27F0DECF28F0DECF29F01A
:10474000DECF2AF02704281029102A10D8B410D060
:1047500020EE06F02550D9262650DA22DE50275CBE
:10476000DE502858DE502958DE502A58D8A002D0F2
:10477000010E12002750281029102A10D8A416D094
:1047800025C0D9FF26C0DAFF030EDE18D8A40ED04C
:1047900020EE0EF02550D9262650DA22DECF27F063
:1047A000DECF28F0DECF29F0DECF2AF01C50D96E04
:1047B000DA6A070ED92627C0DEFF28C0DEFF29C02F
:1047C000DEFF2AC0DEFF2750281029102A10D8A4A7
:1047D0000FD020EE0EF02550D9262650DA22DECF5B
:1047E00021F0DECF22F0DECF23F0DECF24F012D096
:1047F00027C011F028C012F029C013F02AC014F00D
:104800000CECA8F011C021F012C022F013C023F06C
:1048100014C024F01C50D96EDA6A0B0ED92621C0C0
:10482000DEFF22C0DEFF23C0DEFF24C0DEFF000E5D
:104830001200010E196E13501410D8B421D015C0F7
:104840001AF016C01BF010D013C0D9FF14C0DAFF45
:10485000DF50CDECB7F0134A142A01016707D8A046
:1048600068071A06D8A01B061A501B10D8B405D02A
:10487000010167516811D8A4E7D7000E196E60D006
:104880001550161017101810D8B425D000017AB79B
:1048900008D0090ED8901536163617361836E82E79
:1048A000F9D715C00DF016C00EF017C00FF018C0E4
:1048B00010F0580EDFECB2F00009D8A441D0FF0E82
:1048C000CDECB7F0FE0ECDECB7F0020E0101686F33
:1048D000000E676FD2D7020E010167251A6E000E17
:1048E00068211B6E03D0000ECDECB7F01A06D8A0DD
:1048F0001B061A28F8E11B28D8A4F5D749ECB8F014
:104900001F0B050AD8A419D0130E1B6E880E1A6E41
:1049100005D0BEECB7F01A06D8A01B0649ECB8F0DB
:10492000FF0AD8B404D01A501B10D8A4F2D71A50DA
:104930001B10D8B402D0000E196E828A49ECB8F070
:104940001950120000017AB708D0090ED890153618
:10495000163617361836E82EF9D7010E1F6E15C019
:104960000DF016C00EF017C00FF018C010F0510E69
:10497000DFECB2F00009D8A45FD09C0E226E400E8E
:10498000216E49ECB8F0206E2028D8A407D021066B
:10499000D8A0220621502210D8A4F3D7FE0E20184A
:1049A000D8A44AD019C01DF01AC01EF01D1E1E1E2C
:1049B0001D4A1E2A1B501D5E1C501E5A020E1D242D
:1049C000216E020E1E20226E19501A10D8B409D082
:1049D00049ECB8F01906D8A01A0619501A10D8A434
:1049E000F7D713501410D8B411D049ECB8F013C055
:1049F000D9FF14C0DAFFDF6E134A142A1B06D8A0B1
:104A00001C061B501C10D8B40CD0EFD749ECB8F0E2
:104A1000C5ECB8F01B06D8A01C061B501C10D8A46F
:104A2000F5D749ECB8F02106D8A022062150221073
:104A3000D8A4F7D7000E1F6E828A49ECB8F01F5039
:104A400012000B50D96EDA6A020ED926DF50136EAF
:104A500013C005F0000E076E200E066E000E096EE4
:104A60000B0E086E51ECB6F0000E146E14C012F06E
:104A7000080E116E0C50D96EDA6ADECF0FF0DDCF62
:104A800010F012500F240D6E000E10200E6E0DC08F
:104A9000F6FF0EC0F7FF000EF86E0E0EF76403D09F
:104AA0000800F55005D0F6CFE1FFF7CFE2FFE75061
:104AB000156E122A200E156422D02F0E1518D8B4A8
:104AC0001ED02E0E1518D8B404D01150145CD8A0E6
:104AD0000FD0080E1118D8A412D02E0E1518D8A475
:104AE0000ED0080E146E0B0E116ECBD7142AC9D738
:104AF00013501424D96EDA6A15C0DFFFF7D71250AD
:104B00000F240D6E000E10200E6E0C50D96EDA6A56
:104B10000DC0DEFF0EC0DDFF1350D96EDA6A0B0E3A
:104B2000D926200E156401D002D0010E01D0000E4E
:104B3000DF6E000E120023C013F0146A24C015F0BB
:104B400025C016F026C017F027C018F0010E1A6E07
:104B5000FE0E196E000E1C6E020E1B6EA2ECA4F06F
:104B60000009D8B402D0030E120023C005F02EECC9
:104B7000B4F0550E051804E1AA0E0618D8B402D0F8
:104B8000020E120023C013F0146A24C015F025C0D1
:104B900016F026C017F027C018F0000E1A6E360E59
:104BA000196E000E1C6E020E1B6EA2ECA4F0000922
:104BB000D8A40DD023C005F02EECB4F0460E051895
:104BC00006E1410E0618D8A402D0000E120023C040
:104BD00013F0146A24C015F025C016F026C017F093
:104BE00027C018F0000E1A6E520E196E000E1C6EC1
:104BF000020E1B6EA2ECA4F00009D8A40BD023C0B7
:104C000005F02EECB4F0460E051804E1410E06182E
:104C1000D8B4DBD7010E120047C01CF08AECA3F019
:104C20004C6E4C50D8B402D04C50120048C013F017
:104C3000146A4750D96EDA6A0B0ED926DECF15F00A
:104C4000DECF16F0DECF17F0DECF18F04750D96E6A
:104C5000DA6ADECF49F0DDCF4AF00F0E4916000EBA
:104C60004A16050ED89049364A36E82EFBD749C079
:104C700019F04AC01AF0000E1C6E200E1B6EA2EC3A
:104C8000A4F00009D8B402D0010E01D0000E4C6E81
:104C90004C50D8A4C9D74850D96EDA6ADF504B6E51
:104CA0004B50D8A403D0030E4C6EBED74850D96EDB
:104CB000DA6A0B0ED926DFB613D048C005F047508C
:104CC000D96EDA6A020ED926DF50066E000E086E23
:104CD0000B0E076EDCECB0F005500610D8B4A4D76C
