:040000005AEF00F0C3
:100008005B82FACF01F0FBCF02F0D9CF03F0DACF51
:1000180004F00E01BDBBC5AB03D0CAECB5F03CD0B3
:10002800F2AC3AD0C0BDC8AD0BD001D835D0050070
:10003800FA6E01015151FD6E5251FE6E535129D095
:10004800C0BFC8AF0BD001D827D00500FA6E010198
:100058004E51FD6E4F51FE6E50511BD0C0B9C8A90C
:100068000BD001D819D00500FA6E01016051FD6E60
:100078006151FE6E62510DD0C0BBC8AB0DD001D826
:100088000BD00500FA6E01015D51FD6E5E51FE6EEA
:100098005F51FF6EFA50120004C0DAFF03C0D9FFA7
:1000A80002C0FBFF01C0FAFF5B9211005AEFA8F0F3
:10F3040000C86F01686F015A6F012E5701025B013B
:10F31400BE6F015E5F012470011C70011470010C4A
:10F324007001047001FC6F01F46F01B46F01266277
:10F33400011F1C1F1E1F1E1F1F1E1F1E1F00040057
:10F34400000010000000040000000400000004009D
:10F354000000040000000400000004000000C007D6
:10F364000001409F00F84EFC20FC30FC107C204043
:10F374004E714E0027724E63010E0D0C0B0A04FAF7
:10F384004FF90007FFFA43FA0480610002E06100CC
:10F3940003F8B03C000266000038203C000005A8D9
:10F3A40041F90007C04443F9000F800012D851C846
:10F3B400FFFC4FF9000FBFFE247C000F7FFF4EF9C6
:10F3C400000F800043FA04D3610002A26000002A07
:10F3D400B03C00016600001443FA04B96100028ED7
:10F3E400247C0007BFFF6000001043FA04A1610001
:10F3F400027C247C0001BFFF103A040AB03C0001E7
:10F404006700000E43FA04B5610002626000000A5E
:10F4140043FA048E6100025643FA041A6100024E54
:10F424006100032E42856100023061000260B03C3D
:10F434000053670000587A036000002CB03C000AB7
:10F4440066000040700D61000244600000366100F7
:10F45400020861000238B03C000D66E0700A6100E9
:10F46400022C4A0567C0BA3C000167000240BA3C5E
:10F47400000267000248BA3C0003670002506000C3
:10F4840002E8B03C00536700000460C2610001CA96
:10F49400610001FAB03C003067B4B03C0031670051
:10F4A400001CB03C00326700005CB03C0035679E35
:10F4B400B03C0038670000AC600001E24284740193
:10F4C40061000128D8013601594374036100011C0D
:10F4D400D801E059D801E059204174016100010CC0
:10F4E400D8011081B218670000047A0151CBFFECF7
:10F4F40046047401610000F4B8016700FF527A0207
:10F504006000FF4C4284343C0001610000DED801FD
:10F5140036015B43343C0005610000D0D801E0991A
:10F52400D801E099D801E099E0992041343C0001E8
:10F53400610000B8D801610001F01081B2186700C1
:10F5440000061A3C000151CBFFE44604343C0001A0
:10F5540061000098B8016700FEF61A3C00026000E2
:10F56400FEEE4284343C000161000080D801360183
:10F574005B43343C000561000072D801E099D80176
:10F58400E099D801E099E09920414604343C000117
:10F5940061000058B8016700000A1A3C00026000CC
:10F5A400FEAE43FA02AB610000C443FA02C261003A
:10F5B40000BC6100019C43FA02CF610000B043FA31
:10F5C400028F610000A843FA0291610000A02C0898
:10F5D4006100014243FA022F610000926100014A76
:10F5E40043FA0223610000864ED04281616A6100C1
:10F5F400009C6118B03C00FF660000087A036000BC
:10F60400FE66E989D20051CAFFE44E75B03C00663B
:10F614006200002AB03C006062000038B03C004642
:10F624006200001AB03C004062000018B03C00398F
:10F634006200000AB03C002F6200001070FF6000FE
:10F644000016040000376000000E04000030600063
:10F654000006040000574E751039000FFFFE080025
:10F66400000267F41039000FFFFD4E752F001019CA
:10F67400B03C00006700001213FC0001000FFFFD06
:10F6840013C0000FFFFC60E6201F4E7513FC000141
:10F69400000FFFFD13C0000FFFFC4E7543FA01B1CC
:10F6A40061CA43FA026D61C4600000BE43FA01A15D
:10F6B40061BA43FA027661B4600000AE43FA019184
:10F6C40061AA43FA028161A46000009E43FA0181A9
:10F6D400619A43FA028361946000008E0247000F2E
:10F6E400BE3C0009650000045E070647003013FCB9
:10F6F4000001000FFFFD13C7000FFFFC4E751E062F
:10F70400E81F61D81E0661D44E75E09E61F0E19E4B
:10F7140061EC4E75484661E6484661EE4E754846D2
:10F7240061E8484661E44E75B1CA620000044E7552
:10F7340043FA011D6100FF3643FA019C6100FF2E6C
:10F744002C0861D043FA00BF6100FF226000001A58
:10F754001039000FFFFE080000026700000A10398C
:10F76400000FFFFD60EA4E7543FA017F6100FEFE63
:10F7740023FC000000010000002023FC0000000125
:10F784000000000C4E7207001039000FFFFE080045
:10F7940000036600003A41FA006C421013FC005565
:10F7A400000FBFF01039000FBFF0B03C00556600E9
:10F7B400001E13FC00AA000FBFF01039000FBFF0A9
:10F7C400B03C00AA66000008103C00024E7513FC11
:10F7D40000550001AFF010390007AFF0B03C005500
:10F7E4006600001C13FC00AA0001AFF010390007EA
:10F7F400AFF0B03C00AA6600000642004E75103C13
:10F8040000014E75010D0A00734C6F6164202D20B8
:10F81400532D7265636F7264204C6F61646572204E
:10F824002D20533138303232312D5231353035328A
:10F83400310D0A0057616974696E6720696E7075CD
:10F84400742073747265616D2E2E2E0D0A0A000DDC
:10F854000A734C6F61643A20005374617274696E68
:10F864006720416464726573733A20307800466C93
:10F87400757368696E6720696E7075742062756649
:10F884006665722E2E2E0020646F6E65003132384C
:10F894004B42003531324B4200313032344B42005E
:10F8A400202D204C69746520485720636F6E66696B
:10F8B4006775726174696F6E0D0A00202D2046759C
:10F8C4006C6C20485720636F6E666967757261744B
:10F8D400696F6E0D0A00496C6C6567616C20416448
:10F8E400647265737320307800734C6F61643A20DE
:10F8F4004C6F616465722061626F72746564202D5F
:10F904002053797374656D2068616C7465640D0AA5
:10F9140000496C6C6567616C20532D7265636F726E
:10F92400642074797065210D0A0052414D2077726C
:10F9340069746520766572696679206661696C65AB
:10F9440064210D0A00436865636B73756D206572ED
:10F95400726F72210D0A00496C6C6567616C2063DB
:10F964006861726163746572210D0A004E6F7620BE
:10F97400313720323032310031353A32383A333887
:10F98400000D0A0A36386B2D4D4243202D2041309C
:10F9940039313032302D523134303232310D0A495E
:10F9A4004F53202D20492F4F205375627379737460
:10F9B400656D202D20533331303132312D523039A1
:10F9C400313132315F444556454C310D0A0A000D40
:10F9D4000A507265737320435220746F206163630D
:10F9E4006570742C2045534320746F2065786974C6
:10F9F400206F7220616E79206F74686572206B6568
:10FA04007920746F206368616E67650D0A0A00438C
:10FA140068616E67656420737065656473207769D7
:10FA24006C6C206265206566666563746976652022
:10FA34006166746572206E657874207265626F6F9A
:10FA440074210D0A0A000D0A507265737320542F35
:10FA54005520746F20696E6372656D656E74202B1A
:10FA640031302F2B31206F7220435220746F20616C
:10FA740063636570740D0A000D0A494F533A2053AD
:10FA8400656C65637420626F6F74206D6F646520AC
:10FA94006F722073797374656D20706172616D6526
:10FAA400746572733A0D0A000A0D494F533A2043A4
:10FAB40050552062757320666174616C20657272A2
:10FAC4006F7220636F64653A202575202D20416292
:10FAD4006F727465640A0D00494F533A204175747E
:10FAE4006F626F6F74206C6F6164203078253035DD
:10FAF4006C78202D20657865632030782530356C4E
:10FB040078200A0D00494F533A20436865636B20FF
:10FB1400534420616E642070726573732061206B9E
:10FB2400657920746F207265706561740D0A0A002E
:10FB34000D0A0A494F533A20426175642072656385
:10FB44006F76657279202D20506C65617365207223
:10FB540065626F6F74206E6F7721000A446F20799D
:10FB64006F752077616E742073657420525443203E
:10FB7400617420494F5320636F6D70696C65207404
:10FB8400696D65202800494F533A2052544320445C
:10FB940053333233312074656D70657261747572DC
:10FBA400652073656E736F723A202575430D0A00E4
:10FBB400494F533A20363830303820435055206965
:10FBC400732072756E6E696E672066726F6D206E3B
:10FBD4006F770A0A0D00494F533A204C6974652027
:10FBE400485720636F6E66696775726174696F6EDA
:10FBF4002064657465637465640A0D00494F533A63
:10FC04002046756C6C20485720636F6E6669677573
:10FC1400726174696F6E2064657465637465640AE7
:10FC24000D00494F533A20525443207365742061A8
:10FC34007420636F6D70696C652074696D65202D27
:10FC4400204E6F773A20000D0A0A494F533A204557
:10FC54006D7074792066696C65202D204C6F616429
:10FC64002061626F72746564210020363A20436813
:10FC7400616E67652073657269616C20706F727460
:10FC8400732073706565640D0A00494F533A20462A
:10FC94006F756E6420525443204453333233312001
:10FCA4004D6F64756C652028000A0A0D494F533A5C
:10FCB40020556E6B6E6F776E20495251202D204176
:10FCC400626F72746564000D0A494F533A205254AE
:10FCD40043206D616E75616C2073657474696E6721
:10FCE4003A0D0A00494F533A205254432064617438
:10FCF400652F74696D65207570646174656420286E
:10FD04000020373A204368616E67652043502F4DC9
:10FD1400204175746F6578656320282D3E00203876
:10FD24003A204368616E6765205254432074696DBC
:10FD3400652F646174650D0A00494F533A2052548B
:10FD44004320636C6F636B206661696C7572652117
:10FD54000D0A00494F533A204C6F6164696E672065
:10FD6400626F6F742070726F6772616D0020323A37
:10FD740020456E68616E6365642036384B204261AD
:10FD84007369630D0A00494F533A20466F756E64D8
:10FD940020475045204F7074696F6E0D0A00494F1B
:10FDA400533A2043502F4D204175746F6578656335
:10FDB40020697320000D20202020202020202020D6
:10FDC40020202020202020202000456E74657220F1
:10FDD400796F75722063686F696365203E00202027
:10FDE4002020202020202020202020202020200D22
:10FDF4000020343A204C6F6164204F532066726FA8
:10FE04006D2000202E2E2E646F6E65202020202071
:10FE1400200D0A000D0A494F533A205344206572BD
:10FE2400726F7220000D202D3E53657269616C2043
:10FE340025753A200020303A204E6F206368616EA9
:10FE4400676520280020333A204175746F626F6F14
:10FE5400740D0A000D0A20353A204368616E676507
:10FE64002000494F533A2043757272656E74200026
:10FE74004E4F5F46494C4553595354454D004155E7
:10FE8400544F424F4F542E42494E004155544F4215
:10FE94004F4F542E4144520020313A20734C6F612D
:10FEA400640D0A005365636F6E6473202D3E200059
:10FEB4004D696E75746573202D3E20004E4F545F5E
:10FEC400454E41424C4544004469736B205365746C
:10FED40020257500293F205B592F4E5D203E004EA2
:10FEE4004F545F4F50454E454400454241534943AA
:10FEF4002E42494E00206F7065726174696F6E0006
:10FF0400202D2046696C653A20004D6F6E74682080
:10FF14002D3E2000486F757273202D3E20000D2069
:10FF2400446179202D3E200043504D36382E4249FD
:10FF34004E004E4F545F52454144590025632020E2
:10FF44004F6B0D0A0059656172202D3E2000444913
:10FF5400534B5F4552520020646F6E650A0D004E8C
:10FF64004F5F46494C4500554E4B4E4F574E00315E
:10FF74003135323030002575290D0A004F46460DC3
:10FF84000A002028257329003139323030003537F2
:10FF9400363030005752495445004D4F554E5400A9
:10FFA400290D0A0A004F4E0D0A0025630D0A002090
:10FFB4006F6E200031323030003234303000393648
:10FFC4003030000D202D3E0052454144005345453C
:10FFD4004B004F50454E0020204F6B002E2E2E001C
:10FFE400333030004F4646006C58006C6E006C7520
:0CFFF400006C78004F4E002F003A000017
:020000040001F9
:100000009FECB3F0000E01013E6F000E3F6F000E3B
:10001000406F000E416F840E056E6F0E066E010E6E
:10002000076E60ECB7F0F28EF28CCE0E0F01096F06
:10003000CF0E196F000E1E6FFD0E266FCFECB7F0BE
:1000400000018F6F8F51D8B407D0EEECB7F0000EDF
:100050000001FD6F010E8E6F8390090E0001F36F9A
:100060001E0EF26FE40EE82EFED7F22FFCD7F32F10
:10007000FAD700F08380290E0001F36F960EF26F1D
:100080007F0EE82EFED7F22FFCD7F32FFAD78DBCC8
:1000900003D0010E00018D6F000E066E0C0E056E72
:1000A00010ECB7F00001846F8451D8B40BD0000E6F
:1000B0000A6E0C0E096E000E0B6EE1ECB4F0000E31
:1000C0000001846F000E066E0D0E056E10ECB7F089
:1000D0000001896F060E89650AD0060E896F000E31
:1000E0000A6E0D0E096E89C00BF0E1ECB4F0000E43
:1000F000066E0E0E056E10ECB7F00001886F060E4E
:1001000088650AD0060E886F000E0A6E0E0E096E04
:1001100088C00BF0E1ECB4F000018951B7ECACF011
:1001200006C005F0066A05509B6E00018951B7ECC8
:10013000ACF005509A6E00018851B7ECACF006C0E7
:1001400005F0066A05500E01976F00018851B7EC63
:10015000ACF005500E01966F850E0001C16FF90ECF
:10016000C26F66ECB6F000018F51D8B407D0DA0E3A
:10017000C16FFB0EC26F66ECB6F006D0000EC16F09
:10018000FC0EC26F66ECB6F0110E0001F36F3C0E70
:10019000F26FCB0EE82EFED7F22FFCD7F32FFAD753
:1001A0001BECB7F0F5EC99F000017D6F200EE9EC47
:1001B000B0F00009D8A402D0010E7F6F7F51D8B4EF
:1001C00006D08A0EC16FFD0EC26F66ECB6F0A20EAD
:1001D0000001C16FFD0EC26F66ECB6F0000E066E38
:1001E0000B0E056E10ECB7F00001F26F010EF26518
:1001F00008D0000E0A6E0B0E096E000E0B6EE1ECBD
:10020000B4F0000E066E0B0E056E10ECB7F0000198
:10021000826F8251D8B407D0A90EC16FFF0EC26F92
:1002200066ECB6F006D0800EC16FFF0EC26F66ECB2
:10023000B6F06F0E3E6E010E3F6E25ECB7F06F0EFE
:100240003E6E010E3F6E25ECB7F0000E066E0A0EF4
:10025000056E10ECB7F000018C6F8D05D8B406D098
:10026000030E8C6523D202D0AFECB2F05A50D8A462
:10027000FBD77C0E0001C16FFA0EC26F66ECB6F0C0
:10028000030E00018C650BD0000E0A6E0A0E096E7B
:10029000000E0B6EE1ECB4F0000E00018C6F390E15
:1002A000C16FFE0EC26F66ECB6F07A0E0001C16F30
:1002B000FF0EC26F010E8C25C36FC46B000EC423EA
:1002C00066ECB6F09C0E0001C16FFE0EC26F66ECCC
:1002D000B6F0710E0001C16FFD0EC26F66ECB6F094
:1002E000490E0001C16FFE0EC26F66ECB6F0F50E4E
:1002F0000001C16FFD0EC26F66ECB6F000018451C3
:100300000EECB0F0580E0001C16FFE0EC26F66EC2D
:10031000B6F0000184510EECB0F0150E0001C16F73
:10032000FE0EC26F66ECB6F06E0E0001C16FFC0EE1
:10033000C26F66ECB6F0050E0001C16FFD0EC26F14
:1003400066ECB6F000018251D8A407D0F80EC16F58
:10035000FF0EC26F66ECB6F006D0E80EC16FFF0E5E
:10036000C26F66ECB6F07C0E0001C16FFF0EC26F6B
:1003700066ECB6F000017D51D8B409D0220EC16FF1
:10038000FD0EC26F66ECB6F0380E0001FC6F150E64
:10039000C16FFE0EC26F66ECB6F0CE0E0001C16FEB
:1003A000FD0EC26F66ECB6F0E00E0001D46F580E81
:1003B000D56F010ED66F86ECA2F0AFECB2F0586E9E
:1003C0002F0E5864F1D758500001FC5DD8A0ECD72F
:1003D000400EC16FFF0EC26F58C0C3F0C46B66EC15
:1003E000B6F036D142ECB7F084C057F0000E576E2D
:1003F000C70E0001C16FFF0EC26F66ECB6F057501A
:100400000EECB0F0E20E0001C16FFD0EC26F66ECA3
:10041000B6F002D0AFECB2F05A50D8A4FBD7000E21
:100420000001D46F000ED56F000ED66F86ECA2F0DF
:10043000AFECB2F0586E0D0E5818D8B404D01B0EA5
:100440005818D8A4D3D7460E0001C16FFA0EC26F58
:1004500066ECB6F00D0E5818D8A40FD157C084F032
:10046000000E0A6E0C0E096E57C00BF0E1ECB4F0F2
:1004700004D1000E8A6F010E8B6F020E8B6501D0C6
:10048000C3D042ECB7F000018B05D8A407D0000E12
:10049000066E0D0E056E10ECB7F006D0000E066E5F
:1004A0000E0E056E10ECB7F0576E5706572A060E63
:1004B000576402D0000E576EB90E0001C16FFD0ED9
:1004C000C26F66ECB6F0290E0001C16FFE0EC26F5E
:1004D0008BC0C3F0C46B66ECB6F031D0E40EC16FD4
:1004E000FF0EC26F66ECB6F04BD0B80EC16FFF0EB8
:1004F000C26F66ECB6F044D0BD0EC16FFF0EC26F86
:1005000066ECB6F03DD0C20EC16FFF0EC26F66EC56
:10051000B6F036D08C0EC16FFF0EC26F66ECB6F02F
:100520002FD0920EC16FFF0EC26F66ECB6F028D0CE
:10053000730EC16FFF0EC26F66ECB6F021D057503C
:100540000001F26FF36BF351000AD8A419D0F251F5
:10055000000AD8B4C3D7010AD8B4C7D7030AD8B49D
:10056000CBD7010AD8B4CFD7070AD8B4D3D7010A5A
:10057000D8B4D7D7030AD8B4DBD702D0AFECB2F0E7
:100580005A50D8A4FBD7000E0001D46F000ED56FCF
:10059000000ED66F86ECA2F0AFECB2F0586E0D0EE6
:1005A0005818D8B404D01B0E5818D8A47FD70D0EF5
:1005B0005818D8A41FD0DB0E0001C16FFF0EC26F08
:1005C00066ECB6F000018B05D8A409D0000E0A6EC7
:1005D0000D0E096E57C00BF0E1ECB4F008D0000E20
:1005E0000A6E0E0E096E57C00BF0E1ECB4F000017C
:1005F0008A258A6F480E0001C16FFA0EC26F66EC41
:10060000B6F000018B2B39D7150EC16FFE0EC26FED
:1006100066ECB6F000018A51D8B42FD0130EC16F2A
:10062000FA0EC26F66ECB6F028D08251D8A402D080
:10063000010E01D0000E826F000E0A6E0B0E096EC5
:1006400082C00BF0E1ECB4F018D01CEC8FF015D0A8
:1006500058500001F26FF36BF351000AD8A40DD08B
:10066000F251350AD8B4BED6030AD8B402D7010A6B
:10067000D8B4DBD70F0AD8B4E8D7839E5850CF0F31
:1006800000018C6F040E8C6109D0000E0A6E0A0EF8
:10069000096E8CC00BF0E1ECB4F008D0000E066ED1
:1006A0000A0E056E10ECB7F000018C6F030E00010E
:1006B0008C19D8A4C7D0660EC16FFE0EC26F66EC4F
:1006C000B6F0000184510EECB0F0150E0001C16FC0
:1006D000FE0EC26F66ECB6F0B5D0840E0101696FF4
:1006E000F30E6A6FEC0E2E6F050E2F6F000E306F3B
:1006F000000E316F000E0001606FC00E616F070EBB
:10070000626F000E636F000E646FC00E656F070EA0
:1007100011D0EE0E786FFE0E796F000E606F040E32
:10072000616F000E626F000E636F000E646F040E47
:10073000656F000E666F000E676F99D0000E606FD8
:10074000040E616F000E626F000E636F000E646F27
:10075000040E656F000E666F000E676F8F0E786F68
:10076000FE0E796F8F0E556EFE0E566E52ECB7F080
:100770000009D8A43AD0A00E446E060E456EA20E13
:10078000466E0FECB5F0A35104E1070EA25DD8A0B0
:100790002CD0A00E376E060E386EB90E396E010ED3
:1007A0003A6E000E3C6E100E3B6EEEECB3F037C0AE
:1007B00060F038C061F039C062F03AC063F0B9C18E
:1007C00037F0BAC138F0000E396E000E3A6E000EE6
:1007D0003C6E100E3B6EEEECB3F037C064F038C0E8
:1007E00065F039C066F03AC067F0DC0E0001C16FF9
:1007F000FA0EC26F60C0C3F061C0C4F062C0C5F041
:1008000063C0C6F064C0C7F065C0C8F066C0C9F078
:1008100067C0CAF066ECB6F0820E0001786FFE0E7B
:10082000796F25D02C0E786FFF0E76D78451F26F3A
:10083000F36BF351000AD8A41AD0F251000AD8B4CD
:10084000F1D715D000018C51F26FF36BF351000A10
:10085000D8A40DD0F251000AD8B43FD7010AD8B4B9
:1008600058D7030AD8B46AD7010AD8B4DFD7570ECD
:10087000C16FFD0EC26F66ECB6F000018C51D8B4AA
:1008800010D0860EC16FFF0EC26F78C0C3F079C062
:10089000C4F066ECB6F078C0ECF079C0EDF0D3ECC3
:1008A000A6F0E00EC16FFF0EC26F66ECB6F0000E50
:1008B00075ECAEF0000E75ECAEF0100E75ECAEF00F
:1008C000000E75ECAEF0000E75ECAEF0000E75EC9F
:1008D000AEF0040E75ECAEF0000E75ECAEF0200E2E
:1008E00075ECAEF07C0E75ECAEF0000E75ECAEF073
:1008F000000E75ECAEF0000E75ECAEF0000E75EC6F
:10090000AEF0200E75ECAEF0FC0E75ECAEF0000E05
:1009100075ECAEF0000E75ECAEF0100E75ECAEF0AE
:10092000000E75ECAEF0200E75ECAEF0FC0E75EC22
:10093000AEF0FDECADF00001675175ECAEF00001DA
:10094000665175ECAEF00001655175ECAEF000013A
:10095000645175ECAEF0200E75ECAEF07C0E75ECCB
:10096000AEF0FDECADF00001635175ECAEF00001AE
:10097000625175ECAEF00001615175ECAEF0000112
:10098000605175ECAEF000018C51D8B47AD0A00E55
:10099000446E060E456EA20E466E0FECB5F0856FE6
:1009A000A251A311D8B402D0000EFA6F000E716FDD
:1009B000000E706F37D0200E75ECAEF0FC0E75ECAB
:1009C000AEF0FDECADF0A00E00017025D96E060E64
:1009D0007121DA6EDF5075ECAEF0A10E00017025CA
:1009E000D96E060E7121DA6EDF5075ECAEF0A20EF4
:1009F00000017025D96E060E7121DA6EDF5075EC9C
:100A0000AEF0A30E00017025D96E060E7121DA6ECC
:100A1000DF5075ECAEF0040E00017025706F000E13
:100A20007121716FA251705DA3517159D8A0C3D7C4
:100A3000020EA319A211D8A403D08551D8B4A7D708
:100A40008551D8B411D085C0CCF078C0CDF079C034
:100A5000CEF0020E31EC9EF001ECB6F0000E4D6EC1
:100A6000000E4C6E07ECB4F08551D8A490D7FA5123
:100A7000D8B441D04B0EC16FFC0EC26F66ECB6F01D
:100A8000FFD7000E0101326F000E336F000E346F7E
:100A9000000E356F26D0100E75ECAEF0FC0E75EC26
:100AA000AEF0FDECADF0000E75ECAEF00101325190
:100AB00069250001F26F010133516A210001F36FD2
:100AC000F2C0F6FFF3C0F7FF000EF86E0800F55015
:100AD00075ECAEF0010E01013227000E33233423F2
:100AE00035232E51325D2F51335930513459315104
:100AF0003559D8A0D0D74E0E75ECAEF0720E75EC0D
:100B0000AEF0FDECADF0270E75ECAEF0000E75EC1E
:100B1000AEF05B0E0001C16FFF0EC26F66ECB6F067
:100B2000869286900E0128510209286F150E000149
:100B3000F26FC60EE82EFED7F22FFCD700F08682A9
:100B40008680B40E0001C16FFB0EC26F66ECB6F07A
:100B50000E0127AB07D18CB23DD08EA204D000018C
:100B6000F26BF22B02D00001F26B8EA402D0010EC8
:100B700001D0000E020DF350F225946F8FCF59F083
:100B80000AD065EC8AF018D059C0FFF0000E7B6FD8
:100B9000000E7A6F11D09451F26FF36BF351000A8B
:100BA000D8A40AD0F251000AD8B4EBD7010AD8B4BD
:100BB000EBD7030AD8A4010AF29E0E013251800934
:100BC000326F00F000F000F00E0132517F0B326FF7
:100BD000F28EC8D08DB684D08EA204D00001F26B04
:100BE000F22B02D00001F26B8EA402D0010E01D0D4
:100BF000000E020DF350F225946F000E596E3FD097
:100C000071EC98F050D059685A50D8B403D0AFEC7A
:100C1000B2F033D0868447D09551D8B403D0F26B6C
:100C2000F22B02D00001F26B050EF36FD890F23771
:100C3000F32FFCD78FC0F4F0D890F437D890F43766
:100C4000D890F4375A50D8B403D0F56BF52B02D0B6
:100C50000001F56BD890F537D890F5377D517D259B
:100C6000F511F411F21182111009596E1CD0596856
:100C70009551D8B4CFD725ECB2F0596ECBD794515B
:100C8000F26FF36BF351000AD8A40DD0F251000AB1
:100C9000D8B4B6D7010AD8B4B6D7030AD8B4BCD7EB
:100CA000010AD8B4E4D7869200018EB102D08290B6
:100CB00001D08280000E8A6E59C085FF0E0132512C
:100CC0008009326F00F000F000F000F000F000F05A
:100CD0008A680001FDB102D0829001D082803DD0AF
:100CE00000019051D8B406D0420E596E000E906F9C
:100CF000868418D05A50D8B405D09351D8B402D0B5
:100D0000400E07D09551D8B406D09251D8B403D034
:100D1000410E596E07D0AD0EC16FFC0EC26F66EC6E
:100D2000B6F0FFD786928EB102D0829001D0828039
:100D3000000E8A6E59C085FF0E0132518009326F54
:100D400000F000F000F000F000F000F08A68000110
:100D5000FDB102D0829001D082800E0132517F0B12
:100D6000326F86825A50D8B404D000019351D8A46F
:100D7000869400019551D8B403D09251D8A486949A
:100D80009151D8B4E5D690ECB5F001013A51055C2B
:100D90000001F26F01013B5106580001F36F0101A0
:100DA0003C5107580001F46F01013D510858000102
:100DB000F56FFEC0F6F0F76BF86BF96BF251F65D6C
:100DC000F351F759F451F859F551F959D8B0C0D643
:100DD0008694010E906F90ECB5F005C03AF106C014
:100DE0003BF107C03CF108C03DF1B2D64B50D96E83
:100DF000DA6ADECFF6FFDDCFF7FF000EF86E0800EF
:100E0000F550250AD8A447D34B50D96EDA6ADE2AAA
:100E1000000EDD22000E0001696F000E686F68C0D1
:100E20006CF069C06DF06A696B69000EB16F000EFD
:100E300013D06C814B50D96EDA6ADE2A000EDD22A7
:100E40002FD06C83F7D76C85F5D76C87F3D76C8977
:100E5000F1D7000EB16F010EB06F22D04B50D96E9A
:100E6000DA6ADECFF6FFDDCFF7FF000EF86E08007E
:100E7000F5504D6E4E6A4E50000AD8A4EAD74D5038
:100E8000200AD8B4E2D7030AD8B4E1D7080AD8B404
:100E9000DAD7060AD8B4CDD71D0AD8B4D2D7D9D755
:100EA000B051B111D8B4DAD76CB16C934B50D96E44
:100EB000DA6ADECFF6FFDDCFF7FF000EF86E08002E
:100EC000F5502A0AD8A41AD04B50D96EDA6ADE2A15
:100ED000000EDD224C50D96EDA6A020EDF26DF5C8E
:100EE000D96EDA6ADECF68F0DECF69F069AF3FD045
:100EF0006C81686D691FD8B0692B39D04B50D96EA1
:100F0000DA6ADECF0CF0DDCF0DF0A6ECA0F00CC05D
:100F100068F00DC069F006D04B50D96EDA6ADE2A4F
:100F2000000EDD22D00E4D6EFF0E4E6E4B50D96E70
:100F3000DA6ADECFF6FFDDCFF7FF000EF86E0800AD
:100F4000F5504F6E506A4D504F264E505022505023
:100F500006E10A0E4F5CD8B002D0010E01D0000E9F
:100F60000001B26FB36BB251B311D8A4D5D74B50B7
:100F7000D96EDA6ADECFF6FFDDCFF7FF000EF86E2E
:100F80000800F550630AD8A41DD04B50D96EDA6A18
:100F9000DE2A000EDD224C50D96EDA6ADF50DF2ADD
:100FA000DF2AD96EDA6ADF50B66F49C010F04AC046
:100FB00011F0B6C012F0B0ECAAF010C049F011C0A8
:100FC0004AF012004B50D96EDA6ADECFF6FFDDCF61
:100FD000F7FF000EF86E0800F5506E0AD8A42FD067
:100FE0004B50D96EDA6ADE2A000EDD224C50D96EE3
:100FF000DA6A020EDF26DF5CD96EDA6ADECFB4F081
:10100000DECFB5F0B4C0F6FFB5C0F7FF000EF86E46
:101010000E0EF76407D065C1F5FF0D0066C1F5FF40
:101020000C0008D0F6CFE1FFF7CFE2FF65C1E6FF85
:1010300066C1E7FF000E4A6E000E496E12004B506B
:10104000D96EDA6ADECF05F0DDCF06F0EF0E076E5F
:10105000FF0E086E000E0A6E020E096EF9ECA7F084
:1010600005500610D8A43FD04B50D96EDA6A020E54
:10107000DE26000EDD224C50D96EDA6A020EDF2623
:10108000DF5CD96EDA6ADECFB4F0DECFB5F065C1D1
:101090004DF066C14EF0000E4EBEFF0E4F6E506E0C
:1010A000B4C0F6FFB5C0F7FF000EF86E0E0EF76481
:1010B0000DD04DC0F5FF0D004EC0F5FF0D004FC027
:1010C000F5FF0D0050C0F5FF0C000CD0F6CFE1FF8E
:1010D000F7CFE2FF4DC0E6FF4EC0E6FF4FC0E6FF90
:1010E00050C0E7FFA7D74B50D96EDA6ADECFF6FFC4
:1010F000DDCFF7FF000EF86E0800F550730AD8A494
:1011000021D04B50D96EDA6ADE2A000EDD224C5017
:10111000D96EDA6A020EDF26DF5CD96EDA6ADECFBC
:10112000AEF0DECFAFF049C010F04AC011F0AEC053
:1011300012F0AFC013F050ECA1F010C049F011C094
:101140004AF012004B50D96EDA6ADECFF6FFDDCFDF
:10115000F7FF000EF86E0800F550750AD8A438D0D5
:101160004B50D96EDA6ADE2A000EDD224C50D96E61
:10117000DA6ADF50DF2ADF2AD96EDA6ADECF4DF075
:10118000DDCF4EF04DC0B7F04EC0B8F00001B96BE6
:10119000BA6BBB6BBC6BBD6BBE6B49C022F04AC067
:1011A00023F0B7C024F0B8C025F0B9C026F0BAC00B
:1011B00027F0BBC028F0BCC029F0BDC02AF0BEC0DB
:1011C0002BF059EC9DF022C049F023C04AF01200E8
:1011D0004B50D96EDA6ADECF05F0DDCF06F0F20EA5
:1011E000076EFF0E086E000E0A6E020E096EF9EC15
:1011F000A7F005500610D8A441D04B50D96EDA6A3A
:10120000020EDE26000EDD224C50D96EDA6ADFCFE8
:101210004DF0040EDF264D50D96EDA6ADECF4EF067
:10122000DECF4FF0DECF50F0DECF51F04E50000158
:10123000B76F4F50B86F5050B96F5150BA6FBB6B0A
:10124000BC6BBD6BBE6B49C022F04AC023F0B7C077
:1012500024F0B8C025F0B9C026F0BAC027F0BBC052
:1012600028F0BCC029F0BDC02AF0BEC02BF059EC5C
:101270009DF022C049F023C04AF012004B50D96EB5
:10128000DA6ADECFF6FFDDCFF7FF000EF86E08005A
:10129000F550780AD8B40ED04B50D96EDA6ADECF4A
:1012A000F6FFDDCFF7FF000EF86E0800F550580A84
:1012B000D8A446D04B50D96EDA6ADECFF6FFDDCF28
:1012C000F7FF000EF86E0800F5CFB6F04B50D96E60
:1012D000DA6ADE2A000EDD224C50D96EDA6ADF505F
:1012E000DF2ADF2AD96EDA6ADECF4DF0DDCF4EF08D
:1012F0004DC0B7F04EC0B8F00001B96BBA6BBB6B14
:10130000BC6BBD6BBE6B49C022F04AC023F0B7C0B6
:1013100024F0B8C025F0B9C026F0BAC027F0BBC091
:1013200028F0BCC029F0BDC02AF0BEC02BF0B6C06A
:101330002CF056EC9BF022C049F023C04AF012007A
:101340004B50D96EDA6ADECF05F0DDCF06F0F50E30
:10135000076EFF0E086E000E0A6E020E096EF9ECA3
:10136000A7F005500610D8B415D04B50D96EDA6AE4
:10137000DECF05F0DDCF06F0EC0E076EFF0E086E37
:10138000000E0A6E020E096EF9ECA7F00550061069
:10139000D8A457D04B50D96EDA6ADECF4DF0DDCFEE
:1013A0004EF0010E4D26000E4E224DC0F6FF4EC0EF
:1013B000F7FF000EF86E0800F5CFB6F04B50D96E6F
:1013C000DA6A020EDE26000EDD224C50D96EDA6A91
:1013D000DFCF4DF0040EDF264D50D96EDA6ADECF36
:1013E0004EF0DECF4FF0DECF50F0DECF51F04E505A
:1013F0000001B76F4F50B86F5050B96F5150BA6F6E
:10140000BB6BBC6BBD6BBE6B49C022F04AC023F006
:10141000B7C024F0B8C025F0B9C026F0BAC027F094
:10142000BBC028F0BCC029F0BDC02AF0BEC02BF064
:10143000B6C02CF056EC9BF022C049F023C04AF015
:1014400012004B50D96EDA6ADECFF6FFDDCFF7FF20
:10145000000EF86E0800F550250AD8A415D04B50A0
:10146000D96EDA6ADE2A000EDD22000E086E250E25
:10147000076E49C009F04AC00AF0ADECAEF0000EAC
:101480004A6E010E496E12004B50D96EDA6ADE2A9E
:10149000000EDD22CFD54B50D96EDA6ADECFF6FFD3
:1014A000DDCFF7FF000EF86E0800F550076E086AF2
:1014B00049C009F04AC00AF0ADECAEF04B50D96E0D
:1014C000DA6ADE2A000EDD22DAD736D259A002D03F
:1014D000838E1200839E12005950E9ECB7F012007F
:1014E0008F51D8A4120059A002D0010E936F59A2B7
:1014F00002D0010E926F59A41200010E916F1200DA
:101500007F51D8B412007E51D8A41200120E176E6B
:1015100059C018F0200EDFECAFF012007F51D8B4A4
:1015200012007E51D8A41200130E176E59C018F085
:10153000200EDFECAFF012007F51D8B412007E51C4
:10154000D8A41200000E176E59C018F0200EDFEC60
:10155000AFF012007F51D8B412007E51D8A412000F
:10156000010E176E59C018F0200EDFECAFF012001C
:101570007F51D8B412007E51D8A412000C0E176E01
:1015800059C018F0200EDFECAFF012007F51D8B434
:1015900012007E51D8A412000D0E176E59C018F01B
:1015A000200EDFECAFF01200640E596027D018EC6B
:1015B000AFF08451300F0101C66F0A0E056E59500D
:1015C0002EECB3F0300F0101C86F0A0E056E5950B2
:1015D0002EECB3F0F60DF3505924300F0101C96F12
:1015E00000018151D8A407D0C40E556E010E566E6D
:1015F00052ECB7F0816F010EFB6F1200100E816F7D
:1016000012007A517B11D8A404D059C076F0776BC0
:101610000FD05950EC6F7651766FECC077F0020E18
:10162000775DD8B002D0000E01D0110E816FFF6936
:1016300000017A4B7B2B120059C0ADF0800EAD61DA
:1016400001D003D0120E816F1200000E816F1200C4
:101650007A517B11D8A462D07F0EAD6501D05ED0E7
:101660008151D8A45BD0AD41E8423F0B836F76C077
:10167000ECF077C0EDF0050ED890EC37ED37E82EA2
:10168000FBD78351EC11746FED51756FADC0ECF069
:10169000030EEC17EC51800DF3CF6BF1F4CF6CF12E
:1016A000010EF16F7251741909E173517519D8A4C3
:1016B00005D0FB51D8A402D0000EF16FF1C086F026
:1016C0008651D8B427D018ECAFF08151D8A407D0F8
:1016D00074C04CF075C04DF007ECB4F0816F8151CF
:1016E000D8A409D0A00E446E060E456EA20E466E1A
:1016F0000FECB5F0816F74C072F075C073F081515A
:10170000D8A408D0020EA35DD8B004D0010EFB6FA0
:10171000130E816F010E876F000EFB6F8151D8A4ED
:1017200010D0A00E01016B25D96E060E6C21DA6E69
:1017300059C0DFFF00017B5103E17F0E7A5DD8B015
:10174000FF697A4B7B2B01016B4B6C2B12005950BC
:10175000D8B4120059C0FEF012005950D1ECB2F0CA
:1017600012007F51D8B41200010E7E6F5950D8A4D8
:1017700002D0010E01D0000E010BAC6F120E176EDD
:10178000AC51AC250509186E200EDFECAFF0000E51
:10179000176EF80E186E200EDFECAFF0010E176E0C
:1017A000000E186E200EDFECAFF00C0E176EFF0E61
:1017B000186E200EDFECAFF0D8800001AC35576E0C
:1017C000120E176E57C018F0200EDFECAFF0575016
:1017D0000409576E120E176E57C018F0200EDFEC7A
:1017E000AFF012007E51D8B41200130E176E59C01C
:1017F00018F0200EDFECAFF00001AC51AC25FC0975
:10180000576E120E176E57C018F0200EDFECAFF0B7
:1018100057500109576E120E176E57C018F0200E60
:10182000DFECAFF012007A517B11D8A407D05950E9
:101830000101366F376B386B396BFAD67AC0ECF032
:10184000D890EC37D890EC37D890EC3759C0EDF001
:10185000EE6BEF6BF06BEC2B05D0D890ED37EE37DD
:10186000EF37F037EC2FF9D7010136510001ED11B8
:101870000101366F37510001EE110101376F385108
:101880000001EF110101386F39510001F011010120
:10189000396F00017B5104E1030E7A5DD8A0C8D6F0
:1018A000FF69000E806FC4D68051D8A4C1D67A518A
:1018B0007B11D8A410D0000E136E000E146E36C12A
:1018C00015F037C116F038C117F039C118F0A5EC82
:1018D000A3F00001806FA00E7A25D96E060E7B2141
:1018E000DA6E59C0DFFF7A29010E7B59D8A0A0D645
:1018F000A00E136E060E146E000E156E020E166EFE
:10190000000E176E000E186EA5ECA3F00001806F9C
:101910008051D8A48CD6000E136E000E146E000EEB
:10192000156E000E166E000E176E000E186EA5ECEA
:10193000A3F00001806F7BD60001FF51EC6FED6BCF
:10194000ED51000AD8A41200EC51000AD8B4BED55B
:10195000010AD8B4C1D5030AD8B4C2D5010AD8B493
:10196000CFD5070AD8B4DAD5010AD8B4E5D5030A29
:10197000D8B4F0D5010AD8B4FBD50F0AD8B406D62E
:10198000010AD8B411D6030AD8B43BD6010AD8B498
:1019900053D6070AD8B45CD6030AD8B4D8D61F0ADF
:1019A000D8B4DBD6010AD8B4DCD6030AD8B41AD727
:1019B000010AD8B438D7070AD8A4120075D7000E88
:1019C00000016E6F000E6F6F6EEC9CF02A6E2AA005
:1019D00002D0020E1200000E0001DA6F000EDB6F63
:1019E000000EDC6F000EDD6FAE0E236E000E246E57
:1019F000000E256E000E266E000E276E27ECA5F059
:101A00000001E26FE205D8A438D0AE0E136E146A5E
:101A1000000E156E000E166E000E176E000E186E7C
:101A2000010E1A6EBE0E196E000E1C6E100E1B6E8D
:101A30002EECA4F00009D8B402D0030E1CD0000193
:101A4000B251D8B41AD0B60E056EB7ECA8F005C0E6
:101A5000DAF006C0DBF007C0DCF008C0DDF0AE0E47
:101A6000236EDAC024F0DBC025F0DCC026F0DDC038
:101A700027F027ECA5F00001E26F030EE219D8A4CD
:101A800002D0010E1200E251D8B402D0060E1200AC
:101A9000AE0E136E146ADAC015F0DBC016F0DCC0AF
:101AA00017F0DDC018F0000E1A6E0D0E196E000E44
:101AB0001C6E240E1B6E2EECA4F00009D8A4E1D7F6
:101AC000B70E056EBAECB3F005C0DEF006C0DFF06D
:101AD0000001E06BE16BDE51DF11E011E111D8A4F0
:101AE0000CD0C50E056EB7ECA8F005C0DEF006C040
:101AF000DFF007C0E0F008C0E1F0DEC005F0DFC0B5
:101B000006F0E0C007F0E1C008F00001B151096E35
:101B10000A6A0B6A0C6A93ECB0F005C0DEF006C0EE
:101B2000DFF007C0E0F008C0E1F0AF0E056EBAECE0
:101B3000B3F005500001DA252A6E0650DB212B6E2A
:101B4000000EDC212C6E000EDD212D6E20EE0AF041
:101B50002850D9262950DA222AC0DEFF2BC0DEFF0A
:101B60002CC0DEFF2DC0DEFF20EE02F02850D9266B
:101B70002950DA22AEC0DFFFB20E056EBAECB3F028
:101B800020EE04F02850D9262950DA2205C0DEFFC5
:101B900006C0DDFFB40E056EBAECB3F005C0D2F09E
:101BA00006C0D3F00001D46BD56BD251D311D41140
:101BB000D511D8A40CD0C10E056EB7ECA8F005C0A5
:101BC000D2F006C0D3F007C0D4F008C0D5F020EEA4
:101BD00004F02850D9262950DA22DECF2AF0DDCFB2
:101BE0002BF0040E2C6ED8902B322A322C2EFBD7E1
:101BF0002A502D6E2B502E6E2F6A306AAF0E056E56
:101C0000BAECB3F00550316E0650326E336A346A66
:101C1000311E321E331E341E312A000E3222332270
:101C200034220001DE51315C356EDF513258366EA0
:101C3000E0513358376EE1513458386E2D50355CD1
:101C4000396E2E5036583A6E2F5037583B6E305002
:101C500038583C6ED25139240C6ED3513A200D6E57
:101C6000D4513B200E6ED5513C200F6E20EE02F079
:101C70002850D9262950DA22DF503D6E3D50106E93
:101C8000116A126A136A40ECADF0020E0C24D66F92
:101C9000000E0D20D76F000E0E20D86F000E0F2003
:101CA000D96F20EE06F02850D9262950DA22D6C066
:101CB000DEFFD7C0DEFFD8C0DEFFD9C0DEFF000EDA
:101CC000E26FD951D81106E1F80ED65D0F0ED75943
:101CD000D8A00BD0D951D81108E1F70ED65DFF0E70
:101CE000D759D8B002D0020EE26FD951D81106E10F
:101CF000F70ED65DFF0ED759D8A002D0030EE26FC3
:101D0000E251D8B4C3D628C0D9FF29C0DAFFE2C057
:101D1000DFFF030EE219D8A413D0CD0E056EB7EC89
:101D2000A8F020EE0EF02850D9262950DA2205C05E
:101D3000DEFF06C0DEFF07C0DEFF08C0DEFF28D0E2
:101D400020EE0AF02850D9262950DA22DECF2AF0D8
:101D5000DECF2BF0DECF2CF0DECF2DF0DE512A24AB
:101D60002E6EDF512B202F6EE0512C20306EE15172
:101D70002D20316E20EE0EF02850D9262950DA227F
:101D80002EC0DEFF2FC0DEFF30C0DEFF31C0DEFF21
:101D900020EE0AF02850D9262950DA22DECF2AF088
:101DA000DECF2BF0DECF2CF0DECF2DF020EE04F0D6
:101DB0002850D9262950DA22DECF2EF0DDCF2FF0A1
:101DC000040E306ED8902F322E32302EFBD72E508C
:101DD0002A24316E2F502B20326E000E2C20336EB1
:101DE000000E2D20346E0001DE513124356EDF519E
:101DF0003220366EE0513320376EE1513420386E98
:101E000020EE12F02850D9262950DA2235C0DEFF04
:101E100036C0DEFF37C0DEFF38C0DEFF20EE01F047
:101E20002850D9262950DA22000EDF6E28C06EF025
:101E300029C06FF0000E1200AB0E1F6EAA0E206EAE
:101E4000A90E216EA80E226EA70E236EA60E246E7A
:101E5000A50E256EC0ECADF0000E0001EE6FCB0EAE
:101E6000C16FFC0EC26F66ECB6F04A0E0001C16F86
:101E7000FA0EC26F66ECB6F0CC0E0001C16FFD0E1B
:101E8000C26F66ECB6F049D0490EC16FFF0EC26F4B
:101E900066ECB6F00001A6513BECB5F059D00E0E41
:101EA000C16FFF0EC26F66ECB6F00001A7513BECAC
:101EB000B5F04ED0C00EC16FFD0EC26F66ECB6F02D
:101EC000220E0001C16FFF0EC26F66ECB6F000017A
:101ED000A8513BECB5F03CD0180EC16FFF0EC26F9D
:101EE00066ECB6F00001A9513BECB5F031D0B40E70
:101EF000C16FFE0EC26F66ECB6F00001AA513BEC5A
:101F0000B5F026D0A80EC16FFE0EC26F66ECB6F01B
:101F10000001AB513BECB5F01BD00001EE51E46F7A
:101F2000E56BE551000AD8A413D0E451000AD8B4F7
:101F3000ABD7010AD8B4B3D7030AD8B4BBD7010AC8
:101F4000D8B4CAD7070AD8B4D2D7010AD8B4DAD7D6
:101F5000000E0001D46F000ED56F000ED66F86EC18
:101F6000A2F0AFECB2F0586E750E5818D8B410D07D
:101F7000550E5818D8B40CD0740E5818D8B408D0D0
:101F8000540E5818D8B404D00D0E5818D8A4E0D761
:101F9000750E5818D8B478D0550E5818D8B474D0D7
:101FA0008ED0A62B630EA6658AD0000EA66F87D0B2
:101FB000A72B0C0EA76583D0010EA76F80D0A82B8E
:101FC000020EA719D8A431D0A851E46FE56BFF0E1B
:101FD000E66FFF0EE76FA751E86FE96BE651E82760
:101FE000E751E923350EE825F66EF30EE921F76E89
:101FF000F86A000EF8220800F550EA6FEB6BA65164
:10200000D5ECB6F00001EC6FEC51EA27000EEB23A3
:10201000E451EA5DEB51800AED6FE551800AED591C
:10202000D8B04DD0010EA86F4AD0FF0EE46FFF0E5E
:10203000E56FA751E66FE76BE451E627E551E7232B
:10204000350EE625F66EF30EE721F76EF86A000E00
:10205000F822A8510900F55CD8A0E4D730D0A92B0C
:10206000170EA9652CD0000EA96F29D0AA2B3B0E04
:10207000AA6525D0000EAA6F22D0AB2B3B0EAB6514
:102080001ED0000EAB6F1BD00001EE51E46FE56B6C
:10209000E551000AD8A413D0E451000AD8B481D77E
:1020A000010AD8B485D7030AD8B489D7010AD8B4AD
:1020B000D6D7070AD8B4DAD7010AD8B4DED7740E57
:1020C0005818D8B497D0540E5818D8B493D0ADD06F
:1020D000A6510A0FA66F630EA665A7D00A0E056E5D
:1020E000A6512EECB3F0F60DF3500001A625A66F15
:1020F0009CD00A0EA76503D0A751F60F05D0030E9A
:10210000A76193D0A7510A0FA76F8FD0A8510A0FCC
:10211000A86FA851E46FE56BFF0EE66FFF0EE76F47
:10212000A751E86FE96BE651E827E751E923350E3F
:10213000E825F66EF30EE921F76EF86A000EF82234
:102140000800F550EA6FEB6BA651D5ECB6F0000134
:10215000EC6FEC51EA27000EEB23E451EA5DEB5102
:10216000800AED6FE551800AED59D8B00AD00A0E09
:10217000056EA8512EECB3F0F60DF3500001A82522
:10218000A86FA851D8A451D0010EA86F4ED0A95164
:102190000A0FA96F170EA96548D00A0E056EA9513E
:1021A0002EECB3F0F60DF3500001A925A96F3DD038
:1021B000AA510A0FAA6F3B0EAA6537D00A0E056E08
:1021C000AA512EECB3F0F60DF3500001AA25AA6F28
:1021D0002CD0AB510A0FAB6F3B0EAB6526D00A0E6D
:1021E000056EAB512EECB3F0F60DF3500001AB25AC
:1021F000AB6F1BD00001EE51E46FE56BE551000AB7
:10220000D8A413D0E451000AD8B462D7010AD8B4D4
:1022100070D7030AD8B47AD7010AD8B4B8D7070A56
:10222000D8B4C6D7010AD8B4D4D7D80E0001C16F2C
:10223000FB0EC26F66ECB6F00D0E5818D8A41CD673
:102240000001EE2B050EEE6517D6AAC01BF0A9C043
:102250001CF0A8C01DF0A7C01EF0A6C01FF0AB5117
:10226000B5ECB1F0070E0001C16FFE0EC26F66EC57
:10227000B6F0E80E0001C16FFC0EC26F66ECB6F05E
:10228000010EBBECA9F07C0E0001C16FFF0EC26F06
:1022900066ECB6F012006EC0BEF06FC0BFF0000179
:1022A000BE51BF11D8A402D0050E120020EE01F0DD
:1022B000BE51D926BF51DA22DFB002D0040E12007F
:1022C00020EE1AF0BE51D926BF51DA223750DE5C1B
:1022D0003850DE583950DE583A50DE58D8B00ED05B
:1022E00020EE1AF0BE51D926BF51DA22DECF37F0E8
:1022F000DECF38F0DECF39F0DECF3AF020EE16F048
:10230000BE51D926BF51DA22DECFB2F0DECFB3F014
:10231000DECFB4F0DECFB5F020EE16F0BE51D926F8
:10232000BF51DA22DE6ADE6ADE6ADD6A37503810B3
:1023300039103A10D8B4AFD120EE02F0BE51D926F0
:10234000BF51DA22DF503B6E3BC03CF03D6A3E6A33
:102350003F6A090ED8903C363D363E363F36E82E71
:10236000F9D73CC0B6F03DC0B7F03EC0B8F03FC0B2
:10237000B9F0B251B311B411B511D8B495D0FF0E64
:1023800037240C6EFF0E38200D6EFF0E39200E6EB6
:10239000FF0E3A200F6EB6C010F0B7C011F0B8C0F3
:1023A00012F0B9C013F040ECADF00CC03BF00DC022
:1023B0003CF00EC03DF00FC03EF0FF0EB2250C6E9B
:1023C000FF0EB3210D6EFF0EB4210E6EFF0EB52170
:1023D0000F6EB6C010F0B7C011F0B8C012F0B9C09F
:1023E00013F040ECADF00C503B5C0D503C580E50DF
:1023F0003D580F503E58D8A057D0FF0EB6253B6E23
:10240000FF0EB7213C6EFF0EB8213D6EFF0EB921C5
:102410003E6E3B1C3F6E3C1C406E3D1C416E3E1CA4
:10242000426EFF0EB225436EFF0EB321446EFF0EC7
:10243000B421456EFF0EB521466E3F504314476EE2
:1024400040504414486E41504514496E4250461461
:102450004A6E20EE16F0BE51D926BF51DA2247C08F
:10246000DEFF48C0DEFF49C0DEFF4AC0DEFF20EECF
:1024700016F0BE51D926BF51DA22DE50375EDE504B
:10248000385ADE50395ADD503A5A20EE22F0BE5109
:10249000D926BF51DA22DECFBAF0DECFBBF0DECFD5
:1024A000BCF0DECFBDF076D020EE1EF0BE51D926B6
:1024B000BF51DA22DECFBAF0DECFBBF0DECFBCF008
:1024C000DECFBDF020EE22F0BE51D926BF51DA2278
:1024D000BAC0DEFFBBC0DEFFBCC0DEFFBDC0DEFF9A
:1024E00059D0BAC023F0BBC024F0BCC025F0BDC099
:1024F00026F007EC9FF023C0BAF024C0BBF025C043
:10250000BCF026C0BDF00001BD51BC11BB1104E1FF
:10251000020EBA5DD8A010D020EE06F0BE51D9262A
:10252000BF51DA22DE50BA5DDE50BB59DE50BC59D5
:10253000DE50BD59D8A00AD020EE01F0BE51D926F8
:10254000BF51DA22000EDF6E010E120020EE22F0E3
:10255000BE51D926BF51DA22BAC0DEFFBBC0DEFFB2
:10256000BCC0DEFFBDC0DEFF20EE16F0BE51D92696
:10257000BF51DA22B651DE26B751DE22B851DE2233
:10258000B951DE22B651375EB751385AB851395A6F
:10259000B9513A5A3750B65D3850B7593950B859D1
:1025A0003A50B959D8A09DD720EE16F0BE51D92681
:1025B000BF51DA223750DE263850DE223950DE2273
:1025C0003A50DE22BAC011F0BBC012F0BCC013F00A
:1025D000BDC014F098ECA7F011C0AEF012C0AFF07F
:1025E00013C0B0F014C0B1F00001AE51AF11B01182
:1025F000B111D8B4A1D720EE02F0BE51D926BF51F7
:10260000DA22DF503B6EFF0E3B243C6E3D6AFF0E2C
:102610003D223E6A3DBE3E063E503F6E20EE16F025
:10262000BE51D926BF51DA22DECF40F0DECF41F0D5
:10263000DECF42F0DECF43F00A0E05D0D890433211
:10264000423241324032E82EF9D73C504014446EB9
:102650003D504114456E3E504214466E3F50431467
:10266000476EAE514424486EAF514520496EB0517B
:1026700046204A6EB15147204B6E20EE26F0BE51E7
:10268000D926BF51DA2248C0DEFF49C0DEFF4AC06A
:10269000DEFF4BC0DEFF000E120037C044F038C032
:1026A00045F06EC055F06FC056F03B50D96EDA6AF7
:1026B000000EDE6E000EDD6E55505610D8A402D00E
:1026C000050E120020EE01F05550D9265650DA22A0
:1026D000DFB002D0040E120039503A10D8A42DD029
:1026E00020EE01F05550D9265650DA22DFAC1BD02F
:1026F000000E136E000E146E000E156E000E166E98
:10270000000E176E000E186EA5ECA3F00009D8B4E9
:102710000AD020EE01F05550D9265650DA22000E8C
:10272000DF6E010E120020EE01F05550D9265650F2
:10273000DA22BF0EDF16000E120020EE01F0555017
:10274000D9265650DA22DFBC0ED020EE16F05550B6
:10275000D9265650DA22000EDE16FE0EDE16FF0EC9
:10276000DE16FF0EDE1620EE16F05550D926565016
:10277000DA22DECF3CF0DECF3DF0DECF3EF0DECF22
:102780003FF020EE1AF05550D9265650DA22DECF0F
:1027900040F0DECF41F0DECF42F0DECF43F03C50E0
:1027A000405C4A6E3D5041584B6E3E5042584C6E14
:1027B0003F5043584D6E39503C6E3A503D6E3E6A24
:1027C0003F6A3C504A5C3D504B583E504C583F503D
:1027D0004D58D8B05ED14AC039F04BC03AF059D10B
:1027E000FF0E3C6E010E3D6E20EE16F05550D926C0
:1027F0005650DA22DECF3EF0DDCF3FF03C503E16A1
:102800003D503F163E503F10D8A4C5D020EE16F0E4
:102810005550D9265650DA22DECF3CF0DECF3DF0BF
:10282000DECF3EF0DECF3FF00A0E05D0D8903F322B
:102830003E323D323C32E82EF9D720EE02F05550C0
:10284000D9265650DA22DF50406E40043C14526EB6
:102850005250D8A449D020EE16F05550D9265650E3
:10286000DA22DE50DE10DE10DE10D8A40FD020EE0B
:102870001EF05550D9265650DA22DECF4EF0DECF6C
:102880004FF0DECF50F0DECF51F018D020EE22F026
:102890005550D9265650DA22DECF23F0DECF24F071
:1028A000DECF25F0DECF26F007EC9FF023C04EF000
:1028B00024C04FF025C050F026C051F051505010A8
:1028C0004F1004E1020E4E5CD8A023D720EE22F078
:1028D0005550D9265650DA224EC0DEFF4FC0DEFFDB
:1028E00050C0DEFF51C0DEFF20EE22F05550D92649
:1028F0005650DA22DECF11F0DECF12F0DECF13F029
:10290000DECF14F098ECA7F011C046F012C047F0EB
:1029100013C048F014C049F0465047104810491001
:10292000D8B4F7D6525046243C6E000E47203D6E78
:10293000000E48203E6E000E49203F6E20EE26F02D
:102940005550D9265650DA223CC0DEFF3DC0DEFF8E
:102950003EC0DEFF3FC0DEFF000E136E000E146EA1
:1029600020EE26F05550D9265650DA22DECF15F04B
:10297000DECF16F0DECF17F0DECF18F0A5ECA3F017
:102980000009D8A4C6D620EE01F05550D9265650DD
:10299000DA22000EDB8CFF0E3C6E010E3D6E20EE47
:1029A00016F05550D9265650DA22DECF3EF0DDCF54
:1029B0003FF03C503E163D503F163E500008536ECF
:1029C0003F50D8A0E82A0208546E5350395C545046
:1029D0003A58D8B004D039C053F03AC054F044C08B
:1029E00013F045C014F053C015F054C016F0176A28
:1029F000186AA5ECA3F00009D8A48BD620EE16F037
:102A00005550D9265650DA225350DE265450DE2235
:102A1000000EDE22DE2253504426545045225350ED
:102A2000395E54503A5A3B50D96EDA6A5350DE261A
:102A30005450DD22FF0E3C6E010E3D6E20EE16F06E
:102A40005550D9265650DA22DECF3EF0DDCF3FF08A
:102A50003C503E163D503F163E503F10D8A419D072
:102A6000000E136E000E146E000E156E000E166E24
:102A7000000E176E000E186EA5ECA3F00009D8A486
:102A800048D620EE01F05550D9265650DA22BF0E16
:102A9000DF1639503A10D8B44ED6A2D637C0BCF0A3
:102AA00038C0BDF06EC0C0F06FC0C1F03B50D96EF1
:102AB000DA6A000EDE6E000EDD6E0001C051C1113B
:102AC000D8A402D0050E120020EE01F0C051D92684
:102AD000C151DA22DFB002D0040E120020EE16F04F
:102AE000C051D926C151DA22DECF3CF0DECF3DF015
:102AF000DECF3EF0DECF3FF020EE1AF0C051D926F7
:102B0000C151DA22DECF40F0DECF41F0DECF42F01D
:102B1000DECF43F03C50405CB36F3D504158B46F42
:102B20003E504258B56F3F504358B66F39503C6ED7
:102B30003A503D6E3E6A3F6A3C50B35D3D50B459D9
:102B40003E50B5593F50B659D8B040D1B3C039F016
:102B5000B4C03AF03BD120EE16F0C051D926C15195
:102B6000DA22FF0EDE143C6E010EDE143D6E000E06
:102B7000DE143E6E000EDE143F6E3C503D103E10E3
:102B80003F10D8A4B2D020EE16F0C051D926C151C2
:102B9000DA22DECF3CF0DECF3DF0DECF3EF0DECFFE
:102BA0003FF00A0E05D0D8903F323E323D323C32E3
:102BB000E82EF9D720EE02F0C051D926C151DA2211
:102BC000DF50406E40043C14BB6FBB51D8A454D0BE
:102BD00020EE16F0C051D926C151DA22DE50DE10A7
:102BE000DE10DE10D8A40FD020EE1EF0C051D92682
:102BF000C151DA22DECFB7F0DECFB8F0DECFB9F0C8
:102C0000DECFBAF018D020EE22F0C051D926C15143
:102C1000DA22DECF23F0DECF24F0DECF25F0DECFC8
:102C200026F007EC9FF023C0B7F024C0B8F025C011
:102C3000B9F026C0BAF00001BA51B911B8110EE1CD
:102C4000020EB75DD8B00AD020EE01F0C051D926EF
:102C5000C151DA22000EDF6E010E120020EE22F0CA
:102C6000C051D926C151DA22B7C0DEFFB8C0DEFF9D
:102C7000B9C0DEFFBAC0DEFF20EE22F0C051D92677
:102C8000C151DA22DECF11F0DECF12F0DECF13F029
:102C9000DECF14F098ECA7F011C0AFF012C0B0F086
:102CA00013C0B1F014C0B2F00001AF51B011B111B6
:102CB000B211D8B4C9D7BB51AF253C6E000EB021BC
:102CC0003D6E000EB1213E6E000EB2213F6E20EE31
:102CD00026F0C051D926C151DA223CC0DEFF3DC0EA
:102CE000DEFF3EC0DEFF3FC0DEFFFF0E3C6E010E8A
:102CF0003D6E20EE16F0C051D926C151DA22DECF4A
:102D00003EF0DDCF3FF03C503E163D503F163E506A
:102D10000008BE6F3F50D8A0E82A0208BF6FBE511E
:102D2000395CBF513A58D8B004D039C0BEF03AC06F
:102D3000BFF0BCC013F0BDC014F020EE26F0C051AF
:102D4000D926C151DA22DECF15F0DECF16F0DECF64
:102D500017F0DECF18F020EE16F0C051D926C15181
:102D6000DA22DECF3CF0DDCF3DF0FF0E3C14196ED1
:102D7000010E3D141A6EBEC01BF0BFC01CF02EEC3D
:102D8000A4F00001AE6FAE51D8A45ED720EE16F0CD
:102D9000C051D926C151DA22BE51DE26BF51DE22F2
:102DA000000EDE22DE22BE51395EBF513A5A3B5040
:102DB000D96EDA6ABE51DE26BF51DD22BC51BD118B
:102DC000D8B404D0BE51BC27BF51BD2339503A10EE
:102DD000D8A4C1D6000E1200000E306E000E316E67
:102DE000000E326E000E336E13C034F014C035F096
:102DF00034503510D8B459D134C0D9FF35C0DAFFBA
:102E0000DF50D8B452D102D0344A352A34C0D9FF69
:102E100035C0DAFFDF50366E010E286E200E3618F0
:102E2000D8B413D0F70E1A6EFF0E1B6E36501C6E00
:102E30001D6A1A501C261B501D221D5004E1050E50
:102E40001C5CD8A002D0000E286E28C022F0236A95
:102E500022502310D8A4D8D7000E2E6E000E296E53
:102E6000000E2F6E2D0E3618D8A40BD0010E2E6E2C
:102E7000344A352A34C0D9FF35C0DAFFDF50366E08
:102E800004D02B0E3618D8B4F3D7300E3618D8A489
:102E900030D0344A352A34C0D9FF35C0DAFFDF508C
:102EA000366E17501810D8B405D0100E1718181019
:102EB000D8A415D0780E3618D8B404D0580E3618C9
:102EC000D8A40DD0000E186E100E176E344A352A95
:102ED00034C0D9FF35C0DAFFDF50366E0AD0010E9C
:102EE000296E17501810D8A404D0000E186E080EC2
:102EF000176E17501810D8A404D0000E186E0A0EC2
:102F0000176E1950D8B414D02E50D8A408D0FF0E84
:102F10002A6EFF0E2B6EFF0E2C6E7F0E07D0000E5A
:102F20002A6E000E2B6E000E2C6E800E2D6E04D0BD
:102F30002A682B682C682D6830C01EF031C01FF045
:102F400032C020F033C021F09F0E1A6EFF0E1B6EB0
:102F500036501C6E1D6A200E1C12000E1D121A50D7
:102F60001C261B501D221D5006E11A0E1C5CD8B0F9
:102F700002D0010E01D0000E246E256A24502510C7
:102F8000D8B409D036C00BF00C6ADCECB1F00B50B1
:102F9000C90F366E1CD0D00E1A6EFF0E1B6E365047
:102FA0001C6E1D6A1A501C261B501D221D5006E166
:102FB0000A0E1C5CD8B002D0010E01D0000E266EA5
:102FC000276A26502710D8B462D0300E365E3650AD
:102FD0001A6E1B6A17501A5C1B50800A1C6E185020
:102FE000800A1C58D8B053D02F50D8A445D017C051
:102FF00005F018C006F0000E06BEFF0E076E086E44
:1030000030C009F031C00AF032C00BF033C00CF010
:1030100093ECB0F036500524306E000E0620316E71
:10302000000E0720326E000E0820336E1E50305CFA
:103030001F5031582050325821503358D8A00DD04D
:103040001950D8B419D030502A5C31502B58325016
:103050002C5833502D58D8B00FD02AC030F02BC088
:1030600031F02CC032F02DC033F0000E0101646F3E
:10307000220E636F010E2F6E344A352A34C0D9FFF9
:1030800035C0DAFFDF50366E010E296E55D72F504E
:10309000D8A40BD02E50D8B408D0331E321E311E07
:1030A000306C000E31223222332215501610D8B463
:1030B0000FD02950D8A404D013C034F014C035F078
:1030C00015C0D9FF16C0DAFF34C0DEFF35C0DDFF02
:1030D00030C013F031C014F032C015F033C016F018
:1030E00012004AD18DBC02D0010E20D0000E1ED09D
:1030F0007F51D8B46BD1120E176E200E7DECAFF05D
:1031000015D07F51D8B462D1130E176E200E7DEC0E
:10311000AFF00CD07E51D8B459D1120E176E200EDC
:103120007DECAFF0596E5950F80B0109596E4ED134
:103130007D51D8B452D07A517B11D8A410D0AB0EA7
:103140001F6EAA0E206EA90E216EA80E226EA70E6B
:10315000236EA60E246EA50E256EC0ECADF0000108
:103160007B513BE1070E7A5DD8A016D036D0ABC0BC
:1031700059F030D0AAC059F02DD0A9C059F02AD0AA
:10318000A8C059F027D0A7C059F024D0A6C059F044
:1031900021D0A5C059F01ED07AC0E3F07BC0E4F086
:1031A000E451000AD8A416D0E351000AD8B4DFD7FE
:1031B000010AD8B4DFD7030AD8B4DFD7010AD8B4DC
:1031C000DFD7070AD8B4DFD7010AD8B4DFD7030A9C
:1031D000D8B4DFD77A4B7B2BF9D0FF69F7D081C009
:1031E00059F0F4D07A517B11D8A43BD07F0EAD6555
:1031F00001D037D08151D8A434D08751D8A418EC4D
:10320000AFF0AD41E8423F0B836F76C0E3F077C08B
:10321000E4F0050ED890E337E437E82EFBD783516E
:10322000E311746FE451756F010EE56F72517419FB
:1032300009E173517519D8A405D0FB51D8A402D067
:10324000000EE56FE5C086F08651D8B40AD08151F2
:10325000D8A407D074C04CF075C04DF007ECB4F0A2
:10326000816F8151D8A43BD07A517B11D8A428D04A
:103270008651D8B41BD0A00E446E060E456EA20E29
:10328000466E0FECB5F0816F74C072F075C073F0CC
:103290008151D8A409D0020EA35DD8B005D0010E8B
:1032A000FB6F130E816F02D0000EFB6FADC0E3F019
:1032B000030EE317E351800DF3CF6BF1F4CF6CF104
:1032C0008151D8A40AD0A00E01016B25D96E060E3B
:1032D0006C21DA6EDF50596E02D0010EFB6F0001D7
:1032E0007B5103E17F0E7A5DD8B0FF697A4B7B2B6F
:1032F00001016B4B6C2B6AD06F0E3E6E010E3F6E60
:1033000025ECB7F00001816F6AD718ECAFF067D7F2
:103310008051D8A427D07A517B11D8A418D0A00E00
:10332000136E060E146E36C115F037C116F038C193
:1033300017F039C118F0000E1A6E000E196E020E49
:103340001C6E000E1B6E2EECA4F00001806F8051ED
:10335000D8A408D0A00E7A25D96E060E7B21DA6E8D
:10336000DF50596E7A29010E7B59D8A033D7FF69F7
:1033700031D780C059F02AD00001FF51E36FE46BD0
:10338000E451000AD8A422D0E351800AD8B4AAD6C6
:10339000010AD8B4ADD6030AD8B4B3D6010AD8B45A
:1033A000B9D6070AD8B4C4D6010AD8B418D7030AC4
:1033B000D8B418D7010AD8B49FD70F0AD8B4A5D764
:1033C000010AD8B4A5D7190AD8B4D3D7840E0001FE
:1033D000FF19D8B41200860EFF19D8B41200890E56
:1033E000FF19D8B41200FF691200680EE9ECB0F0C2
:1033F0000009D8B402D0000E12008E0EC16FFC0E70
:10340000C26F66ECB6F0010EBBECA9F07C0E0001B9
:10341000C16FFF0EC26F66ECB6F08A0E0001C16F7D
:10342000FB0EC26FA5C0C3F0C46B66ECB6F00F0E06
:10343000176E680E7DECAFF0800B0001D06FD0519D
:10344000D8B432D1D50E056E820E066EF90E076E17
:10345000000E096E020E086E3CECB0F0D50E056E43
:103460004BECB3F0AB6FD50E056E7F0E066EF90E0A
:10347000076E000E096E020E086E3CECB0F0D50E21
:10348000056E4BECB3F0AA6FD50E056E7C0E066E82
:10349000F90E076E000E096E020E086E3CECB0F0DD
:1034A000D50E056E4BECB3F0A96FD50E056E740EFC
:1034B000066EF90E076E000E096E020E086E3CECE9
:1034C000B0F0D50E056E4BECB3F0A86F53D0710E73
:1034D000F66EF90EF76E000EF86E0800F550610AF0
:1034E000D8A402D0010E44D0720EF66EF90EF76E1B
:1034F000000EF86E0800F5506E0AD8A402D0060E31
:1035000037D0070E35D0020E33D0720EF66EF90E9C
:10351000F76E000EF86E0800F550720AD8B404D0A9
:10352000000ED26F080E03D0000ED26F040ED16FC2
:10353000D1C0A7F046D0720EF66EF90EF76E000EEF
:10354000F86E0800F550720AD8B404D0000ED46F9B
:10355000050E03D0000ED46F030ED36FD3C0A7F0B7
:1035600030D0090E05D00A0E03D00B0E01D00C0E80
:10357000A76F27D0700EF66EF90EF76E000EF86E7C
:103580000800F550CE6FCF6BCF51000AD8A419D0E8
:10359000CE51410AD8B4B9D7050AD8B4E8D7020A3F
:1035A000D8B4B1D70C0AD8B492D7070AD8B4C3D7C5
:1035B000030AD8B4DAD7010AD8B4D5D71C0AD8B4CC
:1035C000D0D7D50E056E790E066EF90E076E000E79
:1035D000096E020E086E3CECB0F0D50E056E4BEC99
:1035E000B3F0A66F3D0EC16FFD0EC26F66ECB6F074
:1035F0005F0E0001C16FFB0EC26F66ECB6F0000EED
:10360000BBECA9F0D80E0001C16FFE0EC26F66ECD4
:10361000B6F0AFECB2F0586E790E5818D8B40CD0A2
:10362000590E5818D8B408D06E0E5818D8B404D013
:103630004E0E5818D8A4EDD7AE0E0001C16FFF0E84
:10364000C26F58C0C3F0C46B66ECB6F0790E581860
:10365000D8B404D0590E5818D8A41FD0AAC01BF053
:10366000A9C01CF0A8C01DF0A7C01EF0A6C01FF086
:103670000001AB51B5ECB1F0260E0001C16FFC0E9C
:10368000C26F66ECB6F0010EBBECA9F0150E00019E
:10369000C16FFE0EC26F66ECB6F00F0E176E080E0D
:1036A000186E680EDFECAFF0010E12006BAF6C937A
:1036B0006BBF05D06B5108E16A05D8B005D0000E8C
:1036C0003A6E010E396E04D06AC039F06BC03AF020
:1036D00068C03BF069C03CF06CA904D0FE0E3B26EC
:1036E000FF0E3C2224C03DF025C03EF026C03FF036
:1036F00027C040F028C041F029C042F02AC043F062
:103700002BC044F0000E466E1F0E456E000E0101E8
:10371000B86F93D04506D8A046060F0E3D14476EED
:10372000486A48BE08D0485004E10A0E475CD8A059
:1037300002D0570E01D0300E4724476E000E4820AD
:10374000486EBF0E2D6EFF0E2E6E2C502F6E306AFF
:103750002D502F262E503022305006E11A0E2F5CAD
:10376000D8B002D0010E01D0000E356E366A355049
:103770003610D8B427D09F0E2D6EFF0E2E6E200E61
:1037800047102F6E000E4810306E2D502F262E50F1
:103790003022305006E11A0E2F5CD8B002D0010E54
:1037A00001D0000E376E386A37503810D8B40AD0BE
:1037B00047C00BF048C00CF0DCECB1F00BC047F098
:1037C0000CC048F0990E4524D96E010E4620DA6EE1
:1037D00047C0DFFF3906D8A03A063B06D8A03C0612
:1037E0003DC02DF03EC02EF03FC02FF040C030F065
:1037F00041C031F042C032F043C033F044C034F035
:10380000050E09D0D8903432333232323132303270
:103810002F322E322D32E82EF5D72DC03DF02EC09E
:103820003EF02FC03FF030C040F031C041F032C018
:1038300042F033C043F034C044F046BE21D046507D
:1038400004E1020E455CD8A01BD03D503E103F1055
:1038500040104110421043104410D8A45BD73ABE28
:1038600005D03A5002E13904D8B054D73CBE08D054
:103870003C5003E13B04D8A003D000016CB34AD70D
:1038800000016CA916D04506D8A04606990E45241D
:10389000D96E010E4620DA6E2CC0DFFF4506D8A097
:1038A0004606990E4524D96E010E4620DA6E300E7A
:1038B000DF6E22C017F023C018F0990E4524196E50
:1038C000010E46201A6E3BC01BF03CC01CF0FEEC03
:1038D000AAF017C022F018C023F012007C51D8A41F
:1038E0008CBA0ED0000E136E000E146E000E156E04
:1038F000000E166E000E176E000E186EA5ECA3F0EB
:10390000C9ECB7F0828A0A0E276E03D0D5ECB7F067
:1039100027062750D8A4FAD7000E246E000E0D6E8D
:10392000000E0E6E000E0F6E000E106E400E6BEC51
:10393000B2F0E806D8A4B1D0AA0E0D6E010E0E6E3C
:10394000000E0F6E000E106E480E6BECB2F0E80623
:10395000D8A45CD0000E276E27501D0FD96EDA6AEE
:10396000D5ECB7F0DF6E272A030E2764F5D71F04C6
:10397000D8A493D0AA0E2018D8A48FD0270E266ED4
:10398000100E256E05D04AECB7F02506D8A0260605
:1039900025502610D8B40ED0000E0D6E000E0E6EFF
:1039A000000E0F6E400E106EE90E6BECB2F00009C7
:1039B000D8A4E9D725502610D8B46FD0000E0D6ECC
:1039C000000E0E6E000E0F6E000E106E7A0E6BEC77
:1039D000B2F00009D8A461D0000E276E27501D0F49
:1039E000D96EDA6AD5ECB7F0DF6E272A030E2764AA
:1039F000F5D71DBC04D0000E226E040E03D0000EBD
:103A0000226E0C0E216E21C024F047D0000E0D6EE8
:103A1000000E0E6E000E0F6E000E106EE90E6BECB7
:103A2000B2F01C6E020E1C6004D0020E246EE90E71
:103A300003D0010E246E410E236E270E266E100E4B
:103A4000256E05D04AECB7F02506D8A026062550ED
:103A50002610D8B40ED0000E0D6E000E0E6E000EA5
:103A60000F6E000E106E23506BECB2F00009D8A45C
:103A7000E9D725502610D8B40ED0000E0D6E020ED8
:103A80000E6E000E0F6E000E106E500E6BECB2F04C
:103A90000009D8B402D0000E246E24C07CF0828AC3
:103AA000D5ECB7F02450D8A402D0010E1200000EBD
:103AB00012006BAF6C936BBF05D06B5108E16A05C8
:103AC000D8B005D0000E356E010E346E04D06AC039
:103AD00034F06BC035F068C036F069C037F024C0F0
:103AE00038F025C039F026C03AF027C03BF028C096
:103AF0003CF029C03DF02AC03EF02BC03FF0000E44
:103B0000416E1F0E406E000E0101B86F76D0400668
:103B1000D8A04106990E4024D96E010E4120DA6EDC
:103B200038C005F039C006F03AC007F03BC008F0D5
:103B30003CC009F03DC00AF03EC00BF03FC00CF0A5
:103B40000A0E0D6E000E0E6E000E0F6E000E106E41
:103B5000000E116E000E126E000E136E000E146E2B
:103B60000FECA9F005C02CF006C02DF007C02EF018
:103B700008C02FF009C030F00AC031F00BC032F09D
:103B80000CC033F02C50300FDF6E3406D8A0350651
:103B90003606D8A0370638C005F039C006F03AC05E
:103BA00007F03BC008F03CC009F03DC00AF03EC041
:103BB0000BF03FC00CF00A0E0D6E000E0E6E000EE4
:103BC0000F6E000E106E000E116E000E126E000EC3
:103BD000136E000E146E6CECA6F005C038F006C033
:103BE00039F007C03AF008C03BF009C03CF00AC009
:103BF0003DF00BC03EF00CC03FF040504110D8B437
:103C00001BD0385039103A103B103C103D103E107C
:103C10003F10D8A47CD735BE05D0355002E134041E
:103C2000D8B075D737BE08D0375003E13604D8A0D6
:103C300003D000016CB36BD722C017F023C018F07B
:103C4000990E4024196E010E41201A6E36C01BF0E9
:103C500037C01CF0FEECAAF017C022F018C023F009
:103C600012000001D16F0001CC51D8B41200180E1F
:103C7000C16FFE0EC26F66ECB6F0D50E0001C16FCB
:103C8000FE0EC26FCCC0C3F0C46B66ECB6F0020E81
:103C90000001C16FFD0EC26F66ECB6F031D0520E5E
:103CA000C16FFF0EC26F66ECB6F046D0360EC16F24
:103CB000FF0EC26F66ECB6F03FD0630EC16FFF0E11
:103CC000C26F66ECB6F038D0E30EC16FFE0EC26F65
:103CD00066ECB6F031D0C00EC16FFE0EC26F66EC5E
:103CE000B6F02AD0740EC16FFE0EC26F66ECB6F04D
:103CF00023D06B0EC16FFF0EC26F66ECB6F01CD006
:103D00000001CC51CF6FD06BD051000AD8A4F1D7AD
:103D1000CF51010AD8B4C3D7030AD8B4C7D7010A10
:103D2000D8B4CBD7070AD8B4CFD7010AD8B4D3D7E1
:103D3000030AD8B4D7D7DDD7B30E0001C16FFF0E89
:103D4000C26F66ECB6F02AD09E0EC16FFF0EC26F36
:103D500066ECB6F03CD0D60EC16FFF0EC26F66ECBB
:103D6000B6F035D0CC0EC16FFF0EC26F66ECB6F068
:103D70002ED0980EC16FFF0EC26F66ECB6F027D042
:103D8000D10EC16FFF0EC26F66ECB6F020D06B0E85
:103D9000C16FFF0EC26F66ECB6F019D00001D151B1
:103DA000CF6FD06BD051000AD8A4F1D7CF51000A01
:103DB000D8B4CAD7010AD8B4CED7030AD8B4D2D758
:103DC000010AD8B4D6D7070AD8B4DAD7E0D7F90EA3
:103DD0000001C16FFE0EC26F66ECB6F00001CD515E
:103DE000CE11D8B40CD0040EC16FFF0EC26F66ECBA
:103DF000B6F0CDC0C1F0CEC0C2F066ECB6F0A40EF5
:103E00000001C16FFF0EC26F66ECB6F012006EC00B
:103E100035F06FC036F026502510241004E1020E54
:103E2000235CD8A010D020EE06F03550D9263650AD
:103E3000DA22DE50235CDE502458DE502558DE5056
:103E40002658D8A0A4D0010E236E000E246E000EBA
:103E5000256E000E266E1200310E136E146A20EECF
:103E60000AF03550D9263650DA22DECF27F0DECFE1
:103E700028F0DECF29F0DECF2AF024502B6E25501B
:103E80002C6E26502D6E2E6A27502B24156E28502E
:103E90002C20166E29502D20176E2A502E20186EB9
:103EA000FF0E23142F6E000E2414306ED8902F3482
:103EB000196E30341A6E000E1C6E020E1B6E2EEC44
:103EC000A4F00009D8A4BFD7310E056EBAECB3F048
:103ED00005C023F006C024F0256A266A1200310EC0
:103EE000136E146A20EE0AF03550D9263650DA22C5
:103EF000DECF27F0DECF28F0DECF29F0DECF2AF0AC
:103F000023C02BF024C02CF025C02DF026C02EF0AD
:103F1000080E05D0D8902E322D322C322B32E82EBE
:103F2000F9D727502B24156E28502C20166E2950B7
:103F30002D20176E2A502E20186E7F0E23142F6E00
:103F4000000E2414306ED8902F363036D8902F368D
:103F500030362FC019F030C01AF0000E1C6E040E5F
:103F60001B6E2EECA4F00009D8A46DD7310E056E9F
:103F7000B7ECA8F0FF0E0514236EFF0E0614246E96
:103F8000FF0E0714256E0F0E0814266E120035C0A2
:103F9000D9FF36C0DAFFDF50276E286A2850000AA2
:103FA000D8A451D72750020AD8B456D7010AD8B49A
:103FB00096D749D76EC03FF06FC040F03750D96EEA
:103FC000DA6ADECF38F0DDCF39F0010E3824456EE5
:103FD000000E3920466E45504610D8B40BD03750ED
:103FE000D96EDA6A0B0ED926DE50DE10DE10DE1036
:103FF000D8A402D0030E120045C038F00F0E3816B8
:10400000D8A49BD03750D96EDA6A0B0ED926DE2A97
:10401000000EDE22DE22DE223750D96EDA6A070E6B
:10402000D926DE50DE10DE10DE10D8A40DD020EE32
:1040300004F03F50D9264050DA22DE50455CDE5075
:104040004658D8B0D7D779D045C038F046C039F0F7
:10405000040E3A6ED890393238323A2EFBD7FF0E22
:104060003B6EFF0E3C6E20EE02F03F50D9264050D2
:10407000DA22DF503D6E3E6A3B503D263C503E22E8
:1040800038503D1639503E163D503E10D8A455D0FC
:104090003750D96EDA6A070ED926DECF23F0DECF8D
:1040A00024F0DECF25F0DECF26F007EC9FF023C012
:1040B00041F024C042F025C043F026C044F04450F3
:1040C0004310421006E1020E415CD8B002D0010E4E
:1040D000120020EE06F03F50D9264050DA22DE5082
:1040E000415CDE504258DE504358DE504458D8B050
:1040F00081D73750D96EDA6A070ED92641C0DEFF64
:1041000042C0DEFF43C0DEFF44C0DEFF41C011F00D
:1041100042C012F043C013F044C014F098ECA7F072
:104120003750D96EDA6A0B0ED92611C0DEFF12C0E5
:10413000DEFF13C0DEFF14C0DEFF3750D96EDA6A2F
:1041400045C0DEFF46C0DDFF000E1200000E1A6EF5
:10415000000E196E000E136E000E126E02D00C4A85
:104160000D2A010E186E0CC0F6FF0DC0F7FF000EF1
:10417000F86E0800F550200AD8B41AD0F70E0E6E6B
:10418000FF0E0F6E0CC0F6FF0DC0F7FF000EF86EAD
:104190000800F550106E116A0E5010260F501122B3
:1041A000115004E1050E105CD8A002D0000E186E6C
:1041B00018C014F0156A14501510D8B408D0CFD711
:1041C000000E136E010E126E0C4A0D2A32D00CC076
:1041D000F6FF0DC0F7FF000EF86E0800F5500E6EEA
:1041E0000F6A0F50000AD8A424D00E502B0AD8B45E
:1041F000EBD7060AD8B4E4D71CD019C005F01AC012
:1042000006F0000E086E0A0E076EB7ECB5F00CC093
:10421000F6FF0DC0F7FF000EF86E0800F550055EC2
:10422000000E065A300E0524196E000E06201A6E76
:10423000CBD7D00E0E6EFF0E0F6E0CC0F6FF0DC06A
:10424000F7FF000EF86E0800F550106E116A0E5060
:1042500010260F501122115006E10A0E105CD8B042
:1042600002D0010E01D0000E166E176A16501710FC
:10427000D8A4C3D712501310D8A40DD019C00EF073
:104280001AC00FF00E1E0F1E0E4A0F2A0EC00CF0A1
:104290000FC00DF0120019C00CF01AC00DF0120082
:1042A00021EEBBF010EE15F0060EDBCFE3FFE806C3
:1042B000FCE212C020F013C021F020502110D8A43D
:1042C00003D0150E206E216A20C005F021C006F033
:1042D0008DECB2F005C024F006C025F06AC022F0D3
:1042E0006BC023F023BE0ED02450225C2350800AE2
:1042F000146E2550800A1458D8B004D022C024F07F
:1043000023C025F024C022F025C023F068C01EF091
:1043100069C01FF000016CA10DD016D0000E086E10
:10432000200E076E10C009F011C00AF0ADECAEF01F
:10433000244A252A1E50245C2550800A146E1F50E2
:10434000800A1458D8A0EAD7000E1D6E000E1C6E0D
:104350001FD020C0F6FF21C0F7FF000EF86E0E0E32
:10436000F76403D00800F55005D0F6CFE1FFF7CF92
:10437000E2FFE750146E1450076E086A10C009F08F
:1043800011C00AF0ADECAEF0204A212A1C4A1D2AC9
:1043900022501C5C1D50800A146E2350800A145851
:1043A000D8A0D7D700016CB10DD016D0000E086E82
:1043B000200E076E10C009F011C00AF0ADECAEF08F
:1043C000244A252A1E50245C2550800A146E1F5052
:1043D000800A1458D8A0EAD724C010F025C011F0E4
:1043E000120002D04F4A502A4FC0F6FF50C0F7FFCC
:1043F000000EF86E0E0EF76403D00800F55005D0DD
:10440000F6CFE1FFF7CFE2FFE750200AD8B4EAD7B2
:104410004FC0F6FF50C0F7FF000EF86E0E0EF764A7
:1044200003D00800F55005D0F6CFE1FFF7CFE2FF4B
:10443000E7502F0AD8A402D04F4A502A4D50D96EC7
:10444000DA6A030ED926DE6ADE6ADE6ADD6A4FC0EA
:10445000F6FF50C0F7FF000EF86E0E0EF76403D0A3
:104460000800F55005D0F6CFE1FFF7CFE2FFE750A7
:10447000516E200E51600BD04DC01CF016ECA3F015
:10448000526E4E50D96EDA6A000EDF6E3DD04DC0CE
:104490000BF04F0E0C6EADECA4F0526E5250D8A43F
:1044A00033D04DC047F04EC048F098ECA5F0526EA6
:1044B0005250D8A429D04D50D96EDA6A020ED926AE
:1044C000DF50D96EDA6A0B0ED926DF50D8A41CD083
:1044D0004E50D96EDA6A0B0ED926DFB803D0030E20
:1044E000526E12D04EC00CF0FDECACF04D50D96EB7
:1044F000DA6A030ED9260CC0DEFF0DC0DEFF0EC047
:10450000DEFF0FC0DEFFC3D752501200010EDF6F77
:1045100090ECB5F005C0E0F006C0E1F007C0E2F0B5
:1045200008C0E3F07FD090ECB5F00001E051055CED
:10453000D76FE1510658D86FE2510758D96FE35150
:104540000858DA6FDA51D91109E1B80ED75D0B0EB0
:10455000D859D8A08DAC02D0000EDF6F90ECB5F02A
:104560000001DB51055CD76FDC510658D86FDD5177
:104570000758D96FDE510858DA6FDA51D91106E1C0
:104580002D0ED75D010ED859D8A018D083AE02D019
:10459000010E01D0000EFF0AD76FD733D7338350F7
:1045A000D7197F0BD719836E90ECB5F005C0DBF0FF
:1045B00006C0DCF007C0DDF008C0DEF090ECB5F01E
:1045C0000001E051055CD76FE1510658D86FE25108
:1045D0000758D96FE3510858DA6FDA51D91106E15B
:1045E000B90ED75D0B0ED859D8A01CD0DF51D8B466
:1045F00019D0D451D511D611D8B414D0060E8919BA
:10460000D8A404D0060E8819D8B40CD001D80AD08A
:104610000500FA6ED451FD6ED551FE6ED651FF6E77
:10462000FA5012005A50D8A412007DD76EC025F05F
:104630006FC026F01C50D96EDA6A000EDE6E000ED6
:10464000DD6E1C50D96EDA6A030ED926DECF27F054
:10465000DECF28F0DECF29F0DECF2AF027042810A5
:1046600029102A10D8B410D020EE06F02550D926F3
:104670002650DA22DE50275CDE502858DE502958BA
:10468000DE502A58D8A002D0010E12002750281060
:1046900029102A10D8A416D025C0D9FF26C0DAFFC9
:1046A000030EDE18D8A40ED020EE0EF02550D92629
:1046B0002650DA22DECF27F0DECF28F0DECF29F039
:1046C000DECF2AF01C50D96EDA6A070ED92627C031
:1046D000DEFF28C0DEFF29C0DEFF2AC0DEFF275034
:1046E000281029102A10D8A40FD020EE0EF0255043
:1046F000D9262650DA22DECF21F0DECF22F0DECF1F
:1047000023F0DECF24F012D027C011F028C012F021
:1047100029C013F02AC014F098ECA7F011C021F0C2
:1047200012C022F013C023F014C024F01C50D96E24
:10473000DA6A0B0ED92621C0DEFF22C0DEFF23C0BD
:10474000DEFF24C0DEFF000E1200010E196E1350B2
:104750001410D8B421D015C01AF016C01BF010D018
:1047600013C0D9FF14C0DAFFDF5059ECB7F0134A79
:10477000142A01016707D8A068071A06D8A01B06EB
:104780001A501B10D8B405D0010167516811D8A484
:10479000E7D7000E196E60D01550161017101810BC
:1047A000D8B425D000017CB708D0090ED8901536B2
:1047B000163617361836E82EF9D715C00DF016C084
:1047C0000EF017C00FF018C010F0580E6BECB2F0DE
:1047D0000009D8A441D0FF0E59ECB7F0FE0E59ECF9
:1047E000B7F0020E0101686F000E676FD2D7020E9C
:1047F000010167251A6E000E68211B6E03D0000EA2
:1048000059ECB7F01A06D8A01B061A28F8E11B28A5
:10481000D8A4F5D7D5ECB7F01F0B050AD8A419D04A
:10482000130E1B6E880E1A6E05D04AECB7F01A06EE
:10483000D8A01B06D5ECB7F0FF0AD8B404D01A50A4
:104840001B10D8A4F2D71A501B10D8B402D0000EF7
:10485000196E828AD5ECB7F01950120000017CB7AE
:1048600008D0090ED8901536163617361836E82EA9
:10487000F9D7010E1F6E15C00DF016C00EF017C04F
:104880000FF018C010F0510E6BECB2F00009D8A474
:104890005FD09C0E226E400E216ED5ECB7F0206EDC
:1048A0002028D8A407D02106D8A022062150221003
:1048B000D8A4F3D7FE0E2018D8A44AD019C01DF0F2
:1048C0001AC01EF01D1E1E1E1D4A1E2A1B501D5EF4
:1048D0001C501E5A020E1D24216E020E1E20226E36
:1048E00019501A10D8B409D0D5ECB7F01906D8A0D1
:1048F0001A0619501A10D8A4F7D713501410D8B4A8
:1049000011D0D5ECB7F013C0D9FF14C0DAFFDF6EB9
:10491000134A142A1B06D8A01C061B501C10D8B41E
:104920000CD0EFD7D5ECB7F051ECB8F01B06D8A0FF
:104930001C061B501C10D8A4F5D7D5ECB7F02106E7
:10494000D8A0220621502210D8A4F7D7000E1F6E3F
:10495000828AD5ECB7F01F5012000B50D96EDA6A7C
:10496000020ED926DF50136E13C005F0000E076E3D
:10497000200E066E000E096E0B0E086EDDECB5F013
:10498000000E146E14C012F0080E116E0C50D96E89
:10499000DA6ADECF0FF0DDCF10F012500F240D6E6B
:1049A000000E10200E6E0DC0F6FF0EC0F7FF000EB9
:1049B000F86E0E0EF76403D00800F55005D0F6CF60
:1049C000E1FFF7CFE2FFE750156E122A200E1564C3
:1049D00022D02F0E1518D8B41ED02E0E1518D8B40C
:1049E00004D01150145CD8A00FD0080E1118D8A410
:1049F00012D02E0E1518D8A40ED0080E146E0B0E61
:104A0000116ECBD7142AC9D713501424D96EDA6A81
:104A100015C0DFFFF7D712500F240D6E000E1020C7
:104A20000E6E0C50D96EDA6A0DC0DEFF0EC0DDFFCF
:104A30001350D96EDA6A0B0ED926200E156401D0F8
:104A400002D0010E01D0000EDF6E000E120023C056
:104A500013F0146A24C015F025C016F026C017F014
:104A600027C018F0010E1A6EFE0E196E000E1C6E95
:104A7000020E1B6E2EECA4F00009D8B402D0030E77
:104A8000120023C005F0BAECB3F0550E051804E18E
:104A9000AA0E0618D8B402D0020E120023C013F0DA
:104AA000146A24C015F025C016F026C017F027C0E0
:104AB00018F0000E1A6E360E196E000E1C6E020EE5
:104AC0001B6E2EECA4F00009D8A40DD023C005F075
:104AD000BAECB3F0460E051806E1410E0618D8A44C
:104AE00002D0000E120023C013F0146A24C015F087
:104AF00025C016F026C017F027C018F0000E1A6E59
:104B0000520E196E000E1C6E020E1B6E2EECA4F0DF
:104B10000009D8A40BD023C005F0BAECB3F0460EC0
:104B2000051804E1410E0618D8B4DBD7010E1200B7
:104B300047C01CF016ECA3F04C6E4C50D8B402D019
:104B40004C50120048C013F0146A4750D96EDA6A0C
:104B50000B0ED926DECF15F0DECF16F0DECF17F024
:104B6000DECF18F04750D96EDA6ADECF49F0DDCFDC
:104B70004AF00F0E4916000E4A16050ED890493617
:104B80004A36E82EFBD749C019F04AC01AF0000E89
:104B90001C6E200E1B6E2EECA4F00009D8B402D0BF
:104BA000010E01D0000E4C6E4C50D8A4C9D748500D
:104BB000D96EDA6ADF504B6E4B50D8A403D0030E87
:104BC0004C6EBED74850D96EDA6A0B0ED926DFB6C6
:104BD00013D048C005F04750D96EDA6A020ED926C4
:104BE000DF50066E000E086E0B0E076E68ECB0F01C
:104BF00005500610D8B4A4D747C037F0DAEC9FF0C0
:104C00004C6E4C50D8A49CD79DD76EC0DBF06FC0C3
:104C1000DCF00001DB51DC11D8A402D0050E12003B
:104C200020EE01F0DB51D926DC51DA22000EDF6ED6
:104C3000CE0EDF6FDD0E4D6EAE0E4E6E53C04FF0DA
:104C400054C050F0F1ECA1F00001DA6FDA51D8B4A1
:104C500002D0DA511200AE51D8B402D0B9A902D0B4
:104C6000030E1200AE0E0C6EFDECACF0000120EE57
:104C70001EF0DB51D926DC51DA220CC0DEFF0DC05C
:104C8000DEFF0EC0DEFF0FC0DEFFCA0E056EB7EC02
:104C9000A8F0000120EE1AF0DB51D926DC51DA220F
:104CA00005C0DEFF06C0DEFF07C0DEFF08C0DEFF76
:104CB00020EE16F0DB51D926DC51DA22DE6ADE6AFC
:104CC000DE6ADD6A20EE01F0DB51D926DC51DA2202
:104CD000010EDF6E000E120020EE15F0070EDE6AE8
:104CE000E806FDE20D500E100F10101011101210FA
:104CF00013101410D8B446D0010E1D6E0AD0D890EF
:104D00000D360E360F36103611361236133614366F
:104D10001D2A14AEF4D7D890153616361736183625
